:020000040800F2
:100000000050002021020008270200082B020008EF
:100010009D020008A1020008E9020008000000009B
:100020000000000000000000000000003103000894
:10003000350300080000000039030008B90C00086F
:100040004D0300084D0300084D0300084D03000850
:100050004D0300084D030008250800084D03000863
:100060004D0300084D0300084D0300084D03000830
:100070004D0300084D0300084D0300084D03000820
:100080004D0300084D0300084D0300084D03000810
:100090004D0300084D0300084D0300084D03000800
:1000A0004D0300084D0700084D0300084D030008EC
:1000B000BD0900089D0A0008750B00084D030008E3
:1000C0004D0300084D0300084D0300084D030008D0
:1000D0004D0300084D0300084D0300084D030008C0
:1000E0004D0300084D0300084D0300080000000008
:1000F0000000000000000000000000000000000000
:1001000000000000000000005FF808F100B583B0B7
:1001100000F0AAF9304B314A1360314A1360314B79
:10012000314A32498B4204D21168196004330432D7
:10013000F7E72A4B1A682E4B9A4200D0FEE7284B6D
:100140001A682C4B9A42F9D1234B2B4A13602B4A45
:1001500013602B4B02E000221A600433294A9342B9
:10016000F9D3254B1B6813B9244B1B6803B1FEE779
:1001700000F086F9694601A800F022F9224C234BD1
:10018000E41AA4100025AC4214DC214C214BE41AE3
:10019000A4100025AC4213DC0099019800F026FE63
:1001A00005461D4C1D4BE41AA410002C0EDC2846FD
:1001B00000F0E2F8154B53F8253098470135E2E797
:1001C000144B53F8253098470135E3E7013C134BB6
:1001D00053F824309847E8E7BABADECA0000002096
:1001E0009000002000000020202F00089400002034
:1001F000785634123254769894000020C8190020A2
:1002000094000020CC19002078030008780300082F
:1002100078030008780300087803000878030008D2
:1002200008B5FFF773FF00BEFEE71EF0040F0CBF1A
:10023000EFF30880EFF309807146414A10472DE93A
:10024000F04182B004468846124B5E6B9F6B9D6AFC
:100250001B6B13F0020F03D00E4BDB6A002B0CDB81
:100260000D4800F0B5F8CDF800803B4632462946EF
:10027000204600F009F900BEFEE74BF6AB6100F046
:100280007DF90028ECD0034B4FF00042DA6202B057
:10029000BDE8F08100ED00E0742E000800BEFEE72E
:1002A0001EF0040F0CBFEFF30880EFF309807146D6
:1002B000244A10472DE9F04182B004468846084B95
:1002C0005E6B9F6B9D6A074800F082F8CDF8008056
:1002D0003B4632462946204600F0D6F800BEFEE7EF
:1002E00000ED00E0842E00081EF0040F0CBFEFF3B9
:1002F0000880EFF309807146134A10472DE9F04159
:1003000082B004468846084B5E6B9F6B9D6A074827
:1003100000F05EF8CDF800803B4632462946204684
:1003200000F0B2F800BEFEE700ED00E0902E0008FD
:1003300000BEFEE700BEFEE700BEFEE7704700001D
:100340003F020008B5020008FD02000800BEFEE7FB
:10035000202F00080000002094000020202F00081B
:10036000000000000000000094000020CC190020D4
:08037000000000000000000085
:10037800FEE7000008B503460C4A12685AB10B4A5A
:100388001068033323F003030344094A934206D851
:10039800064A136008BD054A06491160EFE702F0F6
:1003A8009DF80C2303604FF0FF30F3E7980000201E
:1003B800004C0020CC19002001230360014B0B6086
:1003C800704700BF040000200FB400B583B004AB31
:1003D80053F8042B01938021064802F0C5F8002841
:1003E80003DD0146034800F037F803B05DF804EB7D
:1003F80004B07047A00000202DE9F04385B0044602
:100408000F4643560BB10E461EE0042528462146EA
:10041800ABBE0446384605B0BDE8F08314F9011BAD
:1004280004AA1A4402F8101C0133AB42F6D304AAFA
:100438001344002203F8102C4FF00408E946404604
:100448004946ABBE8046761B002EE3D03546102EBB
:1004580028BF10250023E8E708B5FFF7CDFF08BD42
:1004680008B500F0FDF8024A024B9A6008BD00BFCB
:100478000000000800ED00E008B500F019F908BD1B
:10048800F8B504460D4617461E462748FFF79CFF59
:1004980021682648FFF798FF61682548FFF794FF11
:1004A800A1682448FFF790FFE1682348FFF78CFF15
:1004B80021692248FFF788FF61692148FFF784FF17
:1004C800A1692048FFF780FFE1691F48FFF77CFF1B
:1004D8001E48FFF779FF29461D48FFF775FF1D4C99
:1004E800E16A1D48FFF770FF216B1C48FFF76CFF9E
:1004F800E16B1B48FFF768FF15F0800F0AD115F470
:10050800004F0CD11748FFF75FFF06991648FFF711
:100518005BFFF8BD39461548FFF756FFEFE7314650
:100528001348FFF751FFEDE7582D0008682D000824
:10053800782D0008882D0008982D0008A82D00089F
:10054800B82D0008C82D0008D82D0008E82D00088F
:10055800F42D000800ED00E0042E0008142E000819
:10056800242E0008542E00085C2E0008342E0008A3
:10057800442E000883691A888A4201D000207047F7
:100588000268033A012A03D80233836101207047C5
:100598000020704782B00023019300932C4A13680F
:1005A80043F4803313602A4B1B6803F40033009331
:1005B800019B01330193009B1BB9019BB3F5A06F0D
:1005C800F1D1234B1B6813F4003F06D0012300939D
:1005D800009B012B04D002B0704700230093F7E77B
:1005E8001C4B1A6842F010021A601A6822F00302C3
:1005F8001A601A6842F002021A60A3F580535A681A
:100608005A605A685A605A6842F480625A605A6856
:1006180022F47C125A605A6842F4E8125A601A6846
:1006280042F080721A600A4B1B6813F0007FFAD000
:10063800074B5A6822F003025A605A6842F00202D5
:100648005A60034B5B6803F00C03082BF9D1C2E72F
:10065800001002400020024008B5FFF79BFF08BDCC
:1006680008B5104B1A6842F001021A6059680E4A20
:100678000A405A601A6822F0847222F480321A60A2
:100688001A6822F480221A605A6822F4FE025A601C
:100698004FF41F029A60FFF7DFFF044B4FF0006230
:1006A8009A6008BD001002400000FFF800ED00E06D
:1006B8001F4B5B6803F00C03042B15D0082B17D0D5
:1006C8001BB11C4B1C4A1A6002E01A4B1A4A1A60EA
:1006D800174B5B68C3F30313184AD35CDAB21549A6
:1006E8000B68D3400B607047124B134A1A60EFE750
:1006F8000F4A53685268C3F38343023312F4803FAE
:100708000AD00B4A526812F4003F0BD00C4A02FB85
:1007180003F3084A1360DBE7094A02FB03F3054ABF
:100728001360D5E7044A02FB03F3024A1360CFE7DC
:10073800001002401C00002000127A000C0000206B
:1007480000093D0008B52E4B1B7833B12D4B1A68B4
:100758002D4B1A602A4B00221A702B4B1B68012B59
:1007680010D9294A1368013B1360284B1A6922F0F3
:1007780001021A614FF6FF72DA625A6942F0010209
:100788005A6108BD204B1B68012B23D0204B1B78D6
:1007980043B91E4BDA6822F00102DA601A6822F0C7
:1007A80001021A601B4B1B689847184A136923F00B
:1007B80001031361134B1B68EBB113464FF6FF722D
:1007C800DA62124A536943F0010353610C4B012268
:1007D8001A70D6E70C4A1368013B13600B4B1A6971
:1007E80022F001021A610C4A1268DA625A6942F070
:1007F80001025A61C5E7084B1A68044BDA62E0E760
:10080800200000202801002020010020002C0140A9
:10081800300100202C0100202401002008B5044BE1
:100828001B689847034A536943F00103536108BDA5
:10083800340100200004014010B4012824D018B16C
:10084800022841D010BC7047072910D90F29F9D8C0
:10085800A1F10804E4B2A4000F23A3402A480168C8
:1008680021EA030302FA04F119430160EAE7890067
:100878000F2303FA01F0254C236823EA000302FA48
:1008880001F119432160DDE7072910D90F29D9D8CB
:10089800A1F10800C0B280000F2383401C4C2168DE
:1008A80021EA030302FA00F119432160CAE789002B
:1008B8000F2303FA01F0174C236823EA000302FA16
:1008C80001F119432160BDE7072910D90F29B9D8CB
:1008D800A1F10803DBB29B000F2098400E4C216861
:1008E80021EA000002FA03F101432160AAE7890026
:1008F8000F2303FA01F0094C236823EA000302FAE4
:1009080001F1194321609DE70408014000080140F6
:10091800040C0140000C014004100140001001408B
:10092800012818D010B1022829D07047012A0AD00E
:10093800002A2FD1012303FA01F11B4A136823EA85
:10094800010313607047012303FA01F1164A136883
:100958000B4313607047012A09D0DAB9012303FA5F
:1009680001F1124A136823EA010313607047012357
:1009780003FA01F10D4A13680B4313607047012A0B
:1009880009D03AB9012303FA01F1094A136823EAA5
:10099800010313607047012303FA01F1044A136845
:1009A8000B431360704700BF0C0801400C0C01405A
:1009B8000C10014008B5314B1B7833B1304B1A6825
:1009C800304B1A602D4B00221A702E4B1B68012BDE
:1009D80011D92C4A1368013B13604FF080431A6900
:1009E80022F001021A614FF6FF72DA625A6942F088
:1009F80001025A6108BD234B1B68012B26D0224BEC
:100A08001B784BB94FF08043DA6822F00102DA60B4
:100A18001A6822F001021A601C4B1B6898474FF0B5
:100A28008042136923F001031361154B1B68FBB166
:100A380013464FF6FF72DA624FF08042536943F073
:100A4800010353610D4B01221A70D3E70D4A136855
:100A5800013B13604FF080431A6922F001021A61CA
:100A68000B4A1268DA625A6942F001025A61C1E718
:100A7800074B1A684FF08043DA62DDE72100002057
:100A88004001002038010020600100205C010020A6
:100A98003C01002008B52E4B1B7833B12D4B1A684A
:100AA8002D4B1A602A4B00221A702B4B1B68012B06
:100AB80010D9294A1368013B1360284B1A6922F0A0
:100AC80001021A614FF6FF72DA625A6942F00102B6
:100AD8005A6108BD204B1B68012B23D0204B1B7883
:100AE80043B91E4BDA6822F00102DA601A6822F074
:100AF80001021A601B4B1B689847184A136923F0B8
:100B080001031361134B1B68EBB113464FF6FF72D9
:100B1800DA62124A536943F0010353610C4B012214
:100B28001A70D6E70C4A1368013B13600B4B1A691D
:100B380022F001021A610C4A1268DA625A6942F01C
:100B480001025A61C5E7084B1A68044BDA62E0E70C
:100B5800220000204C010020440100200004004035
:100B680068010020640100204801002008B52E4BD0
:100B78001B7833B12D4B1A682D4B1A602A4B002273
:100B88001A702B4B1B68012B10D9294A1368013B9B
:100B98001360284B1A6922F001021A614FF6FF729E
:100BA800DA625A6942F001025A6108BD204B1B689B
:100BB800012B23D0204B1B7843B91E4BDA6822F057
:100BC8000102DA601A6822F001021A601B4B1B68E6
:100BD8009847184A136923F001031361134B1B68E4
:100BE800EBB113464FF6FF72DA62124A536943F0CB
:100BF800010353610C4B01221A70D6E70C4A1368A3
:100C0800013B13600B4B1A6922F001021A610C4A6E
:100C18001268DA625A6942F001025A61C5E7084B64
:100C28001A68044BDA62E0E723000020580100202C
:100C38005001002000080040700100206C010020D5
:100C480054010020064B4FF480321A60043301220D
:100C58001A60034B1B6813F4003FFAD0704700BFBB
:100C6800001002401F291CD801280BD010B10228FF
:100C780010D070470B480368012202FA01F11943AA
:100C88000160704708480368012202FA01F119431C
:100C98000160704705480368012202FA01F119430F
:100CA80001607047141002401C10024018100240E6
:100CB80008B5084B1B7843B9074B1A6822F00202A3
:100CC8001A6000221A605A609A60044B1B689847A1
:100CD80008BD00BF7801002010E000E0740100208A
:100CE800094B40F241329A60DA6842F00802DA6051
:100CF800DA6842F00402DA60DA6842F40052DA6034
:100D080000221A60704700BF00380140044B1B687E
:100D180013F0200FFAD0024B5868C0B2704700BFDA
:100D280000380140FEE7704700B583B00C4B1868E7
:100D38000024009402232246214601F077F9094B4A
:100D48001868009402232246214601F06FF9FFF744
:100D5800DDFF054B1870FA2000F070FFE6E700BFD2
:100D68008401002088010020F00C002008B504E070
:100D7800012200210846FFF7D3FD4FF0FF32002182
:100D8800084601F007F9C0B20028F6D0054B1B78D9
:100D9800462BEDD0422BF0D1002211461046FFF72A
:100DA800BFFDEAE7F00C002008B504E00122114677
:100DB8000020FFF7B5FD4FF0FF320021084601F093
:100DC800E9F8C0B20028F6D0054B1B78522BEDD0BD
:100DD8004C2BF0D1002201211046FFF7A1FDEAE7D4
:100DE800F00C002000B585B0FFF72CFF0221084663
:100DF800FFF738FF0E210220FFF734FF0B220921ED
:100E08000020FFF719FD04220A210020FFF714FD36
:100E1800022200210846FFF70FFD022201210020CF
:100E2800FFF70AFD284B0293284B019300230093F8
:100E38000123C8222649274800F0A2FD264B186046
:100E4800264B0293264B0193022300930123C822C9
:100E58002449254800F094FD244B1860244B029344
:100E6800244B0193032300930123C82222492348DA
:100E780000F086FD224B186000F038FF214B0293EA
:100E8800214B0193072300930123C8221F492048BF
:100E980000F076FD1F4B186000F028FF1E4B0293F0
:100EA8001E4B0193062300930123C8221C491D48A9
:100EB80000F066FD1C4B186000F018FFFFF710FFEC
:100EC80000F07AFDFEE700BF480C00205416002011
:100ED800A02E00082D0D000880010020F40B002032
:100EE80014100020AC2E0008750D000884010020A5
:100EF800A00B002080080020B82E0008B10D0008C3
:100F08008801002074190020F40C0020C42E000869
:100F1800310D0008340600209C0C002034130020FA
:100F2800D02E00082F0D00087C010020034B036021
:100F3800034B0B6080231360704700BF8C050020B3
:100F48008C010020034B0360034B0B60802313606C
:100F5800704700BFE00500208C03002010B4134A3E
:100F680000E01A4613688342FBD351685418844240
:100F780009D041684418A3420AD00360904200D0C7
:100F8800106010BC70474068014451601046F0E79B
:100F9800074C2468A34206D05B6819444160136873
:100FA8001B680360EAE70460E8E700BF4806002022
:100FB8003806002018B338B50446A0F1080550F8E3
:100FC800042C0F4909680A4202D050F8080C00B1F5
:100FD80038BD22EA010244F8042C00F02FFD54F831
:100FE800041C084A13680B4413602846FFF7B6FF31
:100FF800054A13680133136000F0AEFDE8E7704757
:101008003C060020400600204406002082B0002351
:1010180001934FF0BF0383F31188BFF36F8FBFF3C2
:101028004F8F019B002BFCD002B070470648006828
:10103800006880F3088862B661B6BFF34F8FBFF3CC
:101048006F8F00DF00BF000008ED00E04FF08073F5
:1010580040F8043C21F0010140F8081C034B40F81B
:101068000C3C40F8202C4038704700BF1510000891
:101078004FF0BF0383F31188BFF36F8FBFF34F8F18
:10108800024A136801331360704700BF2400002030
:10109800034A1368013B13600BB983F31188704747
:1010A80024000020084A0023136008490B60084BFD
:1010B8001B680849A1FB03135B09013B06490B6048
:1010C80007231360704700BF10E000E018E000E05D
:1010D8001C000020D34D621014E000E010B50B4B4B
:1010E8001A6842F47F021A601A6842F07F421A6056
:1010F800FFF7D8FF0024064B1C60FFF797FF00F0AE
:10110800B7FDFFF783FF204610BD00BF20ED00E0CC
:101118002400002000F1080343604FF0FF32826092
:10112800C3600361002303607047002303617047B5
:1011380043684B609A688A609A6851609960086150
:10114800036801330360704730B40D68B5F1FF3FA1
:1011580002D000F1080202E0026904E01A4653686E
:101168001C68AC42FAD953684B6099608A60516038
:10117800086103680133036030BC70470369426843
:10118800816891608268416851605A68824206D0DD
:10119800002202611A68013A1A601868704782686A
:1011A8005A60F5E710B50446FFF762FFA26BE36BE0
:1011B8009A4204D00024FFF76BFF204610BD01249B
:1011C800F9E710B50446FFF753FFA36B23B10024DA
:1011D800FFF75EFF204610BD0124F9E770B504460D
:1011E8001646856B026C5AB903681BB1002001359D
:1011F800A56370BD806800F093FE0023A360F6E746
:101208006EB9406801F070F9226C6368134463603A
:10121800A268934219D3236863600020E7E7C06897
:1012280001F062F9226C5242E3681344E3602168DA
:101238008B4202D2A3681A44E260022E01D0002039
:10124800D5E725B1013D0020D1E70020CFE70020F8
:10125800CDE7026C72B110B5C3681344C3608468EB
:10126800A34201D30368C3600C46C168204601F05D
:101278003BF910BD704738B50546FFF7F9FE95F8FC
:10128800454064B203E000F035FE013C64B2002C36
:1012980008DD6B6A33B105F1240000F0B5FD0028C4
:1012A800F3D0F0E7FF2385F84530FFF7F1FEFFF7AD
:1012B800DFFE95F8444064B203E000F01BFE013CF9
:1012C80064B2002C08DD2B6933B105F1100000F081
:1012D8009BFD0028F3D0F0E7FF2385F84430FFF7A3
:1012E800D7FE38BD38B504460D46FFF7C1FE216864
:1012F800E26B236C03FB0210A0600020A063616016
:10130800013A02FB0313E360FF2384F8443084F8B6
:101318004530A5B923691BB9FFF7BAFE012038BDCE
:1013280004F1100000F070FD0028F5D0084B4FF0D4
:1013380080521A60BFF34F8FBFF36F8FECE704F151
:101348001000FFF7E7FE04F12400FFF7E3FEE3E7F0
:1013580004ED00E010B5029B0C4639B11A60D86361
:101368001C6401211846FFF7BDFF10BD1B60F6E79E
:1013780010B582B01C463BB1012384F84630009476
:101388009DF81030FFF7E6FF204602B010BD0000C0
:10139800F0B585B004460F4601921E46002539E097
:1013A800324639462046FFF719FF636A6BB938B1F0
:1013B8003C4B4FF080521A60BFF34F8FBFF36F8FD3
:1013C800FFF766FE012005B0F0BD04F1240000F02F
:1013D8001BFD0028F4D0334B4FF080521A60BFF346
:1013E8004F8FBFF36F8FEBE7FFF752FE0020EAE75E
:1013F80002A800F045FD012519E0002384F84430D7
:1014080021E0002384F8453023E02046FFF733FF2E
:1014180000F0A2FBFFF72CFEA26BE36B9A42BFD34E
:10142800022EBDD0019B002BDED0002DE0D0FFF7AF
:101438002FFE00F003FBFFF71BFE94F844305BB26D
:10144800B3F1FF3FD9D094F845305BB2B3F1FF3F19
:10145800D7D0FFF71DFE01A902A800F01DFDC8B9ED
:101468002046FFF79FFE0028CFD0019904F1100015
:1014780000F0AAFC2046FFF7FEFE00F06DFB0028F6
:10148800C8D1084B4FF080521A60BFF34F8FBFF39B
:101498006F8FBFE72046FFF7EEFE00F05DFB0020F0
:1014A80091E700BF04ED00E0F8B5EFF311864FF0C7
:1014B800BF0484F31188BFF36F8FBFF34F8F856B21
:1014C800C46BA54205D3022B03D0002086F31188F4
:1014D800F8BD1746054690F8454064B2826B1A4637
:1014E800FFF77CFEB4F1FF3F05D0013464B285F804
:1014F80045400120EAE76B6A0BB90120E6E705F1F0
:10150800240000F081FC18B127B101203860DDE724
:101518000120DBE70120D9E7F0B585B004460F4686
:10152800019200263CE039462046FFF792FE013D35
:10153800A563236923B9FFF7ABFD012005B0F0BD12
:1015480004F1100000F060FC0028F4D0344B4FF098
:1015580080521A60BFF34F8FBFF36F8FEBE7FFF72F
:1015680097FD0020EAE702A800F08AFC012621E0A6
:10157800002384F8443029E0002384F845302BE028
:101588002046FFF778FE00F0E7FA09E02046FFF76B
:1015980072FE00F0E1FA2046FFF713FE00283DD165
:1015A800FFF766FDA56B002DBDD1019B002BD6D0A2
:1015B800002ED8D0FFF76CFD00F040FAFFF758FD79
:1015C80094F844305BB2B3F1FF3FD1D094F8453082
:1015D8005BB2B3F1FF3FCFD0FFF75AFD01A902A8D4
:1015E80000F05AFC0028D1D12046FFF7EAFD002878
:1015F800C6D0019904F1240000F0E6FB2046FFF76D
:101608003AFE00F0A9FA0028CAD1054B4FF08052E3
:101618001A60BFF34F8FBFF36F8FC1E700208DE7CC
:1016280004ED00E070B504460D461646FFF720FDB0
:1016380094F844305BB2B3F1FF3F0DD094F84530D5
:101648005BB2B3F1FF3F0BD0FFF722FDA36B5BB199
:101658002046FFF710FE70BD002384F84430EDE704
:10166800002384F84530EFE73246294604F1240088
:1016780000F0B8FBECE70000074B1B681B6833B1B0
:10168800054B1B68DB681A68044B1A607047034BEC
:101698004FF0FF321A6070475406002024070020DC
:1016A8002DE9F04780469946089D099F0A9C266BBC
:1016B80002F18042013A06EB820626F0070600296D
:1016C80039D00A4600230F2B07D8D056E11881F8E5
:1016D8003400D15609B10133F5E7002384F84330CB
:1016E800062D00D90625E56265644FF0000AC4F8A6
:1016F80048A0201DFFF719FD04F11800FFF715FD9C
:101708002461C5F10705A56164620422514604F10C
:101718004C0000F0F4FE0122514604F1500000F0A4
:10172800EEFE4A4641463046FFF790FC206007B17E
:101738003C60BDE8F087002384F83430D0E700002F
:1017480038B5002407E004EB840293000E481844DF
:10175800FFF7E0FC0134062CF5D90C4D2846FFF7BD
:10176800D9FC0B4C2046FFF7D5FC0A48FFF7D2FC02
:101778000948FFF7CFFC0948FFF7CCFC084B1D6070
:10178800084B1C6038BD00BF5C060020FC0600202A
:1017980010070020300700205C07002048070020C1
:1017A800540600205806002010B50446FFF760FCD8
:1017B800204A1368013313601F4B1B685BB11F4B32
:1017C8001B686BB91C4B1B68DA6AE36A9A4207D834
:1017D800194B1C6004E0184B1C601368012B26D0C1
:1017E800174A136801331360E36A01229A401549C6
:1017F800086802430A6003EB83039A00211D12481C
:101808001044FFF795FCFFF743FC0C4B1B686BB1CA
:10181800094B1B68DA6AE36A9A4207D20B4B4FF00E
:1018280080521A60BFF34F8FBFF36F8F10BDFFF761
:1018380087FFD5E7E806002050060020440700206F
:10184800F4060020F80600205C06002004ED00E005
:1018580010B5044690F8513013B1012B07D010BDD4
:10186800006BFFF7A7FB2046FFF7A4FBF7E7FFF79E
:10187800A1FBF4E70F4B1B68D3B110B5FFF7F8FBDA
:101888000D4BDB68DC68201DFFF778FC0B4A1368FA
:10189800013B1360074A1368013B1360FFF7F8FB2D
:1018A8002046FFF7D5FF034B1B68002BE6D110BD80
:1018B800704700BFEC0600205C070020E806002007
:1018C80008B5FFF7D7FF064B1B68012BF9D9054B65
:1018D8004FF080521A60BFF34F8FBFF36F8FF0E75E
:1018E8005C06002004ED00E070B504460E461D4B72
:1018F8001D681D4B18680430FFF740FC50B91A4B9F
:101908001B68DA6A012303FA02F218490B6823EA12
:1019180002030B60B4F1FF3F13D02C44124B1B6839
:101928005C60A54216D8124B18680F4B1968043131
:10193800FFF70AFC0F4B1B68A34212D90D4B1C6022
:101948000FE0002EE9D0084B196804310A48FFF768
:10195800EFFB06E0094B1868034B19680431FFF7E1
:10196800F3FB70BD7007002050060020F806002029
:1019780054060020240700204807002058060020AD
:1019880030B587B00B9D0C9C04B125B90023059395
:10199800059807B030BD2563022584F8515000250D
:1019A8000395029405AD01950A9D0095FFF778FE11
:1019B8002046FFF7F9FEEBE710B588B00024059440
:1019C800069407AA06A905A8FFF7B0FA059B029393
:1019D800069B019300942346079A12491248FFF781
:1019E800CFFF38B100F0FAFB012805D00F4B1B6878
:1019F80008B010BD0020F7E74FF0BF0383F311884C
:101A0800BFF36F8FBFF34F8F094B4FF0FF321A6050
:101A1800084B01221A60084B00221A60FFF75EFB90
:101A2800E4E700BFDC2E0008C918000828000020E1
:101A3800240700204407002070070020024A13688A
:101A480001331360704700BFF0060020014B18688F
:101A5800704700BF70070020F8B5344B1B68002B97
:101A68005DD1334B1D6801351D60ADB1314B1B682D
:101A7800AB424AD90027304B1B68DB6A03EB830370
:101A88009A002E4B9B58012B00D901272C4B1B6821
:101A9800002B49D0012747E02A4A11682A4B1868C9
:101AA80010601960294A136801331360FFF7E4FDD9
:101AB800DCE70127234B1B681B6843B3214B1B68DA
:101AC800DB68DC6863689D4226D3261D3046FFF735
:101AD80055FBA36A1BB104F11800FFF74FFBE36A3B
:101AE80001229A401A49086802430A6003EB8303FB
:101AF8009A00314611481044FFF71AFBE26A0E4B70
:101B08001B68DB6A9A42D4D2D4E70027D2E7094B94
:101B18004FF0FF321A60AEE7064A1360ABE70D4A92
:101B280013680133136000273846F8BDF00600201B
:101B38007007002024070020500600205C060020C3
:101B480074070020540600205806002028070020AB
:101B5800F80600202C07002038B5FFF789FA2E4B2D
:101B68001A68013A1A601B68002B4DD12B4B1B6871
:101B78003BB300242A4B1B682BB3294BDB68DC687A
:101B880004F11800FFF7FAFA251D2846FFF7F6FAC0
:101B9800E36A01229A402349086802430A6003EB7A
:101BA80083039A00294620481044FFF7C1FAE26AE5
:101BB8001E4B1B68DB6A9A42DCD31D4B01221A605C
:101BC800D8E7002421E00CB1FFF756FD194B1C683B
:101BD80074B9174B1B68E3B1174B4FF080521A606A
:101BE800BFF34F8FBFF36F8F01240EE0013C07D086
:101BF800FFF732FF0028F9D00D4B01221A60F5E7F4
:101C08000C4B00221A60E4E70024FFF741FA204653
:101C180038BD0024F9E700BFF0060020E8060020E0
:101C280030070020F80600205C060020500600203F
:101C3800740700202C07002004ED00E010B540B91F
:101C48000A4B4FF080521A60BFF34F8FBFF36F8F6C
:101C580010BD0446FFF7F2FE00212046FFF744FEC0
:101C6800FFF77AFF0028EBD0F2E700BF04ED00E0B1
:101C7800194B1B681BBB10B4184B00221A60184B79
:101C88001B68B3FA83F3DBB2C3F11F0315489A004C
:101C9800D418A10001444C6864684C601A4491004F
:101CA8000831084484420ED003EB83039A000D4B9D
:101CB80013445B68DA680C4B1A6010BC7047074B1A
:101CC80001221A607047606803EB83029100054A9D
:101CD8000A445060E8E700BFF006002074070020BF
:101CE800F80600205C0600205006002038B504469F
:101CF800FFF7BEF94CB3251D2846FFF73FFA68B930
:101D0800E36A03EB83018A0028498A5832B9012221
:101D18009A4027490B6823EA02030B60A36A1BB1A8
:101D280004F11800FFF72AFA29462248FFF700FABB
:101D38000023002B0CDDFFF7ABF91F4B1B68A3B981
:101D48001E4B1B68A34217D038BD1C4B1C68D2E73A
:101D5800E21892F85020D2B2012A01D00133E8E704
:101D6800E218002182F85010F8E7FFF781F9FFF731
:101D780083FCFFF78DF9E3E70F4B1B6843B90D4B65
:101D88001A680F4B1B689A420BD0FFF771FFDBE70D
:101D98000C4B4FF080521A60BFF34F8FBFF36F8F19
:101DA800D2E7064B00221A60CEE700BF5C0600208F
:101DB800F8060020480700204407002050060020AD
:101DC800E806002004ED00E010B50C46044B196845
:101DD8001831FFF7B9F901212046FFF785FD10BD3D
:101DE8005006002038B50D461446064B19681831C0
:101DF800FFF79EF90CB14FF0FF3521462846FFF753
:101E080073FD38BD5006002038B5C368DC6804F19E
:101E180018052846FFF7B2F9134B1B68E3B9251DCF
:101E28002846FFF7ABF9E36A01229A400F49086890
:101E380002430A6003EB83039A0029460C481044C6
:101E4800FFF776F9E26A0B4B1B68DB6A9A4208D9FE
:101E58000120094B186038BD29460848FFF768F982
:101E6800F0E70020F7E700BFF0060020F8060020A2
:101E78005C06002050060020740700203007002070
:101E8800034B1B680360034B1B684360704700BF2C
:101E98002807002070070020F8B504460D46FFF714
:101EA800E7F8124B1A686168501A2B68B3F1FF3FC4
:101EB8001AD027680E4E3668B74201D0914208D929
:101EC80083420AD800232B600124FFF7E1F820465B
:101ED800F8BD00232B600124F7E71B1A2B6020466E
:101EE800FFF7CEFF0024F0E70024EEE7700700209C
:101EF80028070020014B01221A6070477407002050
:101F0800054B1B6833B1054B1B680BB100207047AC
:101F1800022070470120704744070020F006002087
:101F280078B338B50446826C013A8264C06A616C41
:101F3800884228D00AB1002038BD251D2846FFF761
:101F48001DF940B9E26A012303FA02F20F490B684E
:101F580023EA02030B60636CE362C3F10702A26128
:101F6800012404FA03F20949086802430A6003EBF2
:101F780083039A00294606481044FFF7D9F82046FB
:101F8800DAE7002070470020D6E700BFF8060020F7
:101F98005C06002070B504460E461546FFF768F843
:101FA800204B1B6804F1120203EB82035B6833B910
:101FB8001C4B1B682344012283F85020F5B9FFF716
:101FC80067F8FFF755F8174B1B6804F1120203EB8B
:101FD80082035D6845B1F6B9124B1B686A1E04F1AD
:101FE800120103EB81035A600E4B1B681C4400234B
:101FF80084F85030FFF74CF8284670BD1146284643
:10200800FFF772FC084B4FF080521A60BFF34F8FF6
:10201800BFF36F8FD3E7034B1B6803EB82030022E8
:102028005A60E1E75006002004ED00E02DE9F04198
:1020380006460C4617461D46DDF81880FFF718F8C7
:10204800B8F1000F06D004F1120306EB83035B68B6
:10205800C8F80030331993F85010C9B2022283F837
:1020680050206B1E032B21D8DFE803F0020A121858
:10207800123406EB840463681F436760012416E08A
:10208800123406EB840463680133636001240EE0B4
:10209800123406EB84046760012408E002290DD09D
:1020A800123406EB84046760012400E0012401294E
:1020B80006D0FEF7EDFF2046BDE8F0810024F6E7E4
:1020C800351D2846FFF75AF8F36A01229A400D4950
:1020D800086802430A6003EB83039A0029460A480A
:1020E8001044FFF725F8F26A084B1B68DB6A9A422E
:1020F800DFD9074B4FF080521A60BFF34F8FBFF301
:102108006F8FD6E7F80600205C06002050060020F6
:1021180004ED00E0064B1A6813682BB9012303602D
:1021280023B9D368186870470023F8E70020704780
:102138007807002008B54160006191420CD8D21A96
:1021480083699A4201D3012010E0011D094B1868E8
:10215800FEF7FAFF002009E09A4201D2994206D21E
:10216800011D054B1868FEF7EFFF002008BD012090
:10217800FCE700BF7C0700207807002030B583B05B
:10218800FEF776FF0E4B1B681BB1FEF781FF03B00D
:1021980030BD0C4D2846FEF7BDFF0B4C2046FEF720
:1021A800B9FF0A4B1D600A4B1C6000230093094BC2
:1021B800094A0C210A20FFF7DBF8014B1860E4E715
:1021C8006C080020F80700200C0800207807002081
:1021D8007C070020240800208007002010B588B064
:1021E800FFF7CCFF104B1B68D3B10024059406946D
:1021F80007AA06A905A8FEF7A5FE059B0293069B5C
:102208000193032300932346079A08490848FFF7D8
:10221800B7FB084B186008B1012002E0204600E037
:10222800002008B010BD00BF6C080020E42E000894
:10223800CD2400087008002030B585B0134C2568FF
:102248000DB31C46019102920390052913DCFFF798
:1022580057FE022807D000231A4601A90B48006838
:10226800FFF796F80DE00023089A01A907480068CF
:10227800FFF78EF805E00023224601A92846FFF75C
:1022880013F905B030BD0020FBE700BF6C08002043
:1022980070B582B0164B1B681A6812B3DB681E68EB
:1022A800DC68251D2846FEF769FF236A2046984703
:1022B80094F8243013F0040FECD0A36933449E4201
:1022C80007D2636024612946094B1868FEF73CFF72
:1022D800E0E7002100910B4632462046FFF7ACFFAD
:1022E800D8E7044A106802490860136002B070BD5C
:1022F800780700207C07002038B50546FFF7A6FBC5
:102308000446074B1B68834205D800232B60044B07
:102318001C60204638BDFFF7BBFF01232B60F6E7A2
:102328002008002070B582B005460E46124B1B6887
:10233800DB68DC68201DFEF721FF94F8243013F0D9
:10234800040F08D123F0010384F82430236A2046BF
:10235800984702B070BDA1692B46324629442046F1
:10236800FFF7E8FE0028F1D0002100910B462A462D
:102378002046FFF761FFE9E77807002070B582B0D3
:1023880006460C46FFF75AFB01A8FFF7B5FF019B6D
:1023980023BB05460CB9B04217D224B1114B1B68B8
:1023A8001B68CBB901242246711B0F4B1868FFF735
:1023B80039F9FFF7D1FB98B90C4B4FF080521A60EE
:1023C800BFF34F8FBFF36F8F0AE0FFF7C5FB2946B6
:1023D8003046FFF7A7FF03E00024E4E7FFF7BCFB64
:1023E80002B070BD7C0700206C08002004ED00E0FE
:1023F80030B587B0002203A9314B1868FFF78CF875
:1024080000285BD0039B002BF4DB059C636913B1A8
:10241800201DFEF7B3FE02A8FFF76EFF039B092BF2
:10242800E8D8DFE803F0050505272E3D0505272E2A
:1024380094F8243043F0010384F824300499A56902
:102448000B46024629442046FFF774FE0028D1D0E7
:10245800236A2046984794F8243013F0040FC9D013
:10246800A269002100910B46049802442046FFF718
:10247800E3FEBFE794F8243023F0010384F8243006
:10248800B8E794F8243043F0010384F82430049921
:10249800A1610346024601442046FFF74BFEA9E727
:1024A80094F8243013F0020F04D023F0010384F8C9
:1024B80024309FE72046FEF77DFD9BE707B030BD3F
:1024C8006C08002000B583B001A8FFF723FE01992E
:1024D800FFF754FFFFF78CFFF6E70000014B186881
:1024E800704700BF2C00002010B5431E0A449142DB
:1024F80000D110BD11F8014B03F8014FF7E703466F
:102508000244934200D1704703F8011BF9E730B544
:10251800141E05469BB0184605DA8B234FF0FF3092
:102528002B601BB030BD4FF40273ADF80C300CBFFC
:10253800234604F1FF33029305934FF6FF7300918E
:102548000491ADF80E3002461E9B6946284600F0FD
:1025580073F8431CBCBF8B232B60002CE1D00022F6
:10256800009B1A70DDE7000007B5009313460A4682
:10257800014603480068FFF7CAFF03B05DF804FB93
:102588002C0000202DE9F0478E6882469E420C46BA
:102598009046994637D88A8912F4906F31D0022331
:1025A800256809696F1A656905EB450595FBF3F51B
:1025B80009F101033B449D4238BF1D46530530D500
:1025C800294600F02BFB064650B90C234FF0FF308C
:1025D800CAF80030A38943F04003A381BDE8F0871F
:1025E8003A462169FFF780FFA38923F4906343F0FB
:1025F8008003A38126613E4426604E466561ED1B3B
:10260800A5604E4500D94E4632464146206800F046
:102618009FFAA36800209B1BA36023681E442660C2
:10262800DCE72A4600F054FB06460028E2D121697F
:10263800504600F0A7FAC8E72DE9F04F9DB0039384
:102648008B8980461D060C4616460FD50B696BB95B
:10265800402100F0E3FA2060206128B90C23C8F873
:1026680000304FF0FF30C7E0402363610023099337
:1026780020238DF8293030234FF0010B8DF82A30B4
:1026880037463D4615F8013B0BB1252B3ED1B7EB3C
:10269800060A0BD05346324621464046FFF772FFE2
:1026A800013000F0A480099B534409933B78002B28
:1026B80000F09D8000234FF0FF32CDE905230493FD
:1026C80007938DF853301A932F46052217F8011BEC
:1026D8004F4800F02FFA049BD0B9D90644BF2022F6
:1026E8008DF853201A0744BF2B228DF853202A78DF
:1026F8002A2A15D02F4600200A25079A394611F8AC
:10270800013B303B092B4DD9B8B10FE02F46B8E754
:102718003F4A3D46801A0BFA00F018430490D3E76D
:10272800039A111D12680391002A01DB079204E045
:10273800524243F00203079204933B782E2B0CD1AC
:102748007B782A2B33D1039B02371A1D1B6803920F
:10275800002BB8BF4FF0FF3305932E4D0322397875
:10276800284600F0E7F938B14023401B03FA00F08F
:10277800049B0137034304933978062226487E1CBC
:102788008DF8281000F0D6F9002838D0234B13BB59
:10279800039B073323F0070308330393099B4B4438
:1027A80009936DE705FB023201200F46A6E70023D7
:1027B8000A25194601370593384610F8012B303A97
:1027C800092A03D9002BC8D00591C6E705FB0121CA
:1027D80001230746F0E703AB00932246104B04A9F8
:1027E8004046AFF30080B0F1FF3F8146D6D1A389C0
:1027F8005B063FF536AF09981DB0BDE8F08F03AB17
:1028080000932246064B04A9404600F081F8EAE707
:10281800EC2E0008F22E0008F62E0008000000003A
:102828008D2500082DE9F04791461F468A680B69F7
:1028380006469342B8BF1346C9F8003091F84320C2
:102848000C46DDF8208012B10133C9F80030236846
:10285800990642BFD9F800300233C9F8003025681C
:1028680015F0060507D104F1190AE368D9F8002024
:102878009B1AAB4229DC94F843302268003318BF16
:10288800012392062ED404F1430239463046C0474C
:10289800013021D02368E56803F00603042B18BF34
:1028A8000025D9F800204FF0000908BFAD1AA36829
:1028B800226908BF25EAE5759342C4BF9B1AED1843
:1028C8001A344D451AD1002008E0012352463946F2
:1028D8003046C047013003D14FF0FF30BDE8F087E4
:1028E8000135C2E73020E11881F843005A1C94F8FA
:1028F80045102244023382F84310C4E701232246DC
:1029080039463046C0470130E6D009F10109D8E719
:102918002DE9F04301F1430C0C46097E85B06E2980
:102928001746064698460C9A00F0B38022D86329C9
:1029380036D00AD8002900F0B980582900F08380E1
:1029480004F1420584F8421032E0642901D0692973
:10295800F6D120681368050603F104012AD51B681F
:102968001160002B03DA2D225B4284F843206F4864
:102978000A2239E0732900F09D8008D86F2920D0F9
:102988007029DDD1236843F02003236003E0752913
:1029980017D07829D4D17823654884F8453055E094
:1029A800136804F14205191D1B68116084F8423050
:1029B80001238CE01B6810F0400F116018BF1BB298
:1029C800CFE713682568181D1060280601D51B6815
:1029D80002E06806FBD51B886F2914BF0A2208226B
:1029E8005248002184F843106568002DA560C0F2A4
:1029F8009580216821F004012160002B3DD1002D34
:102A080040F08E806546082A0BD12368DB0708D57D
:102A1800236962689A42DEBF302305F8013C05F15C
:102A2800FF35ACEB05032361CDF800803B4603AAD4
:102A380021463046FFF7F6FE01304DD14FF0FF300A
:102A480005B0BDE8F083394884F84510136821685B
:102A58001D1D1B6815600A060BD5CA0744BF41F047
:102A6800200121601BB9226822F020022260102276
:102A7800B7E74D0648BF9BB2EFE76546B3FBF2F1F7
:102A880002FB1133C35C05F8013D0B460029F5D163
:102A9800B9E713682568181D6169106028061B6866
:102AA80001D5196002E06A06FBD519800023654646
:102AB8002361B9E71368191D11601D686268002158
:102AC800284600F037F808B1401B6060636823614E
:102AD800002384F84330A7E723692A46394630465D
:102AE800C0470130AAD023689B0713D4E068039B32
:102AF8009842B8BF1846A3E701234A4639463046EC
:102B0800C04701309AD00135E368039A9B1AAB425B
:102B1800F2DCEBE7002504F11909F5E7002BACD14D
:102B2800037804F1420584F842306CE7FD2E000872
:102B38000E2F000810B5C9B202449042034601D1D5
:102B4800002303E01C7801308C42F6D1184610BDF2
:102B5800884210B501EB020307D8421E99420AD0F9
:102B680011F8014B02F8014FF8E78342F5D98118B3
:102B7800D21AD34200D110BD13F8014D01F8014D0E
:102B8800F7E7000038B50546002943D051F8043C62
:102B98000C1F002BB8BFE41800F0D0F81E4A1368C9
:102BA800104633B9636014602846BDE8384000F029
:102BB800C6B8A3420BD921686218934201BF1A68AC
:102BC8005B685218226063600460EDE713465A6838
:102BD8000AB1A242FAD919685818A0420BD1206844
:102BE8000144581882421960DED1106852680144C5
:102BF80019605A60D8E702D90C232B60D4E7206803
:102C080021188A4201BF1168526809182160626060
:102C18005C60C9E738BD00BF7408002070B5CD1CE2
:102C280025F0030508350C2D38BF0C25002D064668
:102C380001DBA94203D90C233360002070BD00F0EA
:102C48007DF8214A1468214691B9204C23681BB9A4
:102C5800304600F063F820602946304600F05EF800
:102C6800431C24D10C233046336000F068F8E4E7B5
:102C78000B685B1B18D40B2B0FD90B60CC18CD50ED
:102C8800304600F05CF804F10B00231D20F007002B
:102C9800C31AD3D05A42E250D0E74B688C4216BFD1
:102CA800636013600C46EBE70C464968CCE7C41C2C
:102CB80024F00304A04205D0211A304600F02EF873
:102CC8000130CFD02560DBE77408002078080020A9
:102CD800F8B5074614460E4621B9BDE8F840114636
:102CE800FFF79CBF22B9FFF74DFF25462846F8BDE0
:102CF80000F026F8A0420FD221463846FFF78EFF93
:102D080005460028F2D031462246FFF7EDFB314652
:102D18003846FFF737FFE9E73546E7E738B50023D8
:102D2800054C054608462360FDF724FB431C02D1E9
:102D3800236803B12B6038BD7C08002070477047BA
:102D480051F8043C181F002BBCBF0B58C018704723
:102D5800537461636B206672616D653A0A00000006
:102D6800205230203D2020253038580A000000002D
:102D7800205231203D2020253038580A000000001C
:102D8800205232203D2020253038580A000000000B
:102D9800205233203D2020253038580A00000000FA
:102DA80020523132203D20253038580A00000000DA
:102DB800204C52203D2020253038580A00000000C1
:102DC800205043203D2020253038580A00000000BC
:102DD80020505352203D20253038580A000000006A
:102DE8004653522F4641523A0A00000020434653A8
:102DF80052203D2020253038580A000020484653EC
:102E080052203D2020253038580A000020444653DF
:102E180052203D2020253038580A000020414653D2
:102E280052203D2020253038580A0000204D4D46BC
:102E38004152203D20253038580A000020424641A2
:102E480052203D2020253038580A00004D69736310
:102E58000A000000204C522F4558435F52455455F4
:102E6800524E3D20253038580A0000005B486172F8
:102E7800644661756C745D0A000000005B427573FE
:102E88004661756C745D0A005B55736167654661E0
:102E9800756C745D0A0000004964656C2074617388
:102EA8006B0000006D6F746F72207461736B0000AB
:102EB800536572766F207461736B000055415254EC
:102EC800207461736B000000436865636B20746154
:102ED800736B000049444C4500000000546D72209B
:102EE80053766300232D302B2000686C4C006566F8
:102EF8006745464700303132333435363738394143
:102F08004243444546003031323334353637383958
:072F1800616263646566005D
:102F2000785634129C0000200000000000000000D1
:102F300000000000010203040607080900A24A0479
:102F400001010101AAAAAAAA06000000300000207F
:102F50000000000000000000000000000000000071
:102F60000000000000000000000000000000000061
:102F70000000000000000000000000000000000051
:102F80000000000000000000000000000000000041
:102F90000000000000000000000000000000000031
:102FA0000000000000000000000000000000000021
:042FB0003254769889
:040000050800010DE1
:00000001FF
