:020000040800F2
:100000000050002021020008270200082B020008EF
:100010009D020008A1020008E9020008000000009B
:100020000000000000000000000000003103000894
:10003000350300080000000039030008D908000853
:100040004D0300084D0300084D0300084D03000850
:100050004D0300084D0300084D0300084D03000840
:100060004D0300084D0300084D0300084D03000830
:100070004D0300084D0300084D0300084D03000820
:100080004D0300084D0300084D0300084D03000810
:100090004D0300084D0300084D0300084D03000800
:1000A0004D0300084D0300084D0300084D030008F0
:1000B0004D0300084D0300084D0300084D030008E0
:1000C0004D0300084D0300084D0300084D030008D0
:1000D0004D0300084D0300084D0300084D030008C0
:1000E0004D0300084D0300084D0300080000000008
:1000F0000000000000000000000000000000000000
:1001000000000000000000005FF808F100B583B0B7
:1001100000F0AAF9304B314A1360314A1360314B79
:10012000314A32498B4204D21168196004330432D7
:10013000F7E72A4B1A682E4B9A4200D0FEE7284B6D
:100140001A682C4B9A42F9D1234B2B4A13602B4A45
:1001500013602B4B02E000221A600433294A9342B9
:10016000F9D3254B1B6813B9244B1B6803B1FEE779
:1001700000F086F9694601A800F022F9224C234BD1
:10018000E41AA4100025AC4214DC214C214BE41AE3
:10019000A4100025AC4213DC0099019800F0D0FBBC
:1001A00005461D4C1D4BE41AA410002C0EDC2846FD
:1001B00000F0E2F8154B53F8253098470135E2E797
:1001C000144B53F8253098470135E3E7013C134BB6
:1001D00053F824309847E8E7BABADECA0000002096
:1001E0008400002000000020C4A500088800002032
:1001F0007856341232547698880000202801002066
:10020000880000202C0100207803000878030008F3
:1002100078030008780300087803000878030008D2
:1002200008B5FFF773FF00BEFEE71EF0040F0CBF1A
:10023000EFF30880EFF309807146414A10472DE93A
:10024000F04182B004468846124B5E6B9F6B9D6AFC
:100250001B6B13F0020F03D00E4BDB6A002B0CDB81
:100260000D4800F0B5F8CDF800803B4632462946EF
:10027000204600F009F900BEFEE74BF6AB6100F046
:100280007DF90028ECD0034B4FF00042DA6202B057
:10029000BDE8F08100ED00E02C13000800BEFEE791
:1002A0001EF0040F0CBFEFF30880EFF309807146D6
:1002B000244A10472DE9F04182B004468846084B95
:1002C0005E6B9F6B9D6A074800F082F8CDF8008056
:1002D0003B4632462946204600F0D6F800BEFEE7EF
:1002E00000ED00E03C1300081EF0040F0CBFEFF31C
:1002F0000880EFF309807146134A10472DE9F04159
:1003000082B004468846084B5E6B9F6B9D6A074827
:1003100000F05EF8CDF800803B4632462946204684
:1003200000F0B2F800BEFEE700ED00E04813000860
:1003300000BEFEE700BEFEE700BEFEE7704700001D
:100340003F020008B5020008FD02000800BEFEE7FB
:10035000C4A500080000002088000020C4A50008F3
:100360000000000000000000880000202C01002098
:08037000000000000000000085
:10037800FEE7000008B503460C4A12685AB10B4A5A
:100388001068033323F003030344094A934206D851
:10039800064A136008BD054A06491160EFE700F0F8
:1003A80003FB0C2303604FF0FF30F3E78C000020C1
:1003B800004C00202C01002001230360014B0B603E
:1003C800704700BF040000200FB400B583B004AB31
:1003D80053F8042B01938021064800F017FB0028EE
:1003E80003DD0146034800F037F803B05DF804EB7D
:1003F80004B07047940000202DE9F04385B004460E
:100408000F4643560BB10E461EE0042528462146EA
:10041800ABBE0446384605B0BDE8F08314F9011BAD
:1004280004AA1A4402F8101C0133AB42F6D304AAFA
:100438001344002203F8102C4FF00408E946404604
:100448004946ABBE8046761B002EE3D03546102EBB
:1004580028BF10250023E8E708B5FFF7CDFF08BD42
:1004680008B500F0FDF8024A024B9A6008BD00BFCB
:100478000000000800ED00E008B500F019F908BD1B
:10048800F8B504460D4617461E462748FFF79CFF59
:1004980021682648FFF798FF61682548FFF794FF11
:1004A800A1682448FFF790FFE1682348FFF78CFF15
:1004B80021692248FFF788FF61692148FFF784FF17
:1004C800A1692048FFF780FFE1691F48FFF77CFF1B
:1004D8001E48FFF779FF29461D48FFF775FF1D4C99
:1004E800E16A1D48FFF770FF216B1C48FFF76CFF9E
:1004F800E16B1B48FFF768FF15F0800F0AD115F470
:10050800004F0CD11748FFF75FFF06991648FFF711
:100518005BFFF8BD39461548FFF756FFEFE7314650
:100528001348FFF751FFEDE71012000820120008EA
:10053800301200084012000850120008601200082B
:10054800701200088012000890120008A01200081B
:10055800AC12000800ED00E0BC120008CC12000844
:10056800DC1200080C13000814130008EC12000831
:10057800FC12000883691A888A4201D0002070475B
:100588000268033A012A03D80233836101207047C5
:100598000020704782B00023019300932C4A13680F
:1005A80043F4803313602A4B1B6803F40033009331
:1005B800019B01330193009B1BB9019BB3F5A06F0D
:1005C800F1D1234B1B6813F4003F06D0012300939D
:1005D800009B012B04D002B0704700230093F7E77B
:1005E8001C4B1A6842F010021A601A6822F00302C3
:1005F8001A601A6842F002021A60A3F580535A681A
:100608005A605A685A605A6842F480625A605A6856
:1006180022F47C125A605A6842F4E8125A601A6846
:1006280042F080721A600A4B1B6813F0007FFAD000
:10063800074B5A6822F003025A605A6842F00202D5
:100648005A60034B5B6803F00C03082BF9D1C2E72F
:10065800001002400020024008B5FFF79BFF08BDCC
:1006680008B5104B1A6842F001021A6059680E4A20
:100678000A405A601A6822F0847222F480321A60A2
:100688001A6822F480221A605A6822F4FE025A601C
:100698004FF41F029A60FFF7DFFF044B4FF0006230
:1006A8009A6008BD001002400000FFF800ED00E06D
:1006B8001F4B5B6803F00C03042B15D0082B17D0D5
:1006C8001BB11C4B1C4A1A6002E01A4B1A4A1A60EA
:1006D800174B5B68C3F30313184AD35CDAB21549A6
:1006E8000B68D3400B607047124B134A1A60EFE750
:1006F8000F4A53685268C3F38343023312F4803FAE
:100708000AD00B4A526812F4003F0BD00C4A02FB85
:1007180003F3084A1360DBE7094A02FB03F3054ABF
:100728001360D5E7044A02FB03F3024A1360CFE7DC
:10073800001002401C00002000127A000C0000206B
:1007480000093D0010B4012824D018B1022841D076
:1007580010BC7047072910D90F29F9D8A1F108044E
:10076800E4B2A4000F23A3402A48016821EA030346
:1007780002FA04F119430160EAE789000F2303FA3A
:1007880001F0254C236823EA000302FA01F119431A
:100798002160DDE7072910D90F29D9D8A1F1080070
:1007A800C0B280000F2383401C4C216821EA030358
:1007B80002FA00F119432160CAE789000F2303FAFE
:1007C80001F0174C236823EA000302FA01F11943E8
:1007D8002160BDE7072910D90F29B9D8A1F108036D
:1007E800DBB29B000F2098400E4C216821EA0000E4
:1007F80002FA03F101432160AAE789000F2303FAF3
:1008080001F0094C236823EA000302FA01F11943B5
:1008180021609DE70408014000080140040C0140E4
:10082800000C01400410014000100140064B4FF439
:1008380080321A60043301221A60034B1B6813F4D8
:10084800003FFAD0704700BF001002401F291CD893
:1008580001280BD010B1022810D070470B4803684C
:10086800012202FA01F11943016070470848036840
:10087800012202FA01F11943016070470548036833
:10088800012202FA01F11943016070471410024075
:100898001C10024018100240014B00221A607047D9
:1008A80010E000E0074B5860074A01201070074A23
:1008B80011601A6802431A601A6842F002021A604C
:1008C800704700BF10E000E018010020140100206C
:1008D80008B5084B1B7843B9074B1A6822F0020287
:1008E8001A6000221A605A609A60044B1B68984785
:1008F80008BD00BF1801002010E000E0140100202E
:100908000A4A13889BB20A49C95C0A4B19601388C2
:1009180001339BB2138013889BB249F2372293426A
:1009280000D07047014B00221A80FAE71A01002014
:10093800581300080C08014008B5FFF777FF02219B
:100948000846FFF783FF022200210846FFF7FAFE58
:10095800022201210020FFF7F5FE022211460020A5
:10096800FFF7F0FE022203210020FFF7EBFE022230
:1009780004210020FFF7E6FE022205210020FFF7F0
:10098800E1FE022206210020FFF7DCFE02220721F9
:100998000020FFF7D7FEFFF77FFF02497D20FFF712
:1009A80081FFFEE709090008014B1868704700BF7E
:1009B8002000002030B5141E05469BB0184605DA05
:1009C8008B234FF0FF302B601BB030BD4FF4027308
:1009D800ADF80C300CBF234604F1FF3302930593A6
:1009E8004FF6FF7300910491ADF80E3002461E9B3E
:1009F8006946284600F072F8431CBCBF8B232B6065
:100A0800002CE1D00022009B1A70DDE707B50093A7
:100A180013460A46014603480068FFF7CBFF03B0B8
:100A28005DF804FB200000202DE9F0478E6882461F
:100A38009E420C469046994637D88A8912F4906FA0
:100A480031D00223256809696F1A656905EB4505E8
:100A580095FBF3F509F101033B449D4238BF1D4660
:100A6800530530D5294600F035FB064650B90C230E
:100A78004FF0FF30CAF80030A38943F04003A38148
:100A8800BDE8F0873A46216900F0B4FAA38923F457
:100A9800906343F08003A38126613E4426604E465E
:100AA8006561ED1BA5604E4500D94E46324641466C
:100AB800206800F0AAFAA36800209B1BA3602368A3
:100AC8001E442660DCE72A4600F05EFB0646002846
:100AD800E2D12169504600F0B1FAC8E72DE9F04F9C
:100AE8009DB003938B8980461D060C4616460FD58C
:100AF8000B696BB9402100F0EDFA2060206128B93C
:100B08000C23C8F800304FF0FF30C7E04023636182
:100B18000023099320238DF8293030234FF0010B4F
:100B28008DF82A3037463D4615F8013B0BB1252B89
:100B38003ED1B7EB060A0BD0534632462146404613
:100B4800FFF772FF013000F0A480099B534409931A
:100B58003B78002B00F09D8000234FF0FF32CDE959
:100B68000523049307938DF853301A932F460522D3
:100B780017F8011B4F4800F02FFA049BD0B9D9068B
:100B880044BF20228DF853201A0744BF2B228DF82A
:100B980053202A782A2A15D02F4600200A25079A9A
:100BA800394611F8013B303B092B4DD9B8B10FE05C
:100BB8002F46B8E73F4A3D46801A0BFA00F0184323
:100BC8000490D3E7039A111D12680391002A01DBF0
:100BD800079204E0524243F00203079204933B78E1
:100BE8002E2B0CD17B782A2B33D1039B02371A1D6D
:100BF8001B680392002BB8BF4FF0FF3305932E4DAF
:100C080003223978284600F0E7F938B14023401B21
:100C180003FA00F0049B0137034304933978062252
:100C280026487E1C8DF8281000F0D6F9002838D008
:100C3800234B13BB039B073323F0070308330393AA
:100C4800099B4B4409936DE705FB023201200F46CF
:100C5800A6E700230A25194601370593384610F8F8
:100C6800012B303A092A03D9002BC8D00591C6E7D1
:100C780005FB012101230746F0E703AB0093224659
:100C8800104B04A94046AFF30080B0F1FF3F814606
:100C9800D6D1A3895B063FF536AF09981DB0BDE8EC
:100CA800F08F03AB00932246064B04A9404600F0A0
:100CB80081F8EAE78FA5000895A5000899A500081E
:100CC80000000000310A00082DE9F04791461F4650
:100CD8008A680B6906469342B8BF1346C9F80030C4
:100CE80091F843200C46DDF8208012B10133C9F891
:100CF80000302368990642BFD9F800300233C9F89A
:100D08000030256815F0060507D104F1190AE368D3
:100D1800D9F800209B1AAB4229DC94F843302268AA
:100D2800003318BF012392062ED404F1430239463A
:100D38003046C047013021D02368E56803F0060338
:100D4800042B18BF0025D9F800204FF0000908BF70
:100D5800AD1AA368226908BF25EAE5759342C4BFA6
:100D68009B1AED181A344D451AD1002008E00123CA
:100D7800524639463046C047013003D14FF0FF3064
:100D8800BDE8F0870135C2E73020E11881F843005B
:100D98005A1C94F845102244023382F84310C4E7E1
:100DA8000123224639463046C0470130E6D009F1D2
:100DB8000109D8E72DE9F04301F1430C0C46097EFF
:100DC80085B06E291746064698460C9A00F0B380FF
:100DD80022D8632936D00AD8002900F0B9805829CA
:100DE80000F0838004F1420584F8421032E064295F
:100DF80001D06929F6D120681368050603F10401BA
:100E08002AD51B681160002B03DA2D225B4284F877
:100E180043206F480A2239E0732900F09D8008D8E2
:100E28006F2920D07029DDD1236843F02003236087
:100E380003E0752917D07829D4D17823654884F838
:100E4800453055E0136804F14205191D1B6811600F
:100E580084F8423001238CE01B6810F0400F1160C9
:100E680018BF1BB2CFE713682568181D1060280645
:100E780001D51B6802E06806FBD51B886F2914BFE3
:100E88000A2208225248002184F843106568002D80
:100E9800A560C0F29580216821F004012160002B33
:100EA8003DD1002D40F08E806546082A0BD123687D
:100EB800DB0708D5236962689A42DEBF302305F84C
:100EC800013C05F1FF35ACEB05032361CDF800804B
:100ED8003B4603AA21463046FFF7F6FE01304DD1C6
:100EE8004FF0FF3005B0BDE8F083394884F845106D
:100EF800136821681D1D1B6815600A060BD5CA07F3
:100F080044BF41F0200121601BB9226822F0200271
:100F180022601022B7E74D0648BF9BB2EFE765464F
:100F2800B3FBF2F102FB1133C35C05F8013D0B463C
:100F38000029F5D1B9E713682568181D61691060A3
:100F480028061B6801D5196002E06A06FBD51980DE
:100F5800002365462361B9E71368191D11601D68F0
:100F680062680021284600F037F808B1401B60602D
:100F780063682361002384F84330A7E723692A467E
:100F880039463046C0470130AAD023689B0713D49E
:100F9800E068039B9842B8BF1846A3E701234A4676
:100FA80039463046C04701309AD00135E368039A84
:100FB8009B1AAB42F2DCEBE7002504F11909F5E7CF
:100FC800002BACD1037804F1420584F842306CE779
:100FD800A0A50008B1A5000810B5C9B20244904206
:100FE800034601D1002303E01C7801308C42F6D17E
:100FF800184610BD10B5431E0A44914200D110BDD9
:1010080011F8014B03F8014FF7E7884210B501EBDF
:10101800020307D8421E99420AD011F8014B02F880
:10102800014FF8E78342F5D98118D21AD34200D18B
:1010380010BD13F8014D01F8014DF7E738B5054625
:10104800002943D051F8043C0C1F002BB8BFE4180A
:1010580000F0D0F81E4A1368104633B96360146074
:101068002846BDE8384000F0C6B8A3420BD921682D
:101078006218934201BF1A685B6852182260636065
:101088000460EDE713465A680AB1A242FAD9196812
:101098005818A0420BD120680144581882421960A0
:1010A800DED110685268014419605A60D8E702D945
:1010B8000C232B60D4E7206821188A4201BF1168ED
:1010C80052680918216062605C60C9E738BD00BFDA
:1010D8001C01002070B5CD1C25F0030508350C2D2A
:1010E80038BF0C25002D064601DBA94203D90C2385
:1010F8003360002070BD00F07DF8214A1468214655
:1011080091B9204C23681BB9304600F063F8206081
:101118002946304600F05EF8431C24D10C233046A3
:10112800336000F068F8E4E70B685B1B18D40B2BFE
:101138000FD90B60CC18CD50304600F05CF804F1A4
:101148000B00231D20F00700C31AD3D05A42E250E7
:10115800D0E74B688C4216BF636013600C46EBE720
:101168000C464968CCE7C41C24F00304A04205D00F
:10117800211A304600F02EF80130CFD02560DBE789
:101188001C01002020010020F8B5074614460E4631
:1011980021B9BDE8F8401146FFF79CBF22B9FFF717
:1011A8004DFF25462846F8BD00F026F8A0420FD28C
:1011B80021463846FFF78EFF05460028F2D0314613
:1011C8002246FFF717FF31463846FFF737FFE9E7B2
:1011D8003546E7E738B50023054C05460846236041
:1011E800FFF7C8F8431C02D1236803B12B6038BD50
:1011F800240100207047704751F8043C181F002B49
:10120800BCBF0B58C0187047537461636B2066727B
:10121800616D653A0A000000205230203D202025EB
:101228003038580A00000000205231203D20202587
:101238003038580A00000000205232203D20202576
:101248003038580A00000000205233203D20202565
:101258003038580A0000000020523132203D202545
:101268003038580A00000000204C52203D2020252C
:101278003038580A00000000205043203D20202527
:101288003038580A0000000020505352203D2025D5
:101298003038580A000000004653522F4641523A4F
:1012A8000A0000002043465352203D2020253038B4
:1012B800580A00002048465352203D202025303847
:1012C800580A00002044465352203D20202530383B
:1012D800580A00002041465352203D20202530382E
:1012E800580A0000204D4D464152203D20253038F7
:1012F800580A00002042464152203D20202530381F
:10130800580A00004D6973630A000000204C522FF0
:101318004558435F52455455524E3D202530385864
:101328000A0000005B486172644661756C745D0A6E
:10133800000000005B4275734661756C745D0A00BD
:101348005B55736167654661756C745D0A000000E2
:101358008080807F7F808081808080808080818184
:10136800818080808181818080808080818180806F
:101378008080808181818080808080808080808062
:10138800808181818181818080808080808080804F
:101398008080807F7F8080807F7F7F7E7F81838544
:1013A8008583817E7F7E7D7F7F8283838483828124
:1013B8007D7D7E7D7F7F7F7E7D7F84878787827F1F
:1013C8007C7B7D7C8180828381837E7E7C7F808024
:1013D80083807F7C7E7D7B8083898887837D7B7902
:1013E8007A7C82848383807D7B79828A8888807BEB
:1013F8007A7D83808081868888887E7975767A80F0
:1014080086867E797071878F8B897E7774818983D0
:10141800868180818888817B73767E8588817970D2
:101428006B8692928D7E756C788B8785847E838897
:101438008B877B727578848C81796E6F888E928D9C
:101448007C726A7A8A868B847B82858A82777575B4
:101458007D868479696B8B9796917B6D66778D878E
:1014680086868080848C8476797C7C7E807867729E
:101478009399948D78686C7D8B8587847D828C8C1C
:101488008074777B7F857F71687E95988F8270697D
:101498007388887F84837E898D7B6F75818685823A
:1014A800726179959792846D6572868C8689817D43
:1014B8007F8882767581847F807C6C71929D918013
:1014C80071686C7F8E888A89807B878978757F842C
:1014D8007E7F7B716F8C9B9386746D6D7B87878510
:1014E80087807B878B7C747D85837A7D706A8A9BF5
:1014F8009483776C717C838587857E7F83857773FA
:101508007F85807B7D716C8B9A9285746A6D7F8AEA
:10151800828187867E7D7F797279858982777975E0
:101528006E869B92867B6E6E7A888B8080898179A5
:101538007E807674818A817A776868829D9E8876B3
:1015480066687C8E8A808287878B88796E768A85A2
:1015580082746B657B9A9E8F796D6876898D868695
:1015680084837B8582747A888F7C706E6876919D7F
:101578008F807875747E827C848F8E81807B76776D
:10158800898A81817D6C64788A8C8C8978777F8759
:101598007D77777A8B9A967E6C6C70829594887C2E
:1015A8007670737E827E83878788847B73727D875B
:1015B800929280716D70818F949080756A6F737A42
:1015C800888E8E877D767479858C8D8B8780746BF9
:1015D80079879097907D6C6C72737F898B89817AFB
:1015E80075787D8283868C8C8883796F707D878CF3
:1015F8008D847F7D7A7778777B81878A8A837573F4
:101608007781898C888281837D76767A81858784C3
:101618007D7A7A797A7C7E838689867F7D7C8288CA
:101628008A85807E8083807B77797E81827E7A79C5
:101638007A7F848686828080828486847F7D7E808D
:101648008283817D7B7A797B7F8080807F7E7F82A9
:10165800868786818082828281817F7F7F7F7D7D70
:101668007F8082807E7D7E80807F7D7E8384838074
:101678007E7E7F818181818281807E7E818282815E
:10168800807F807F7D7E7F7F818382828382807F4F
:101698007F7E7E7E7E7E7E7F808080828281828148
:1016A800818182818080807F7E7F7F7F807F7F7F36
:1016B8007F7E7F808080807F80807F808080808127
:1016C80081807E7E808081817F7E7E7F7F7E7D7F20
:1016D80081817F7D7D7F8283817F7F818281808000
:1016E800808181807E7D7F808181807F7F808180F5
:1016F8007E7F818384817E808282827F7D808282D8
:101708007F7C7C7F80817F7D7E8182817F7D7F81E0
:1017180082817E7D7F81817F7D7D7F80807E7C7DD3
:101728008081817F7E7E808281807F7F8182807EB2
:101738007D7F81817F7C7C7F82817E7C7E818380AE
:101748007C7C7F8282807E7E8081807E7C7E81829E
:10175800807E7D7E8182807D7C7F82827F7D7D818F
:1017680083817F7D7F8182817F7E7F8182817F7E71
:10177800808382807F7E8183827F7D7E8284827E59
:101788007C7F83837F7C7C7F82827F7D7E8080805C
:101798007D7D7F8182807D7C7E8182807D7C7E8153
:1017A800827F7C7C7F82817E7C7D8082817E7D7E43
:1017B8008181807D7C7E8081807D7C7E81827F7C32
:1017C8007C7F82827F7C7D8082817E7C7E8182801C
:1017D8007E7D7F8182807E7D7F8283817F7D7F8207
:1017E80083817E7D7F8284817E7D7F8283807D7DF3
:1017F8008183827F7D7F8284827F7E7F8283827FD6
:101808007D7F8284827F7D7F8384817E7C7F8383CA
:10181800817E7D7F8283817E7E808282817F7E80C1
:101828008282817F7F80828282807F8082828180A3
:101838007F80828382808080818281808080808195
:10184800818180808081818080808080818080808B
:101858007F7F80808080807F7F8080807F7F7F8087
:10186800807F7E7E7F80807F7E7D7E7F807F7E7E84
:101878007E7F7F7E7E7E7E7F7E7F7F7F7F7E7F7F77
:101888007F7F7F7E7E7E7F7F807F7E7E7E7F7E7E67
:101898007E7D7E7F7F80807F7E7E7F818382807E4B
:1018A8007D7F81838382828282807E7C7D81858325
:1018B800807E7E7C7D7D7B7B848F8B847D77787D2D
:1018C800878582838483807E77777F858987827DF9
:1018D8007C7F7E7C7E8182827F78717C8F8F877F00
:1018E80075757D87847E7F818383817876808687FE
:1018F800847D787C80807E7E80817D78727F908DEB
:10190800887C75757E898482828281817E787C84D8
:101918008988817E7C7C7D7D7D7D81817D78838FBA
:101928008A897E77798089858484807D7D7D7A7EA9
:1019380085858287847C7A76757881837C7F8C8D97
:10194800827E777278858C8884817A7C7D7A7A80A9
:1019580085828E8D7D756D72757F8785838A8D7C76
:101968007775717D89898384837A7A79787A818396
:10197800899888786C6C72798B89888985817C765E
:10198800787E848A898A807A7C7D7B7C817B8DA520
:101998008A78696470809288858684847C75757D70
:1019A800888E8E857C797D7D787D747DA19B8671FE
:1019B8006168738C8F8382818780787274828C8D42
:1019C800877F7A7B7D7C7972759B9B87796069704C
:1019D800879183857F838278787379888B8B857CE0
:1019E80079797D7E7373969B8C7D60667385938809
:1019F800867E7F827976767F8C8E8B81797A7F7EE0
:101A08007C757298A08A7B6063728B978785817FCB
:101A18007E7A78747B8C908C8278777A7D7D7A77E1
:101A2800949D897D62627288978B857E7D7D7877AB
:101A3800767E888C887E797A7F7F7A7A728FA08A80
:101A48007C62617185968C857E7D7F7975777D87CF
:101A58008D8A81777A7F807E7C7285A1907F6A5F8C
:101A68006E7D948F84837D7E7B777880868987845A
:101A78007E7B7E7E7D7E7B77909A83756665758397
:101A88008F8C86847B7775767C83888685847F8136
:101A98007F79778085848D9080736E6F76808C9047
:101AA8008C837A6F76807D8486868584837D7F7C2F
:101AB8007A7D828C8A858477737572787E8C918B17
:101AC8008472707C818088857D8185857F7F82791D
:101AD80077838C887A807A777A71777F8F918785F8
:101AE8007C717A81808484817D83828083878178F8
:101AF8007D818A817B80737A7D76757D8F8E8D8CD2
:101B08007468798282898A7F7B80807C828B8374E7
:101B18007C848782797E777B8279797F8A8D8687B4
:101B2800796E7A7D7D8A8B847E787B7E8388837CC0
:101B3800797A8288807777797D827D7578859190AA
:101B480086796E767E82888885807C7D7F80838496
:101B58007F7B797B7F7F7D7C7D7F827F78787F88A4
:101B68008E887C7673797F848B8B857E79797C806F
:101B78008586827C7B7C7D807E7D7D7F84827B7771
:101B88007A838B8B847E7D7D7D7D7F84898A857C2D
:101B9800777B8183807C7B7C8081807E7D7C7D7E61
:101BA80080807F7E7D8084858482807F808283851B
:101BB800858382807F7F7D7F7F81817D7B7C7E8026
:101BC80081817F7F81817F7D7E8082838382818105
:101BD8008080807F8082817F7E7E7F81807E7C7D09
:101BE8007F8283817F7E7E818281818181818181E3
:101BF8007F7E8082817F7E7F7F80807E7E80807FE7
:101C0800808080807F7E7F818282817F7F7F7F7FCF
:101C18007F8080807F7F8081807F7F7F7F7F7E7FC6
:101C28008080807F808180807F7F808181807F7FAE
:101C38008080807F7F7F8081807F7F7F7F808080A2
:101C48007F7F807F80807F8080807F7F7F7F808094
:101C58007F7F808080807F7F7F7F7F7F7F7F7F7F88
:101C68007F7F7F7F807F7F807F7F80808080808074
:101C7800808080807F7F80808080807F7F7F7F7F63
:101C88007F7F7F7F7F7F808080807F7F7F80808055
:101C9800807F7F8080808080808080807F7F808040
:101CA800808080808080808080808080808080802C
:101CB8008080808080807F7F7F7F7F7F7F7F7F7F26
:101CC8007F7F7F7F7F7F7F7F7F7F7F808080807F18
:101CD8007F7F80807F7F7F7F80807F7F807F808005
:101CE80080808080808080807F80808080807F80EE
:101CF8008080807F7F808080807F7F7F807F7F80E3
:101D08007F80807F7F7F7F7F807F7F7F7F80807FD6
:101D18007F808080808080808080808080808080BC
:101D2800808080807F808080807F7F7F80807F7FB1
:101D38007F7F8080807F7F7F7F807F7F7F7F7F80A6
:101D4800807F7F7F80808080807F80807F7F7F7F93
:101D58007F80807F7F7F7F7F7F7F7F7F7F7F7F7F89
:101D68007F7F7F7F7F7F7F80807F80808080808073
:101D7800808080808080808080808080807F807F5D
:101D88008080807F7F808080807F7F7F7F80807F52
:101D98007F7F7F8080807F7E7F7F8080807F7F7F46
:101DA8007F808080807F7F80807F7F7F7F80808032
:101DB800808080807F7F808080807F7F7F7F808120
:101DC80080808080807F807F7F807F808080807F10
:101DD8007F7F7F7F80807F7F7F7E7E7E8080808008
:101DE8007F7F7F7F7F7F808080807F7F7F7F7F7FF7
:101DF8007F7F7F7F7F7F7E7E808080807F7E7E7FEB
:101E08007F808080807F7F8080807F7F7F7F7F7FD3
:101E1800807F7F7F808080807F7F7F7F8080807FC2
:101E28007F7F808080807F7E7D7E7F7F7F7F7F7FBA
:101E380080807F7F7E7F7F80807F7E7E7F818180A4
:101E48007F7E7E7F7F807F8080808181807F7F8092
:101E58007F80807F7E7E81818180807F7E7E7F7F84
:101E68007F7F80808182818080818080807F7F8069
:101E78008081807F7F7E7E7E7F807F80807E7F8066
:101E88007F7F8081807F7F7E7E828381807F7E7D51
:101E98007F818181807F808081807F7F7E7E7F7F40
:101EA8007E7D808484827F7C7C7F82838280808028
:101EB80080817F7F808080807F7E8084827F7D7D1F
:101EC8007E7F807E7E8082827F7E7E7F8181807E13
:101ED8007E8081807F7E7F81817D78787F88857F05
:101EE80079777D8384817D7F8181817D7B7F8586F4
:101EF800837F7D7D7F80818081817F7D7E7D7A79F2
:101F0800828D877D7B767A8387837E81807D7E7ACA
:101F18007A80868682807E80817F807E7F828181B2
:101F28007F7979797A8B8F817B75767D82858180BF
:101F380083807D7B7B7E828988837E7C7D81858290
:101F48007E7F7F7E7F7C797680928D7F78737882A2
:101F580087847C7F807F817B79808685837E797981
:101F6800848A817E7E7A7F82807A77858C867F7765
:101F7800757F8686807A7B7E81817D7D7F83838164
:101F88007F75778E90817D76758289857A7C83844A
:101F9800837D76798287837D7B7B8084817D7C7F4E
:101FA80083848073728E97847C726D7D898A7E7A31
:101FB800817E8180777B8287857D78778087847E24
:101FC8007A8186838072749296837B6F6C808C8A08
:101FD8007F7D817E817F767B8388857E7979818606
:101FE800827C7B8084827B728298887D7B6C7689F8
:101FF8008A857C7F7F7C817A78818384817B7879EC
:102008008085817E7F80817F767994927E80746FCF
:102018008189878383827C807F797E8283837F7BAB
:10202800797D8483807E7F828177718C987F7E7AA8
:102038006A798686827F827B7D82787B82848580AE
:102048007B797D8585818180828180737C9B8C7A78
:102058007E6E73868A867E7F7E7B837D788184848C
:102068007F79777C8487827F7C7E827F797590995F
:102078007E7C766C7E8A89827E847D7C837B7D896A
:1020880088817B777A8188857F7F7E7E8281747B59
:10209800998E7A7C6F71858B887D7E847E7C7B7639
:1020A800808B867E77787D8288827B7F82817F7C29
:1020B800798999847678727E8B8A807684887C7E0A
:1020C8007875818B877C75797F8587827D7E838013
:1020D8007B787D8F9381757175828E897872848EF5
:1020E8007E7977778A8F8378727A8486857F7C81F8
:1020F800837E7878858E8B8173737C8289877C71E7
:1021080084968076767382948F7B73787B818A86B7
:1021180082858178757886908F8A797377768387B8
:10212800887E728E91747773748C958A72737978BD
:1021380086858488887C6F747A8A978D81776F7793
:10214800828283867C7287917774777588948A7780
:1021580072797C82898482878274727B839090836F
:102168007976797B7D8083827B79888C7C7573789E
:10217800848F8A7C78797A82868686848077777E4F
:10218800828A8B837E7C7A7B7D7F7F807F7D818541
:102198007F77777B838885817D7A7A7D7F8489873D
:1021A800827C7A7D808181828483817A787A7E7F3D
:1021B80081817C7B7E82827F7C7E8283817F7F811E
:1021C8007F7F80808382817E7D7C7D808383817E0A
:1021D8007C7E7F80807D7B7E7F8283807E7D7F8109
:1021E80082817E7F7F7F8080818282807F7F7F80E7
:1021F8007F807F7F7D7D7F8181807E7E7F80807FE5
:102208007F808181808080807F808182807F7E7FC7
:10221800807E7E7C7D7E7E7F7E7E7E7F7D7D7E80D5
:10222800807F8080808080808181807F7F808080A7
:102238007F7F7F80808180807F7F8181817F7F7F9A
:102248008080807F7F7F7E7F80807F7F7F807F7F91
:102258007F7F7F7F7F7F7F7F7F7F7F7F7F7F7F8085
:102268007F7F7F7F7F7F8080807F808080807F806E
:1022780080808080808080808080807F807F808058
:102288007F807F7F808080807F8081808180808048
:10229800808080807F7F7F808080807F7F7F7F803D
:1022A800807F808080808180808080808180818123
:1022B800808080818181817F807F8080807F7F7F17
:1022C8007F80807F7F7F7F7F80807F7F7E7F7F8012
:1022D80080807F7F7F7F80807F7F7F8080808080FD
:1022E800807F7F80808180808080808080808081E6
:1022F8008181807F7F808080807F7F7F8080807FDA
:102308007E7F7F7F7F7F807F7F7F7E7F80807F7FD4
:102318007F80807F7F7F7F80807F7F7F80808080BD
:102328007E7E7F80808080807F7F7E7F7F7F7F7FB3
:102338007F7F7F7E7F7F7F7F7F7F8081807E7E7EA5
:102348007E7F808080807F7F7F7F7F7F808080818D
:10235800807F7F8080808080808080807F7E7E7E7E
:102368007F8080807F7E7E7E7E7E7E7F7F807F7F77
:102378007E7E807F7E7E808181807E7D7E7F808163
:102388008080807F7F7E7F7F7F808080807F7F7F4F
:102398007F7E7E808281807E7D7E7F81818181813A
:1023A800807F7F7F7F808080807F7F7F7E7F7E7E33
:1023B8007F8281807E7C7D7F8081808080807F7F1E
:1023C8007F7E7F8081807F807F7F807F7E8082820A
:1023D800807F7D7E7F81828080807F7F7F7E7F80FF
:1023E8008080807F7E7E7E7F7F7E7F8281807F7CF3
:1023F8007D7F818281807F7F7F7E7E7E7F818180DD
:102408007F7E7E7F80807F7F8281807F7D7E7F81CF
:10241800828180808080807F7E808182817F7F7EB4
:102428007F8080807F8181807F7D7E7F80818080AA
:102438007F7E7F7E7E7E7E808281807F7E7E8081A1
:102448008080818382817F7E80808282808081817A
:1024580081807F7E7F8181817F7E7E7F80807F7F7C
:1024680080807F7F7E7E7E7F807F818383807E7E6B
:102478007D7E80838280807F7E7E7F7F7E7F81805D
:1024880081807E7E7E7F7F7F808081807E7C7C7C59
:102498007C868D827D7C797D828381808182807E2D
:1024A8007D7C7F818183817E7F7E7E7E7F807F7F32
:1024B80081807F7D7B7B808A867C7D7D7C83837E1B
:1024C800808081817F7E7E7F81807F808181828301
:1024D800807E7C7D84867F7C7E7E7F827E7A7D8402
:1024E800877F7B7E7E8185817D7F7F7F817E7E80E9
:1024F8008182827F7E7E7E81818082817E7F7A78E2
:10250800838B847A7A7E7E82837979848483827CC1
:102518007B8184817B7E838080827C7B83837F7FB9
:102528007D7D808284827E7E797483938574797CB4
:102538007B86887877828180847F797F85817C7D9E
:10254800828281827C798185817F7F7C7C8286837F
:102558007E7D7C777F908D78737E7D7E8883777C87
:10256800848080837F7D82827D7C81827F7F7D7A6B
:102578007E85837F7F7F7E8083827D7E7F787B8C54
:102588008F7B737E7F7C8786787A84807D83827D4B
:1025980081847D7A82837E81827B7B83837F7E7D3B
:1025A8007D7F83847F7A7D7C7A8692826F78837D33
:1025B800818B807680867F7F84807C81837D7D830C
:1025C800827D7E7F7C7D82837F7D7D7E8084817C11
:1025D8007C7C797F8E89767582807D8683797E86FC
:1025E8007F7E84817C80827D7E82817F7F7D7C80EE
:1025F80084817E80807F7F82817E7F7F797B8A8DC8
:102608007B727D817E8585787885847D81827C7EDC
:10261800847E7A81847E7F817D7E83827E81817DB6
:102628007F82807E7E807D787D8B8A79747B7E81B7
:102638008982757A85837E80807E81857F7A7F8393
:102648007F7F837E7B82837D80827D7D83827F7E88
:102658007F7E7B7D898B7D757B7F8085867B768081
:10266800877F7B81817D8382797C84807B81817C6B
:102678007F817C7F857F7C8283807F7F7E7E7D815A
:102688008B8779777D80838683787985857B7E8340
:102698007D7F877D7682857B7D847E7D837F7C843C
:1026A800837C7F84817F7E7E7E7C7E878A80777A2A
:1026B8007E8185857E777E86817C81817E83857B10
:1026C8007B85827A7F837F80827C7D84807C838502
:1026D8007F7D7F7E7D7E8288857A777D80828781F7
:1026E800777B85847D7D808082837D7B82847E7DEF
:1026F800817E7D83837E7F817D7F85847D7B7F80D6
:102708007C7E86877F777A7E7F85867D787E817FCF
:1027180080807D7F83817D7D81837F7B7F828080B8
:10272800827F7E7E7D808483807D7C7E807E8086A5
:10273800827A7A7E7B8088807881827A7F847B7CAB
:1027480086837B7D807E7F817E7F8582797C827E89
:102758007F8580787F85827E7D7B7B8186847F7B79
:10276800797C8183807F80807E7F7E7D8085827E6C
:102778007D7D7F83817A7B8386837F7A787F85835B
:102788007F7E7D7D83847D7B7E82827F7F837F7B4E
:1027980080807B80857E7F837D7B81817F83807C39
:1027A8007F827F7E7F7F7E82837E7D80807F808028
:1027B8007D7E82817F7F7F7F808282807E7E7E7F1A
:1027C80082827E7E81807F807F7F81817F7F808003
:1027D80080807F7E7F81817F7F7E7E8081817F7FF9
:1027E8007F7F7F80807F7F8080807F7F80808181E6
:1027F8007F7F80807F80808080807F7F7F808181D5
:10280800817F7F8080807F80807F7F7F80807F7EC8
:102818007F7F7F7F7F7E80807F80807F7F80807FBB
:102828007F808081807E7E80818081807E7E807FA7
:102838007F808080818080827F7E7F7E7E817F7E98
:1028480082827E7F807E8082807E7F808080807E84
:102858007E808180807F7F7F81808080807F7F8075
:10286800807F7F7F7F7F7F7F80807F7F7F7F7F806C
:10287800807F8081807F7F7F7F80807F7E7F808058
:1028880081807F7F7F7F80807F7F7F7F80807F7E4A
:102898007F7E7F81807E7E7F7F8081807F7F7F7E3D
:1028A8007E7F7F7F807F80807F80807F7F80808029
:1028B8008080808080807F7F7F80807F7E80808115
:1028C800817F7E7F7F80807F7F7E7E8082817F7E0A
:1028D8007E7F80807F80807F80807F80807F7F81F7
:1028E800808080807F80818080807F7F7F807F80E4
:1028F8008180807F7F8080807F7F7F7F7F80807FD7
:1029080080807F7F807F7F80808080807F7F8081C4
:1029180080807F7F80807E7F808081827F7E7F80B5
:102928007F80818181817F7E7E7F818282807E7DA2
:102938007D81838181807E80807E7E80808082818F
:10294800807F7E7E7F8182817F7E7E808181808084
:102958008182827F7E7F81828181807F8080807F6B
:10296800808181817F7E7E7F818281807E7E808161
:102978008080808081817F7F7F818080808080804F
:102988007F7E7E808182817F7D7E808181807F7E47
:102998007F81817F7E7F8081807F7E7E8080808036
:1029A800808080807F7F7E7F8080807F7F807F7F28
:1029B8007F7F7F8081807F7F8080807F8080818013
:1029C800807F7F808080817F80817F7F7F7F808103
:1029D800817F7F7E7F8181808080818080807F80F1
:1029E8008180807F7F7F7F80807F80807F7F7F80E6
:1029F8008181807E7E7F808281807F808080807FD1
:102A0800808080807F7F807F808180808180807FC0
:102A18007F8082817F7F7E7F8182807F80807F7FB1
:102A28007F7F8080807F7F7F7F7F817F7F807F7FA8
:102A38007F7F7F81817F7E7E7E8081807E7F7F7F9A
:102A48007E7F7F7F81807F7F7F808080807F808086
:102A58007F7F7F7F8081807F7F7E7F82817F7F8075
:102A68008080808080818180807F808080817F7F5E
:102A78008080807F7F7F8081807E7E7E8081807F56
:102A88007F7F7F7F7F7F7F807F7F7E7E7F7F80804D
:102A98007E7F807F807F7F8081807F7F7F7F818234
:102AA8007F7F80807F7F7F7F8081807F7F7F808026
:102AB80080807F80807F7F7F7F8081817F7E7E8016
:102AC80081817F7F80807F7F7F7F8080807F7F7F05
:102AD800808080807F81807F7F7F808181807F7FF1
:102AE8007F808180807F80807F7F7F7F80807F7FE5
:102AF8007F80807F80808081807F7F7F7F808180D2
:102B08007F7F7F7F8080807F7F7F7F7F7F7F7F80C9
:102B1800807F7F7F807F7F807F8081807E7F7F80B6
:102B28008181807F7F7F7F80808080807F7F807FA2
:102B38007F7F80807F7E7F80807F80807F80807F96
:102B48007F7F7F8181817F7F7F7F80808080807F82
:102B58007F808080807F8080807F7F80807F7F7F74
:102B68008081807F7F7F7F808180807F7F7F7F8063
:102B78008080807F7F7F7F7F80808080807F7F8054
:102B880080807F808080807F7F808080807F7F8042
:102B9800807F7F7F7F80807F7F7F7F7F7F7F7F7F3A
:102BA8008080807F7F7F8080808080808080807F21
:102BB8007F7F8080807F7F7F7F7F7F7F7F7F7F7F1A
:102BC8007F7F7F7F7F7F7F7F7F7F80808080808007
:102BD80080808080808080808080808080808080ED
:102BE80080808080808080808080808080808080DD
:102BF80080808080808080808080808080807F7FCF
:102C08008080807F7F7F807F7F7F7F7F7F7F7F7FC8
:102C18007F7F7F7F7F7F7F7F7F7F7F7F7F7F7F7FBC
:102C28007F7F7F7F7F7F7F7F7F7F7F7F7F7F7F7FAC
:102C38007F7F7F7F7F7F7F7F7F7F7F7F7F7F7F7F9C
:102C48007F7F7F7F7F7F7F7F7F7F7F7F7F7F7F7F8C
:102C58007F7F7F7F7F7F7F7F7F7F7F80807F808078
:102C68007F7F7F807F7F807F808080808080808062
:102C780080807F7F7F7F7F7F7F7F7F808080807F56
:102C8800808080808080808080808080808080803C
:102C980080808080807F808080808080808080802D
:102CA800808080808080807F7F7F7F807F7F7F7F24
:102CB8007F7F80808080808080808080808080800E
:102CC8008080808080807F7F80807F7F7F7F807F03
:102CD8007F7F7F7F7F7F7F7F7F7F7F7F7F7F7F7FFC
:102CE8007F7F7F7F808080808080808080808080E0
:102CF80080808080808080808080808080808080CC
:102D080080808080808080808080808080808080BB
:102D180080808080808080808080808080808080AB
:102D28008080808080808080808080807F8080809C
:102D380080807F7F7F80807F80807F7F807F7F8093
:102D48008080808080808080807F7F7F808080807E
:102D58007F7F7F7F8080808080807F7F7F7F7F7F75
:102D68007F7F7F7F7F7F7F7F7F7F8080807F7F7F68
:102D78007F7F7F7F7F7F7F7F7F7F7F7F7F7F807F5A
:102D88007F7F7F7F807F7F7F808080807F7F7F8045
:102D9800807F7F7F7F7F7F7F7F7F7F807F7F7F8038
:102DA8007F807F7F7F808080807F7F7F8080808022
:102DB800807F80807F7F7F8080808080808080800F
:102DC80080808081818080808080818181818081F4
:102DD80080808080818181818080808080808081E6
:102DE80081818080808080818181808080808080D6
:102DF800808080818080808080807F8080808080CB
:102E08007F7F7F7F808080808080808080808080BE
:102E1800808080808080807F7F808080807F7F7FAF
:102E28007F80807F807F80807F7F7F7F80807F7FA3
:102E38007F7F7F7F7F7F7F8080807F7F7F7F7F7F97
:102E48007F7F7F7F7F7F7F7F7F7F7F807F7F7F7F89
:102E5800807F7F7F7F8080807F7F7F7F8080808072
:102E680080807F7F7F7F808080807F7F80807F7F62
:102E78007F7F7F80807F7F7F7F7F7F7F7F7F7F7F58
:102E88007F7F7F7F7F7F7F7F7F7F7F7F7F7F7F7F4A
:102E98007F80807F7F7F7F7F7F80807F80807F7F34
:102EA8007F7F7F80807F7F7F7F808080807F808022
:102EB8008080808080807F8080808080808080800B
:102EC800807F7F808080807F7F7F8080807F7F8001
:102ED8007F80807F7F7F7F7F80807F808080807FF2
:102EE8007F8080808080807F7F80807F7F7F7F7FE2
:102EF8007F80807F7F7F7F80808080807F7F8080D1
:102F08007F7F80808080807F8080808080808080BC
:102F180080808080807F807F7F7F8080807F7F7FB0
:102F28007F8080807F80807F7F807F7F7F7F7F7FA3
:102F38007F7F7F7F7F7F7F7F7F7F7F8080807F7F96
:102F48007F80807F8080807F7F7F7F7F80807F7F82
:102F58007F7F8080807F808080808080808080806C
:102F68008080808080808080808080808080808059
:102F780080807F80808080807F7F80807F80807F4E
:102F880080807F7F80807F8080808080808080803C
:102F98008080808080808080808080808080808029
:102FA80080807F7F8080808080807F80808080801C
:102FB8008080808080808080808080808080808009
:102FC800807F7F8080807F7F7F7F80807F7F7F7F03
:102FD8007F7F7F7F7F7F7F7F7F7F7F7F7F7F7F7FF9
:102FE8007F7F7F7F7F808080808080807F808080DF
:102FF8008080807F8080807F7F807F7F807F7F7FD1
:103008007F7F7F7F7F7F807F7F7F7F7F7F7F7F7FC7
:103018007F7F7F7F807F7F7F80807F7F7F7F7F7FB5
:103028007F7F7F7F7F7F7F7F7F7F7F7F7F7F7F7FA8
:103038007F7F7F7F7F7F80807F808080807F808090
:10304800808080808080808080808080807F808079
:103058008080808080808080808080808080808068
:103068008080808080808080807F8080807F80805A
:103078008080807F7F8080807F7F807F7F80807F4F
:103088007F807F7F8080808080807F7F80807F7F3F
:103098007F807F7F7F7F7F7F7F7F7F807F7F7F7F36
:1030A8007F80807F7F7F7F7F80807F7F80807F8021
:1030B80080807F807F7F7F8080808080808080800C
:1030C8008080808080808080808080808080807FF9
:1030D8007F808080808080808080808080808080E9
:1030E80080808080808080808080808080808080D8
:1030F80080808080808080808080807F80808080C9
:1031080080807F80808080808080808080808080B8
:1031180080808080808080808080808080808080A7
:103128007F80808080808080808080808080808098
:103138008080808080808080808080808080808087
:103148008080808080808080808080808080808077
:103158008080808080808080808080807F80808068
:1031680080807F7F7F7F7F7F7F7F7F7F7F7F7F7F65
:103178007F7F7F7F7F7F7F7F7F7F7F7F807F7F8055
:10318800807F7F807F7F7F7F7F7F807F7F7F7F7F44
:103198007F7F7F7F7F7F7F7F7F7F7F7F7F7F7F7F37
:1031A8007F7F7F7F7F7F7F7F7F7F7F7F7F7F7F7F27
:1031B8007F7F7F7F7F7F7F7F7F7F7F7F7F7F7F7F17
:1031C8007F7F8080807F8080807F7F7F7F7F7F7F01
:1031D8007F7F7F7F7F7F7F7F7F7F7F7F7F7F807FF6
:1031E8007F7F7F7F7F7F7F7F7F7F7F7F7F7F7F7FE7
:1031F800807F7F7F7F7F7F7F7F7F7F7F7F7F7F7FD6
:103208007F7F7F7F7F7F7F7F7F7F7F7F7F7F7F7FC6
:103218007F7F7F7F7F7F7F7F7F7F7F7F7F7F7F7FB6
:103228007F80807F80808080807F7F7F8080807F9C
:103238007F807F807F7F7F7F7F7F7F7F7F7F807F93
:103248007F7F7F7F7F7F7F7F807F7F7F7F7F7F7F85
:103258007F7F7F7F7F7F7F7F7F7F7F7F7F7F7F7F76
:103268007F80807F7F80807F7F807F7F7F7F7F7F61
:103278007F7F7F7F7F7F7F7F7F807F807F7F7F8053
:103288008080808080808080808080808080808036
:10329800808080808080807F807F7F807F7F7F7F2D
:1032A8007F7F7F7F7F7F7F7F7F7F7F7F7F7F7F7F26
:1032B8007F7F7F7F7F7F7F8080808080808080800D
:1032C8008080808080807F7F7F7F7F7F7F7F7F7F00
:1032D8007F7F7F7F7F7F80808080808080808080EC
:1032E80080808080808080808080808080808080D6
:1032F80080808080808080808080808080808080C6
:1033080080808080808080808080808080808080B5
:1033180080808080808080808080808080808080A5
:103328008080808080808080808080808080808095
:103338008080808080808080808080808080808085
:103348008080808080808080808080808080808075
:1033580080807F7F7F7F7F7F7F7F7F7F808080806F
:103368008080808080808080808080808080808055
:103378008080808080808080808080808080808045
:103388008080808080808080808080808080808035
:103398008080808080808080808080808080808025
:1033A8008080808080807F8080807F7F7F7F7F7F1C
:1033B8007F7F8080807F7F7F80808080808080800A
:1033C80080808080808080808080808080808080F5
:1033D80080808080808081807F7F807F7E7E7F7FED
:1033E8007F7F7F7F807F80817F808081807F8082D8
:1033F800807F8080808080807F7F80807F807F7ECC
:103408007E8082817F80807E7F807F7F81817F7EBA
:103418007F8081818182817F807F7F7E7B7E8180AA
:103428007F80808283807F7F8181807F7D7D808295
:103438008280808080807D7C7B7C7F817F7E7D7F99
:10344800807E7E7F81817F7D7E808081817F807F7D
:103458007F8282817C7D7F7F7E7B7C7E8081808174
:1034680081828382817F807E7E7E7B7D808080805A
:103478007F7F7F8182817F7D7B7E7F8080807E7A57
:103488007D808284817F7E7F808080808181808131
:10349800828180807D7D7B7B8084827F807F7D7F31
:1034A800838483807D7F817C7A7C7D81827E7D8020
:1034B8008182867F7C7C7D7D7E817E7D7A7F868908
:1034C800847D7F81807A7880837D7A7D85858282FC
:1034D8007D7A7A7B7F818180808082827C7B8286F4
:1034E80083827F7A777B7F7C7E8389847D828887CD
:1034F8007C7F858377737C7D7A7C8586847E828ACF
:10350800857C75798087837B7B7E7E8187838085B8
:10351800817E7E807F7A7B7E827E787C8389837CB5
:103528007E84847D7B7C75777E838587837C828996
:10353800847A7C8280797C848485838386837E7B7D
:10354800787D83807B797F7F7D848685847D797A89
:103558007F807D7772797E767784918E8488898C56
:10356800867A7C7D7F787379828176747A7F7F7E94
:103578008A8F867D7D7E7F8182818082807D787E34
:1035880084867D73767C85858B8C8C888B929190D4
:103598008B817F7D7370747F858178798288868836
:1035A8008D8884827D7D7D6F6E7C83838385887D15
:1035B80074737273737580858186898B8B8F8F8BFB
:1035C8007F777F82756D737C7A787E7F7F7D777E4B
:1035D8008C877D787C83848489887E7571797773FC
:1035E800757E7F7D7B79838C91908F8C88848A9679
:1035F800938A857C6E6A71777A7B838A837D808AD9
:103608008F8D8C8479726A74899387777980807EAC
:1036180079737272777D80858B8C9294888284818D
:1036280080817263666E7A8988858A8F939489828D
:103638007F7471787C76787E888A807981868584A3
:10364800837E77777E8689848083898B8785878F39
:103658008A7F7872737573777C7C7D88918F8E876B
:103668007F7C7C78727475787C8288837F837E798E
:103678007571716E7682817F85898C8F8985847D4D
:1036880078726D6E6C6F78838C91918A8A8C817850
:10369800787A7C786C67707C878B878B837A7B7B66
:1036A8007E7C7C81899092938E8987848586847FAD
:1036B800746B727C7776797E85878483838389911E
:1036C80091857C7C7E7C797C838280827A75787710
:1036D800736F696A7487959599979497978B837C8C
:1036E800726D696B70717A87878A89828386847E16
:1036F8007D7E7C787B8486817C7878787B78716E17
:103708006B7680889190908E88817E7E8281777298
:1037180070727B7B7378797A828A8C888586888CAC
:103728008A84807977787976757B7E8286807572CF
:1037380073797F807C797B808E9A9B928A85817A47
:103748007A7C7E7F7E7B7B7F7F7F7C7573787E8BA8
:103758008C86848585858E928B827A7377787B7B3D
:103768007D84868277788184848A8A88898B8A8B0B
:103778008B867D767C7F7D776E6F767F8A8A8D914A
:103788008F8A828185867F746D6E72798283817F4C
:103798007C787E85837F7C7F818181808184898A12
:1037A800857E7C7E81827E7873777B7A7F83848036
:1037B8007C7F82838381807E7975767E858B8B86FC
:1037C8008483817E7266646C7A8484817B7C808841
:1037D8008F928F888684828382817F7E84847C7B9B
:1037E8007D7E7E7A797C7C7E7D82868986807E7BE2
:1037F8007C7F837F78787B7F83888C887E7B7A80C8
:103808007F787372757C81898E85838382888986A7
:10381800807F817F79777773777E818080818586C5
:1038280083817A797D81828282828283847C7B7E95
:103838007C726D7177808B94918C8A898887837C60
:1038480076777F8487827B7874767B7C7D7B7C82AD
:103858008182868B8B8C908E86827E7B76706F6D54
:103868006D777E7F8385848486837B787B7B767582
:10387800798085888E8F8D90918C8579737273721B
:103888006E6D6D6F767D848C9093929396918B88F4
:10389800847C777776737172778083838180858A59
:1038A8008F908D8886847D7572726F6E72767D8832
:1038B80092989997948D83776A62646C757A7E7F03
:1038C8007F868D90908F8B847F7A787A7977797ECE
:1038D800818080878A888987837B7779777C7E7CDB
:1038E8007A7B7D7B797B7E7F7D7D8082888E8F89C8
:1038F800827D7E7C787879808281807D7876797BFC
:103908007F81807F808587848385817A7B7E7F7FA6
:10391800838481817E7B77787B7D808081838386A9
:103928008581807B787474787E858A8D8A84828488
:10393800817B7775787B7B7A7774787E83868784BA
:103948007F7D80848484847E7C7C7B7C808485836A
:103958008485817F7E7E7C7E7F80807F807C797A73
:103968007976767880888A8D8E8B868787817A7932
:10397800797C817F7B7776787B7E8283807F81826A
:10398800828587847F80817F7F7F807D7A7C7E7B34
:103998007678787B8387888784838281827C787530
:1039A800787D8183868986838384807C77767A8014
:1039B8008485827D7A7B828786827D7B7C7F8282FA
:1039C800838383827F7E7F81807F80807E7B7C80F3
:1039D800818383827F7C7E7E7E7D7877787C8184FC
:1039E80085898C89858484827D7A7D8083807D78B1
:1039F80076787C8182807D7D808382807E808182D2
:103A080083818082817B7A797B7873767B818889D0
:103A1800878583807D7F7D7A79787B7F848A8F8D87
:103A28008884807E7C79767A81858787817D7E7F90
:103A380084858179787D7D7D808488898885807D6D
:103A48007E8080807D7B7B7A7B7D8181817F7E7F8C
:103A58007D7E7E7D7A797B7D7F8285868888878654
:103A6800807C7B7C7E7F7F7E7D7A797C7D8285836E
:103A78007E7C8182818081848484838381817E7B32
:103A88007A7A7A7976767B8287898886838080803D
:103A98007F7C7A797A7D828889888683807C7B7925
:103AA800797A7C8185858380807D7E81807B7A7D23
:103AB8007D7D7E80858886837F7C7E8182817D7CFA
:103AC8007C7A7C7D7F817E7D7C7D7D7E7E7C797924
:103AD8007B7F80818585868784827F7E7E7E7E7ED1
:103AE8007F7D7C7C7C7D7D7F81817D7F82848480DD
:103AF8007F838485848180808080817E7D797778CA
:103B08007D8588878484807D7F83827D7A777A7FAC
:103B18008286888886817E7B7B7B7877797D8080AA
:103B2800808182838384827D7B7B7B808182848683
:103B380086827F7C7F828282807E7D7C7A7D828580
:103B4800858381807E7D7C7B79797C7E848688876D
:103B58008785817E7C7D7E7D7D7B7B7D7F807F7F71
:103B68007F80817F7D7C7D7E818383838384848342
:103B7800838382807F7D7C7B7A7A7E83868685823A
:103B88007F7D7E8183817D7B7A7D8083868684802C
:103B98007E7C7B7A79797A7C7F7F7E7E7E81848544
:103BA80083807D7D7D7D7F8183858583807F818204
:103BB8008180807F7E7C7A7B7E8082838384828002
:103BC8007F7E7C7B7D7F8183848586858482807EE1
:103BD8007C7B7D7D7C7C7D7E7E7E8082817F7D7D01
:103BE8007D7F81828284868684838281807E7C7CBC
:103BF8007D7C7B797B8183848483817F7F807F7ECA
:103C08007E7E7F8081818282817F7E7E7D7B797AC4
:103C18007C7D7E7E7E7F7F82858583807E7D7D7DA7
:103C28007E7F818485827F7F7F80807F7F7F7E7D8E
:103C38007C7C7F828383818180807F7E7C7D7E7E89
:103C48007F80828485858482817E7C7C7E7F7F7E66
:103C58007E7F80808081817F7D7C7C7E7F80828466
:103C6800868482807F7F7E7E7E7F80807E7D7D7F52
:103C780081828482807F808282818081808080812D
:103C88008282817F7E7F7E7C7C7B7C7D7F7F7F7F45
:103C98008081828382817F7D7D7C7C7D7F81838220
:103CA80081808181807E7E7F7E7E7E7E7F80818115
:103CB80080807F7F807E7C7B7C7E7E808182838407
:103CC8008381807E7E7D7D7E7F7F7F7F7F7F7F7EFD
:103CD8007F7F7F7E7D7E80818182838482808080D9
:103CE8007F7E7D7E7F7E7E7D7D7E7F808182817FDF
:103CF8007E7F80807F8082828282818182817F7FB5
:103D08007E7E7D7C7C7D7F7F7F80818182828382B5
:103D1800807D7D7E7E7F80818282807F8080807EA4
:103D28007E7E7E7D7D7E7F81828282807F7E7E7E9A
:103D38007D7D7E808081828181818282817F7E7E7D
:103D48007E7D7E8081817F7F7F7E7F7F7F7F7E7F7C
:103D58008081818283838280808081817F7E7E7E54
:103D68007D7D7D7E808080807F7E7E7F7F807F7F5F
:103D780081828281808080808080807F7E7C7C7D43
:103D88007E7F8080808181828382817F7E7E7E7F2C
:103D98007F81828281818180807F7E7E7E7E7D7E22
:103DA80080828282817F7F7F7F7F7E7E7E7F7F8011
:103DB8008081818181807F7E7E7E7E7E7F80818101
:103DC8008180807F7E7E7E7E7D7E7F8081818282F3
:103DD80081808080807F7F7E7E7E7E7E7E7F8080E9
:103DE80080807F7E7E7E7F7F8080818181818081CF
:103DF800807F7F7F7F7F7E7C7C7D7D7E7E7F8080D5
:103E080081818181807F80808081818282818080A0
:103E18007F7F7F7F7F7E7E7D7E7F7F8081818180A7
:103E28007F7F7F7F7E7E7F7F808081818181807F91
:103E38007F7F7F7E7E7F80807F7F80807F7F7E7E8A
:103E48007E7F7F8081818181828280808182818161
:103E58008080807F7E7E7E7F7F7F7F7F7E7E7E7E6E
:103E68007F7F808080818181818181807F7E7F7F4B
:103E78007E7E7E7F7F7F7F80818181808080808041
:103E88008080808081818181808080807F7E7E7E2D
:103E98007E7E7E7F8080818181808080807F7F7E22
:103EA8007E7F7F8080808080807F7F7F7F7F808112
:103EB8008181818080807F7F7F7E7E7E7F7F808101
:103EC80081808080808080808180808080807F7FEA
:103ED8007F7F7F7F808080808080808181818282D7
:103EE8008282818180807F7F7F7F7E7E7E7E7F7FD2
:103EF8007F7F8080818080808080807F80818281B8
:103F080080808080807F7F7F7F7F7F7F7F7F7F80B3
:103F180081818281818181807F7F7F818180808092
:103F28007F80807F7E7F7F7F7F8080808080807F92
:103F38007E7D7F7F7D7D7F7F7F8182808080818184
:103F4800807F808080808080808080807E807E7E70
:103F58007F7F80807F7E7F7F8081818181807F7F5E
:103F68007E7E7F7D7B7B7E81807D7F7F7E7E7F8066
:103F78007E8184817E7F8181808080828280807F33
:103F88007E80817D7E7F8080807F80827E7C7F8135
:103F98008181807F7D7F807F807E7F85827E7F7D1F
:103FA8007D7E7D8185807F807C7E82807B7D808216
:103FB8007F7D7E7D807F7E818081837E7C817F7E08
:103FC8007F7F7E80817E7D7D7F817F7D82848381EE
:103FD8007B7D7E7F8481818685807E7C7D817B79E7
:103FE800818383857F7D807E7D81818282827E7CC4
:103FF80080818683807F7F837C797D7D7F807B7CC9
:104008008284847F7A7D827C79818280817E7F7FB1
:104018007C7F81807F818280817F80817D7E848595
:10402800837D7A807F81817F82868380807C797C92
:104038007D7F848587867D787A7A80817D8080817E
:1040480084837D7D817F7F80807F75747F83858475
:1040580080868C8380807F807C77777D7F83827A5F
:104068007B7F7C7D7F838584818087827C7F808144
:104078007D7E807C7D81807F7B7881878684807E41
:104088007B767880858483817F7D7F7D7C7E828737
:10409800888987837B7A7D7C8285817E76797D7F1E
:1040A800817C828C887F7E7F82817A797F837F7D05
:1040B8007C80837F787A848A84848583807B7B79FB
:1040C8007A7F82807A7983847F7D7E8589817D7FEE
:1040D8007F807C777A8282807D7B7D7D78747A830D
:1040E8008383898987847F7E7D7C82837F777682BC
:1040F800827B7A818A89817F7F82837A73798385BB
:10410800837D787B7D797A818987858582848280A1
:104118007F7C7C7F8280777A83817D7A7E868480AB
:10412800828382817D797F86878179777776787BAC
:104138007E838384898989857E7B79797D807A7677
:104148008085807E7D82898885807D807D77788066
:1041580084837E797B7D7875798085868684878A55
:10416800857F7B797C807F797B81807D7C7E818661
:1041780086837E7D82817B7D8387837D7D7C76754A
:10418800777880858586858889827D7A797D807D26
:104198007B7D7F7E7B7E80828788857E7D7F7B7529
:1041A8007A8485807D817F7A79787983878685840A
:1041B8008687817E7A787E817D7D7F7F7E7D808205
:1041C800858686847F7E7F7B797F85857F7F807CDF
:1041D8007979767B848685888787857F7D7C7D7FD6
:1041E8007E7B7B7C7F7D7C8084868584827E7D7DD2
:1041F80078787D83868180807C7C7A777E848586CA
:10420800868585817C7E7D7B7F7F7E7E7F807E7EAE
:104218007F81838584807D7C7B797A7F8487848194
:104228007D797B79787F81828484868783807F7D8E
:104238007E827D7B7D7E7F7D7D8083858687848071
:104248007B79787B8085847F7F7D7C7C7A7C7F828C
:1042580082828587848081817E7E807D7D80807F4B
:104268007C7C7E8082858481807E7C7B7E85888440
:10427800807F7D7D7C7B7C7D7E8083878985828134
:10428800828080807C7C7E7F7F7C7C7E808485832E
:1042980082817E7B7A7C838482807F7C7C7B7B7D31
:1042A8007C7E80828587827F7F807D7C7E7D7E810B
:1042B800807F7B7C7E8084827F80807F7C7C808303
:1042C8008381807F7D7C7A7A7B7D7F8083878784EA
:1042D8008382807E7F7F7D7C7D7F7D797A7D8182F0
:1042E80082808385817D7C8282828382817F7D7AC0
:1042F8007C80807F818385868281808080807F7FAB
:104308008081827F7B797C8182817F8183817D7DB1
:1043180082848484827F7C7A7A7A7C7F7F81838599
:10432800858383807D7F7F7F7F7F7E7F7E7A787F96
:104338008584807F8082817D7C7F818183817E7D71
:104348007C7B7C7E7F7E7F8386848282817E7E7F6B
:104358007F81807F7E7D79767A81827F7E8183816D
:104368007E7F83848382807E7E7A797B7D7F7E8058
:10437800838685818080807F7F7F7F7F817F7B7937
:10438800787E85847F7F8283807B7E828383837F20
:104398007E7F7D7C7D7E7F7F7F828483807F80801F
:1043A8007F7F7E808281807C78797F85837E7F8312
:1043B80085807C7F838282817F7E7C7A7A7B7E8007
:1043C8007F81848685807F8080807F7E7E7F7F7EE0
:1043D8007B797B8185827F8082827F7C80818281DC
:1043E8007F7E7E7F7E7D7F7F7F7F80828381807FCF
:1043F8007E7F7F7E7C7D81817F7A797D8283817FCC
:104408008284827E7E808181807F7E7E7E7C7D7EAE
:104418007F7F8184858381807F7F7E7E7D7C7E8196
:10442800817F7C7C7F838581828382807D7D807F84
:104438007F7F7F7E7E7D7D7E808180818485838273
:10444800807F7F7E7D7D7C7E81817E7B7B7E82817D
:1044580081818385817E7E80808181807E7E7D7D55
:104468007E7F80818284868381807F7E7E7F7E7D41
:104478007F7F7E7D7A7C818282808184837E7E803C
:10448800818081807F7E7E7E7D7E80828181838225
:104498007F807F7D7E7F7F807E8181807E7D7F8122
:1044A8008181807E8284827F8283817F7E7E7F80FD
:1044B8007E7D7E7F7F818083848585827E7A7C7EF7
:1044C800807F81807F7C797C8082808280808180EF
:1044D8007D7F7D8182807E7C7D7D7F808381817FE1
:1044E800818483837F7B7C7C7B7F80817E7F7D7DD5
:1044F8007D8283817E808786827D7B797F828280B0
:104508007E7F7F7D7E8180848482817D7B7C7B7BB6
:104518007E81828184827D7B7D7F80807D7F808299
:10452800828181828180807D7D7F7D797F7C7B7F98
:10453800848585878987817D7A7D797B7F7E7E7A70
:104548007A817F7F84818382837E7E817F7E7C7E69
:104558007A808385817E827F7B7C808386807E8053
:104568007E7D8280787E837E7B7D7C7B7F85807F5D
:104578008386897E7C808079787D808783817F7B34
:104588007E85827D84867D79817B7B83817F808423
:1045980087837B777C827E7F7F858482817F83810E
:1045A800827E797A8181817C7779858583868689FF
:1045B800817C797D74797E82827D7F7F828086810D
:1045C8007F8182837D7B7B787E828180858D8881D7
:1045D80077787D7A7A7E85847F8081817E81807EEE
:1045E80082867F797A787B7F8280838C8B867E78BF
:1045F8007D7C747883837E807E807F8183828384C0
:10460800877E7773737C7E7A7D888F8A827B7E80B3
:10461800797881867D7C7E7F7D808383837D888891
:104628007A7676797D7E7C818E8C867F797E7F7A9C
:104638007882837E7B7B7E7F8486857F828B877B67
:1046480075777A807E7A888E85807F807D7F797E77
:104658008683807E807C7C8286817E878C7D71715A
:104668007D85827B848E8987807D7D7E7979818135
:104678007D7E807C7F81878C7F7D8B837773767E40
:10468800837C7B8A8A86827E7A8081797E82817D1C
:104698007F7D80848587847C81887F706F7A807E27
:1046A8007B868B8B877F7E7C7D7A7E817B78797B0E
:1046B8007E82848A8A7F838A877971767A7E787EF9
:1046C800898B8B837D7F817C7B7F817C78797A7CE9
:1046D80081818B898087877E7475797C7876838AD7
:1046E8008C888380817E78797F817874787B8081DB
:1046F800878981838A867A757A7C797478828889B1
:10470800858383807A7A7F83817A7A7C7F7C818CA7
:10471800878186877E757A807E75717E888A89868C
:104728007F7F7D797B80817A76787D7F808789819C
:104738008289867C767E817A747B8285878684806E
:10474800807B7A797D7F7B7C7D7E7E868F87828960
:10475800877C73767F7C747681878C8B8984807C58
:10476800797C797B78787C7D7C818A8982888C8445
:1047780078747B7E78747D83858785837F817E7856
:104788007A7E807D7E7D7B7D8489868586857E7424
:104798007B807C75768084898683817E7D7D7D7A29
:1047A8007E7B77797B7F818484828789867C797F09
:1047B8007E77747C82878683837E7D7E7F7A7A7D0E
:1047C8007B7A7B7C7F8084868889877F76797D7BEE
:1047D80074767E83848286847E7F807C7A7F7F79EC
:1047E800797C7D7D8182838788847B797E7E7A75DA
:1047F8007B83847F81847D7E82807A7D7F7E7A7CC4
:1048080082817E80828486847E7A7E807F797980A8
:1048180083807F82817D7F827C7A7F817D7A7F829F
:104828007F7D7F82838381807F80807F7B7C838282
:104838007E81817D7C80807B7C7F7F7C7E84867F7F
:104848007B80828484837F7E7D7D7C7D8285808061
:1048580082828283857E7B7C7C7D7D8084837D7F54
:1048680086878684807F7F7E7C7C7E81807E808038
:10487800808487827E7F7E7E7C7E8384807F828424
:104888008583828281807F7C7C7F7F7C7F8081841E
:104898008484807F80807E7B8084807D7E8184820A
:1048A8008082838283807D7E807D7D8080828383F9
:1048B800817E7E7F7F7B7E8484807C7D83848180F3
:1048C800828182807D7E7F7F7C7C80838385837EDE
:1048D8007E7E7F7E7C7F82817E7D818382808082D6
:1048E8008283807F7F7F7D7A7C82828485807E7DC3
:1048F8007E7F7E8084847F7B7E82828181808183AB
:1049080083817F807E7B7A7E82828585827F7F819C
:1049180080808383827C7B8081807F82858585837C
:10492800807F807C7A7B8083838582807E7D7F7E8A
:10493800808385807B7E7F81808083838583837F5E
:104948007F7D7B7B7E8284868483807D7C7E7E8364
:1049580085827D7B7E807F7C808485838381808146
:104968007D7B7B7E82858482807E7C7E808285843E
:10497800817C7C7F817E7E818282848280807D7A38
:10498800797A8085858381807F7E7D808283817D21
:10499800797B7F807D8184838484827F7E7D7B7622
:1049A800797F83848382807E7E7F838582807C7A00
:1049B8007C7D7C7F828383838484817F7D79797DFC
:1049C80081838382827F7D7D80848384807A7A7DDF
:1049D8007E7C808382828283827F7F7C787A7F82DA
:1049E800828383807D7B7D81818484807C7E7F7BC4
:1049F8007C7E80828182837F80817D7879808582B8
:104A08008081807D7B81837E848679797D7B8082AD
:104A18007D83867E84857C7F837E7B7C7F81807B93
:104A280081807D7E81807D7F7F817D7C7F7E838587
:104A38007F808184837C787E7F7D7F7F7B7B8A8378
:104A4800747A7E7C83847D818580817D798487806A
:104A58007E7E7E81777A8375768482858676838D5D
:104A6800797F898083867B7A7E787B7E8082857E4B
:104A78007B7B76828078787F80838182908C827E2F
:104A88007F80897F797B7A7F7D7580887C83877C2E
:104A9800787D81827C7E8185818587808584847C00
:104AA800788080727781777E867A7A7F838484881B
:104AB8008B8D7D7F7C75838683817D7C7E7D7B7DF0
:104AC80079808777787A7A7E87818A9180878780CC
:104AD80082807A7D797B7E7F7B7574818B7E7F7FF8
:104AE8007C818075858D7F868B7A858B7C7D797DB1
:104AF800877C757D7A7A7D7F7B797986857D878EBF
:104B08008082847B8C8B7D7B757B897C767F7C7FA8
:104B18007D787D7B8187837C858A7F84817A8A887A
:104B28007D777081897C7D7F79827E74797B8486AC
:104B38007D808E8F797D827C88837E80797E7C7073
:104B48007C7B7B857F7A7B78848D847F90907C7852
:104B5800737889857D7C7985837A797C7D82767482
:104B68007A7B85898886938980827A7A877F75752A
:104B78007784857A7779818A777278808A89868A34
:104B880093867F837A7F877C7A7C787E7D79767935
:104B98008B88747476818E8E898C9187837C7681DC
:104BA800887B7675787F7C7B7C808A807074788639
:104BB8008E90898C91877D78778184797A778081C6
:104BC8007B7378818A7F707C7B858B8889959187B8
:104BD800857A737F7D7979747F7E7B79797F8C7A0A
:104BE8007179818F8E888B928C8680787A817E7F8E
:104BF800777883817A76777F8677737787949388B7
:104C08008B968C837D737980797D797B83827A7AA0
:104C18007B8082716E778592918A949989807D7163
:104C28007A827C7E78777F7E787A7F857B6C757CCC
:104C380087928E92978F807F7B747F827B7B797837
:104C48008380787B7D7D736C758591918E9597882F
:104C58007F8278777F7E787A787B847D7B7B7C7A8D
:104C68006E6C79868F908F94958A8380797E827D09
:104C78007475767A807C7A7E7F786B6D7783939370
:104C8800908F9088817F7F84857D7473767E7E790E
:104C98007A7D7E736B727785928F8B8E8D888482F6
:104CA8007F83827974727A827F7A7B787C706C7366
:104CB8007D8A8D8A8A8E8A86878581847D737074C1
:104CC8007B8280807C7A7C706B75838C8E88888BE5
:104CD800898689878786796F70747A7F7E7E7C7EE5
:104CE800766D6F788591908B8B8D8B868684868583
:104CF800776D70757D7D7B7F7D7B746D727B858E16
:104D0800908B8C8B878B8A848582777072767B7F79
:104D18007C7B7978736F707B8A918B888B8B898A7F
:104D280087858781786F767B7E7D7C7C78767170CD
:104D3800767F888E8A888C8B898C8787857B74742C
:104D4800797A807E7F7D7975706F7881888B878A84
:104D58008C8C8C8A8484827A7475767C827E7E7E42
:104D6800787472747D82888783898B8A8C8D868318
:104D78007F797576777E817D7D78777875767F8780
:104D8800898180888C8F8F8B85837E78787A7A7EEC
:104D98007C7F7E767576777C8385837E81868A8F15
:104DA8008F8B88827A797B7A7C7B7C7D7A75757625
:104DB800787E8284837C7E848B90918A85827C7CB9
:104DC800797B7C7C7B7E797579757A7F81837E7A25
:104DD8007E868D91918A87807E7B7B7D7B7B7D80A3
:104DE800787878777A7D80837D7A7F888F928D8AAC
:104DF80086817F7B7D7E7B797F7E7A7878787B7AE7
:104E08007E827B7A7F8790918B898482807E7E8068
:104E18007B7B7E7D797677797A797D7D7B7A7F88D1
:104E280091908B868483807E7F7F7C7B7E7C787765
:104E3800757A7C7D7E7A787B8089908F8A86868455
:104E480082807F7E7C7C7E7B7B75757B7D7E807B94
:104E5800777C838C908E888788857E7F7E7A7B7F1F
:104E68007F7E7A75777C7E7E7D78767A828B908C51
:104E780087898A87817D7B7A7A7D7C7C7A76797D41
:104E88007E7F7C76767A828C8F8D88888A88807BF4
:104E98007A7B7C7D7D7C78777B7E81817B7474795D
:104EA80080898D8D8B8D8C86807C7A7B7E7E7E7CC6
:104EB80078797E7F807E7974747980898C8C8D8EE8
:104EC8008984807B7B7D7D7F807B797A7E817F79F9
:104ED8007574767882898A8B8B8B87837E7A7B80C0
:104EE8007D7B7E7C797B80817E787675797D8187F4
:104EF800898B8C8884827D7A7D7F80807F7B7B7E96
:104F080081817E7A76787A7D84888B8D8B8985807D
:104F18007B797B7B7D817E7A7C8083817B767779C8
:104F2800797E85878B8B8A8885827C7C7D78787D65
:104F38007C7A7D8183827A73777A7D80858A8D8B6E
:104F48008987857F7A7B7C7B7B7C7A7A7E8283806B
:104F5800797475787C8283878E8C8A8B877F7B7A3D
:104F68007B79797A797B8180807D7674757A7D8288
:104F7800868B8B8D8E8987837E7D7C787979797D08
:104F88008380807F7673777A7B83888D8E8B8B8AFC
:104F980086837F7F7E7C7873767D807F807B777841
:104FA800787A7B80898E8D8D8B8583827B7A7E7DD6
:104FB800797B7D80817C797A73757A7C7F868A8615
:104FC800898C8F8D877D7C7874777A777D858180D1
:104FD8007D7B75787D7C7E858B8B878589868582B0
:104FE8007D7C7F787A7F7B7D7E807D7B7A797879FE
:104FF800767D8B8C8D918B83807A7C7B7C77798591
:105008008987827876797C81817F7C828783848A8C
:105018008A85807F7E77787B7A80858585817F7B8E
:10502800767776777C858B8889898E877E7D7A7A74
:105038007A7A82847A7D7D777B817A78818886897D
:10504800897D7E81888A847D777B7E7A7A807F835A
:105058007E7E7A797E7B76798786868C928E887F2B
:105068007C7C7B81837D797B8182787B77767F836B
:10507800827A818781838B89828388888079727517
:10508800777F89847B797B7A78787F7D848D8C861D
:1050980080847F7A80807B7D858B89847971737623
:1050A8007E83817A767D81828784858683867E7BEE
:1050B8007F736E83878284878883797173747C8613
:1050C8008B88807E81847F7F7B8182807F767C7ED7
:1050D800747A87867F818886867B75797E878B8BB5
:1050E800837F7D7C7C797A8084828279767D7676EE
:1050F800828788888C8C888375757777838A827F86
:105108007F7C7D7C7C7B80837E7E7A7A817A7C88BA
:105118008B8B8A8D88827A7474767987887F7D787C
:105128007C7B7D8081878885817C7B7A7680878679
:10513800878C888481797677787E88807B797C7F74
:105148008086868887827F7A767972767F868C8E4B
:105158009089807A767375778386827E7E8486844A
:105168008184837D7C7873757779818A8B8B8E8C2B
:105178008780777275757C87847D7B7D818280844A
:105188008C887E7C7A757376787E888C90928C88F1
:10519800807B7976767E827C79797E838684878B1C
:1051A800847D7C7977767A7D83878B8F8E8B807AE6
:1051B8007575767B83817D7B7C7D808385898883FB
:1051C800807B797675767C83868C8D8D89807A78DC
:1051D800777A7F807A75797E7F8587898C88827DCA
:1051E80079757777757D82878F8D89827C797574DB
:1051F8007980817F7D807F8284858B8781817974A6
:10520800767A787A82858B8D888580797874777EAE
:1052180084837E80807F817F858B847F7B77747990
:105228007D797E81858D8D8B897E77787679808171
:105238007E7E7C7D84868588888078777775777789
:105248007C8284898D8985837B7976757A7D818056
:10525800807E7F8380828887827C7978777C7E7F56
:105268007E82898A8787837B7A787A7E81807D7A35
:105278007D84827E858986817E7C76777A7E7E7F34
:105288008687848384827C7776797B828380808119
:1052980084808087887F797A79777A7E807D828A10
:1052A800898686827C78747A7B7E83817E818784F6
:1052B8007E7E86857F7C7D7A767A7E7D7E848787F2
:1052C8008689857E79787B797E827D7B8486807DE0
:1052D8008388847D7B7E77747A7C7B8187898584CB
:1052E80088837C767979787E81808088867D7E85C2
:1052F800857F7B7D7B78797D7E7E848987838586A3
:105308008077787D777B80807F858A827B7D8585A5
:105318007F7F807C787A7F7F7F8687828184837C89
:10532800797B78767E8382818584807D81867F7A89
:105338007D7F7B7A7C81838486868382847F78786C
:105348007B7A7D828282888A86807C7F807C7C8052
:105358007F7B7A7C81838485838281807E7C7D7A51
:105368007A7E7F818586847F7D80827F7D7F807D38
:105378007B7A7C81818383838483817F7E7C7B7F2E
:10538800807F808385837E7C7F7E7E7D81827E7B1D
:105398007C81818082817F818081807E7C7D807F0D
:1053A8007F828485807C7F7F7F7F7F81827F7C7FF7
:1053B800807E7F7F7E807F8183817F7E7E7D7E81F0
:1053C8008282827F7C7D7E80818284817C7D8081D7
:1053D800807F808080818382807F7E7E7D818382C2
:1053E80082827F7D7C7D808285837E7C8081807FB8
:1053F8008081807E81848180817F7C7D818282839F
:1054080082807B7B80818284827C7C80807F7F829B
:10541800817E7E81828182807E7C7E82828383827D
:105428007E7B7E7E7D8183807D7F7F7F8080828082
:105438007E8082818181817E7C7F81818282817D63
:105448007B7F808182827F7C7D80807E7E7F7F8063
:1054580083848281827F7C7B7E7E808282817C7C49
:105468007F818182827F7D7E807E7F81807E7E813A
:10547800828282817F7D7D7E7F8383827F7B7B7E2C
:10548800818282827F8082817F7F7F7E7C7D818313
:10549800828282817F7D7D808382827D7A7C7F810A
:1054A8008384817D7F817F7D7D807E7B7D838382F8
:1054B80082817E7D7C7E828182827D7A7D7F7F81F2
:1054C80083807D8082807F80807D7C7E81828281D6
:1054D80080807E7C7F828283807A7A7D7F7E8181D4
:1054E8007E7F8383807F807F7C7E80828282807FB4
:1054F8007E7B7B7D7D7F817E7B7C7F7E7E84847FBF
:105508007F81827F80827F7C7D8181818282817C94
:105518007A7E807F81817D7C7E7F7E80827F7F8294
:1055280084837E7E807D7C7D7E7E808181817D7B83
:105538007D7F7E80807E7D7C7E7F8083828381816B
:10554800818083827D7D7E7E8184817F7E7C7B7E5F
:105558007F81817F7E7D7D808082847F7F80818046
:105568007F81807D7C7E7E7D80818182807C7D8044
:105578008284827E7B7C80828083838181817F7E1E
:105588008384807D7D7F80808082847F7B7B7C7D1F
:1055980080817D7F8182827F8183847F7A7D7F8005
:1055A8007F7D7E80808183817F8285827F7D7D80F3
:1055B8007F7B8082807D7C7E8284807E8185857FE2
:1055C8007A7B7D7E7C7D828080837D7E84818081E4
:1055D8007E7E818080837F808683808083837C77C2
:1055E800797B7E7E7E848786807B7B7F7E7D7E81C5
:1055F8007E7E807D81828082837F8386827E7D7CA1
:105608007F827E828481817D797A8083807D828594
:1056180083817C7E81807B7E848181817E7D7A7A94
:105628007F838583828082818082807D8186817963
:10563800747B7F7F817E80898A837F7D7D7E797779
:105648007E8284847B797D7A7D8485848584818348
:10565800827E83827F83838077747E85817A788453
:105668008D8A7F7B7E828278798186847F7B7B7B33
:105678007981868483848A827F85807E7F81808108
:105688007F75787F7F807C7A858F867F7D81847D1A
:105698007C7D82817F7B7B7F7C7B7C818585888903
:1056A80084817A7B81818384807B76797E807F7B0D
:1056B800848B89837C7C8482797C82827F7C7B7FDB
:1056C800817D777A8388838688837F7C81858280C1
:1056D800818078757F817E7C77818B8783808284C7
:1056E8007E7A7D85857D79797F7F7A79808A8684BF
:1056F8008B8886807E7F7D7D808280787A7F817DA1
:10570800787B878B87807A81837B7C8385827F798E
:105718007A7A79787981868583868A88817D7E7F81
:105728008282827C747980837D7D82858783808173
:10573800847F7A7B8084837E7A7C7974777D86897E
:105748008484868A86817B7A8081807D78797E7F51
:105758007E7979818684818183817877818787863C
:105768007D797B7872747E87888485858787817F39
:105778007C7C82837D797B7E7E7B7B838887837F2D
:105788007F817E797B8385857F7B7C7B777578803D
:10579800858283868787837E7B7B7D81827D7C7FF4
:1057A80082817C7C828989827E808079757C8485EF
:1057B8008681807E7B787377818887858384847FE0
:1057C80080817E7D80817C7A7B7D7C787D878C87DB
:1057D800817F7E7E77767F868885817E7A797675E9
:1057E8007D8787838382848480817E7D7F7E7D7AA6
:1057F8007A7B7C7D7D81878987807D7E7B777981B7
:1058080087868181807B7977787D8384848281848F
:10581800838183817E7D7D7F7F7D7C7C7D7F828788
:105828008985817E7A78787B81868583827A787A81
:10583800787A7F8283818184838081827E7D7C7D6A
:105848007F7E7C7C7B7C8081858686837C77797D66
:1058580080838686827E7A7A77777A7D8183818251
:10586800827E8285827F7E7D7E817E7B79797F8242
:1058780082848687847E7A7A7C82868685837D7B0D
:105888007C7B7D7C7C7F82838382808384827F7D16
:105898007F81827F7D7A797D7F83848384817D7A0D
:1058A8007A7E84868482817C7C7B7B7B7A7D808106
:1058B800848682818383807E7F8283817D7D7B7BDA
:1058C8007F8284828383817D7B7C7F8286878582B9
:1058D8007F7E7C7C7E7D7C7F8286858182818281C1
:1058E80080828282807E7C797B7E808284858581AD
:1058F8007D7D7E80838685827F7D7A7A7C7E7D7FB2
:10590800838283828283807F7F81838584807D7B7D
:105918007C7F8182828282847F7B7D7F8385858470
:10592800817C7A7B7B7B7C7C808382838184837F80
:1059380080807F8182807E7C7A7A7E818283838464
:10594800837E7C7D7E80838483807B7B7C7D7B7A69
:105958007E8283828080827F7C7F808081827F7C40
:105968007A79797C8384828385817E7F8181828331
:1059780082817C7A7B7C7D7E7E7F8282838181822C
:105988007E7D7F808081827F7C7C7B7E8183817F1E
:105998008285827E7F82828383827F7C7B7B7C7C04
:1059A8007B7C808384858181817D7D7D7E7E8080F6
:1059B8007E7B797A7E838481808385827D7E8083E5
:1059C8008383827E7C7B7A7B7C7D7E8182848380DC
:1059D8007F7E7D7F807E7E7E7E7C7B7B7D808483D8
:1059E80081808283828081818181807F7C7E7E7CB0
:1059F8007D7C7E7F8182848281807D7E81807E7EA7
:105A08008081807C7B7D81828180808384817F7F8F
:105A1800808182827E7E7E7C7B7D7D7E8183868482
:105A28008282807C7D807F7C7C7E7E7D7C7C7D828A
:105A3800858282838482807E7F808081807E7E7D55
:105A48007C7E7F7F808183848181807D7D7D7E7E59
:105A58007C7C7E807F7C7C7F838381808385827F42
:105A68007F7F7F7F807E7B7C7B7C7E7F8080818444
:105A7800858484807C7C7E807D7D7F80807F7C7E29
:105A880081838382818283817E7D807F80807E7D09
:105A98007D7C7D7F7E7F818384828284807E7F7F00
:105AA8007F7D7D7F7D7B7B7B7D80838382828384FA
:105AB800807E7D7C7F807F7D7E7F7E7F80817F7EF4
:105AC80081838282837E7E8081807E7D7D7D7E7CD7
