:020000040800F2
:100000000050002021020008270200082B020008EF
:100010009D020008A1020008E9020008000000009B
:100020000000000000000000000000003103000894
:10003000350300080000000039030008E90B000840
:100040004D0300084D0300084D0300084D03000850
:100050004D0300084D0300084D0300084D03000840
:100060004D0300084D0300084D0300084D03000830
:100070004D0300084D0300084D0300084D03000820
:100080004D0300084D0300084D0300084D03000810
:100090004D0300084D0300084D0300084D03000800
:1000A0004D0300084D0300084D0300084D030008F0
:1000B0004D0300084D0300084D0300084D030008E0
:1000C0004D0300084D0300084D0300084D030008D0
:1000D0004D0300084D0300084D0300084D030008C0
:1000E0004D0300084D0300084D0300080000000008
:1000F0000000000000000000000000000000000000
:1001000000000000000000005FF808F100B583B0B7
:1001100000F0AAF9304B314A1360314A1360314B79
:10012000314A32498B4204D21168196004330432D7
:10013000F7E72A4B1A682E4B9A4200D0FEE7284B6D
:100140001A682C4B9A42F9D1234B2B4A13602B4A45
:1001500013602B4B02E000221A600433294A9342B9
:10016000F9D3254B1B6813B9244B1B6803B1FEE779
:1001700000F086F9694601A800F022F9224C234BD1
:10018000E41AA4100025AC4214DC214C214BE41AE3
:10019000A4100025AC4213DC0099019800F058FD32
:1001A00005461D4C1D4BE41AA410002C0EDC2846FD
:1001B00000F0E2F8154B53F8253098470135E2E797
:1001C000144B53F8253098470135E3E7013C134BB6
:1001D00053F824309847E8E7BABADECA0000002096
:1001E00094000020000000204C940008980000209B
:1001F0007856341232547698980000203801002046
:10020000980000203C0100207803000878030008D3
:1002100078030008780300087803000878030008D2
:1002200008B5FFF773FF00BEFEE71EF0040F0CBF1A
:10023000EFF30880EFF309807146414A10472DE93A
:10024000F04182B004468846124B5E6B9F6B9D6AFC
:100250001B6B13F0020F03D00E4BDB6A002B0CDB81
:100260000D4800F0B5F8CDF800803B4632462946EF
:10027000204600F009F900BEFEE74BF6AB6100F046
:100280007DF90028ECD0034B4FF00042DA6202B057
:10029000BDE8F08100ED00E06416000800BEFEE756
:1002A0001EF0040F0CBFEFF30880EFF309807146D6
:1002B000244A10472DE9F04182B004468846084B95
:1002C0005E6B9F6B9D6A074800F082F8CDF8008056
:1002D0003B4632462946204600F0D6F800BEFEE7EF
:1002E00000ED00E0741600081EF0040F0CBFEFF3E1
:1002F0000880EFF309807146134A10472DE9F04159
:1003000082B004468846084B5E6B9F6B9D6A074827
:1003100000F05EF8CDF800803B4632462946204684
:1003200000F0B2F800BEFEE700ED00E08016000825
:1003300000BEFEE700BEFEE700BEFEE7704700001D
:100340003F020008B5020008FD02000800BEFEE7FB
:100350004C94000800000020980000204C940008F5
:100360000000000000000000980000203C01002078
:08037000000000000000000085
:10037800FEE7000008B503460C4A12685AB10B4A5A
:100388001068033323F003030344094A934206D851
:10039800064A136008BD054A06491160EFE700F0F8
:1003A8009FFC0C2303604FF0FF30F3E79C00002014
:1003B800004C00203C01002001230360014B0B602E
:1003C800704700BF040000200FB400B583B004AB31
:1003D80053F8042B01938021064800F0B3FC002851
:1003E80003DD0146034800F037F803B05DF804EB7D
:1003F80004B07047A40000202DE9F04385B00446FE
:100408000F4643560BB10E461EE0042528462146EA
:10041800ABBE0446384605B0BDE8F08314F9011BAD
:1004280004AA1A4402F8101C0133AB42F6D304AAFA
:100438001344002203F8102C4FF00408E946404604
:100448004946ABBE8046761B002EE3D03546102EBB
:1004580028BF10250023E8E708B5FFF7CDFF08BD42
:1004680008B500F0FDF8024A024B9A6008BD00BFCB
:100478000000000800ED00E008B500F019F908BD1B
:10048800F8B504460D4617461E462748FFF79CFF59
:1004980021682648FFF798FF61682548FFF794FF11
:1004A800A1682448FFF790FFE1682348FFF78CFF15
:1004B80021692248FFF788FF61692148FFF784FF17
:1004C800A1692048FFF780FFE1691F48FFF77CFF1B
:1004D8001E48FFF779FF29461D48FFF775FF1D4C99
:1004E800E16A1D48FFF770FF216B1C48FFF76CFF9E
:1004F800E16B1B48FFF768FF15F0800F0AD115F470
:10050800004F0CD11748FFF75FFF06991648FFF711
:100518005BFFF8BD39461548FFF756FFEFE7314650
:100528001348FFF751FFEDE7481500085815000874
:10053800681500087815000888150008981500083F
:10054800A8150008B8150008C8150008D81500082F
:10055800E415000800ED00E0F41500080416000892
:1005680014160008441600084C1600082416000843
:100578003416000883691A888A4201D0002070471F
:100588000268033A012A03D80233836101207047C5
:100598000020704782B00023019300932C4A13680F
:1005A80043F4803313602A4B1B6803F40033009331
:1005B800019B01330193009B1BB9019BB3F5A06F0D
:1005C800F1D1234B1B6813F4003F06D0012300939D
:1005D800009B012B04D002B0704700230093F7E77B
:1005E8001C4B1A6842F010021A601A6822F00302C3
:1005F8001A601A6842F002021A60A3F580535A681A
:100608005A605A685A605A6842F480625A605A6856
:1006180022F47C125A605A6842F4E8125A601A6846
:1006280042F080721A600A4B1B6813F0007FFAD000
:10063800074B5A6822F003025A605A6842F00202D5
:100648005A60034B5B6803F00C03082BF9D1C2E72F
:10065800001002400020024008B5FFF79BFF08BDCC
:1006680008B5104B1A6842F001021A6059680E4A20
:100678000A405A601A6822F0847222F480321A60A2
:100688001A6822F480221A605A6822F4FE025A601C
:100698004FF41F029A60FFF7DFFF044B4FF0006230
:1006A8009A6008BD001002400000FFF800ED00E06D
:1006B8001F4B5B6803F00C03042B15D0082B17D0D5
:1006C8001BB11C4B1C4A1A6002E01A4B1A4A1A60EA
:1006D800174B5B68C3F30313184AD35CDAB21549A6
:1006E8000B68D3400B607047124B134A1A60EFE750
:1006F8000F4A53685268C3F38343023312F4803FAE
:100708000AD00B4A526812F4003F0BD00C4A02FB85
:1007180003F3084A1360DBE7094A02FB03F3054ABF
:100728001360D5E7044A02FB03F3024A1360CFE7DC
:10073800001002401C00002000127A000C0000206B
:1007480000093D0010B4012824D018B1022841D076
:1007580010BC7047072910D90F29F9D8A1F108044E
:10076800E4B2A4000F23A3402A48016821EA030346
:1007780002FA04F119430160EAE789000F2303FA3A
:1007880001F0254C236823EA000302FA01F119431A
:100798002160DDE7072910D90F29D9D8A1F1080070
:1007A800C0B280000F2383401C4C216821EA030358
:1007B80002FA00F119432160CAE789000F2303FAFE
:1007C80001F0174C236823EA000302FA01F11943E8
:1007D8002160BDE7072910D90F29B9D8A1F108036D
:1007E800DBB29B000F2098400E4C216821EA0000E4
:1007F80002FA03F101432160AAE789000F2303FAF3
:1008080001F0094C236823EA000302FA01F11943B5
:1008180021609DE70408014000080140040C0140E4
:10082800000C01400410014000100140012818D0BC
:1008380010B1022829D07047012A0AD0002A2FD1E6
:10084800012303FA01F11B4A136823EA0103136029
:100858007047012303FA01F1164A13680B4313602A
:100868007047012A09D0DAB9012303FA01F1124AC3
:10087800136823EA010313607047012303FA01F1A7
:100888000D4A13680B4313607047012A09D03AB91F
:10089800012303FA01F1094A136823EA01031360EB
:1008A8007047012303FA01F1044A13680B431360EC
:1008B800704700BF0C0801400C0C01400C100140AF
:1008C80008B5022208210020FFF73CFF0222092177
:1008D8000020FFF737FF02220A210020FFF732FF2E
:1008E80002220B210020FFF72DFF02220C210020FD
:1008F800FFF728FF02220F210020FFF723FF022223
:100908000D211046FFF71EFF02220E211046FFF7A9
:1009180019FF022200210120FFF714FF0222012102
:100928000846FFF70FFF022205210120FFF70AFF03
:10093800022206210120FFF705FF022207210120DC
:10094800FFF700FF022208210120FFF7FBFE022229
:1009580009210120FFF7F6FE02220A210120FFF7F4
:10096800F1FE08BD08B5012200211046FFF75EFF21
:10097800012211461046FFF759FF012205211046B2
:10098800FFF754FF012206211046FFF74FFF01220F
:1009980007211046FFF74AFF012208211046FFF7FA
:1009A80045FF012209211046FFF740FF01220A21D5
:1009B8001046FFF73BFF08BD10B5044600F00102E2
:1009C80008210020FFF732FFC4F34002092100206C
:1009D800FFF72CFFC4F380020A210020FFF726FF4F
:1009E800C4F3C0020B210020FFF720FFC4F300125C
:1009F8000C210020FFF71AFFC4F340120F2100203A
:100A0800FFF714FFC4F380120D210220FFF70EFF39
:100A1800E2090E210220FFF709FF10BD38B5044690
:100A2800002571E0FFF79EFF2078FFF7C5FF002241
:100A380011460120FFF7FAFE40F6C41000F0A4F8B2
:100A4800FFF790FF6078FFF7B7FF00220121084603
:100A5800FFF7ECFE40F6C41000F096F8FFF782FFAF
:100A6800A078FFF7A9FF002205210120FFF7DEFE8D
:100A780040F6C41000F088F8FFF774FFE078FFF73D
:100A88009BFF002206210120FFF7D0FE40F6C4108C
:100A980000F07AF8FFF766FF2079FFF78DFF002254
:100AA80007210120FFF7C2FE40F6C41000F06CF8E1
:100AB800FFF758FF6079FFF77FFF00220821012028
:100AC800FFF7B4FE40F6C41000F05EF8FFF74AFFE7
:100AD800A079FFF771FF002209210120FFF7A6FE88
:100AE80040F6C41000F050F8FFF73CFFE079FFF73C
:100AF80063FF00220A210120FFF798FE40F6C41088
:100B080000F042F80135EDB2072D8BD938BD000051
:100B1800064B4FF480321A60043301221A60034BEB
:100B28001B6813F4003FFAD0704700BF0010024062
:100B38001F291CD801280BD010B1022810D07047EB
:100B48000B480368012202FA01F11943016070475A
:100B580008480368012202FA01F11943016070474D
:100B680005480368012202FA01F119430160704740
:100B7800141002401C10024018100240014B0022C1
:100B88001A60704710E000E0094B58601A6842F09C
:100B980001021A6000E000BF054B1B6813F4803F98
:100BA800F9D0034B00221A605A609A60704700BF60
:100BB80010E000E0074B5860074A01201070074A10
:100BC80011601A6802431A601A6842F002021A6039
:100BD800704700BF10E000E0280100202401002039
:100BE80008B5084B1B7843B9074B1A6822F0020274
:100BF8001A6000221A605A609A60044B1B68984772
:100C080008BD00BF2801002010E000E024010020FA
:100C18000A4A13889BB20A49C95C0A4B19601388AF
:100C280001339BB2138013889BB247F688529342D4
:100C380000D07047014B00221A80FAE72A010020F1
:100C4800901600080C08014008B5FFF761FF022163
:100C58000846FFF76DFF03210220FFF769FF042113
:100C68000220FFF765FF022200210846FFF76AFD10
:100C7800022201210020FFF765FD02221146002013
:100C8800FFF760FD022203210020FFF75BFD02222F
:100C980004210020FFF756FD022205210020FFF75E
:100CA80051FD022206210020FFF74CFD02220721F8
:100CB8000020FFF747FDFFF761FF06497D20FFF79A
:100CC80079FFFFF7FDFD0448FFF7A8FE0348FFF78B
:100CD800A5FEF8E7190C00082000002028000020D5
:100CE800014B1868704700BF3000002030B5141E53
:100CF80005469BB0184605DA8B234FF0FF302B6072
:100D08001BB030BD4FF40273ADF80C300CBF234656
:100D180004F1FF33029305934FF6FF73009104919A
:100D2800ADF80E3002461E9B6946284600F072F860
:100D3800431CBCBF8B232B60002CE1D00022009BFE
:100D48001A70DDE707B5009313460A4601460348C3
:100D58000068FFF7CBFF03B05DF804FB300000200C
:100D68002DE9F0478E6882469E420C469046994689
:100D780037D88A8912F4906F31D00223256809691F
:100D88006F1A656905EB450595FBF3F509F1010354
:100D98003B449D4238BF1D46530530D5294600F0D7
:100DA80035FB064650B90C234FF0FF30CAF8003027
:100DB800A38943F04003A381BDE8F0873A4621693F
:100DC80000F0B4FAA38923F4906343F08003A3816D
:100DD80026613E4426604E466561ED1BA5604E4582
:100DE80000D94E4632464146206800F0AAFAA36868
:100DF80000209B1BA36023681E442660DCE72A466C
:100E080000F05EFB06460028E2D12169504600F05A
:100E1800B1FAC8E72DE9F04F9DB003938B8980465E
:100E28001D060C4616460FD50B696BB9402100F01C
:100E3800EDFA2060206128B90C23C8F800304FF083
:100E4800FF30C7E0402363610023099320238DF816
:100E5800293030234FF0010B8DF82A3037463D46B4
:100E680015F8013B0BB1252B3ED1B7EB060A0BD089
:100E78005346324621464046FFF772FF013000F0E4
:100E8800A480099B534409933B78002B00F09D8074
:100E980000234FF0FF32CDE90523049307938DF823
:100EA80053301A932F46052217F8011B4F4800F0BC
:100EB8002FFA049BD0B9D90644BF20228DF85320BD
:100EC8001A0744BF2B228DF853202A782A2A15D0D6
:100ED8002F4600200A25079A394611F8013B303B76
:100EE800092B4DD9B8B10FE02F46B8E73F4A3D4628
:100EF800801A0BFA00F018430490D3E7039A111DE7
:100F080012680391002A01DB079204E0524243F081
:100F18000203079204933B782E2B0CD17B782A2B63
:100F280033D1039B02371A1D1B680392002BB8BFED
:100F38004FF0FF3305932E4D03223978284600F0F1
:100F4800E7F938B14023401B03FA00F0049B01374E
:100F5800034304933978062226487E1C8DF828100E
:100F680000F0D6F9002838D0234B13BB039B073376
:100F780023F0070308330393099B4B4409936DE758
:100F880005FB023201200F46A6E700230A25194671
:100F980001370593384610F8012B303A092A03D94E
:100FA800002BC8D00591C6E705FB012101230746A0
:100FB800F0E703AB00932246104B04A94046AFF379
:100FC8000080B0F1FF3F8146D6D1A3895B063FF58B
:100FD80036AF09981DB0BDE8F08F03AB00932246E9
:100FE800064B04A9404600F081F8EAE71894000887
:100FF8001E9400082294000800000000690D0008F3
:101008002DE9F04791461F468A680B6906469342C8
:10101800B8BF1346C9F8003091F843200C46DDF8F4
:10102800208012B10133C9F800302368990642BF05
:10103800D9F800300233C9F80030256815F00605E4
:1010480007D104F1190AE368D9F800209B1AAB42CA
:1010580029DC94F843302268003318BF0123920634
:101068002ED404F1430239463046C047013021D01E
:101078002368E56803F00603042B18BF0025D9F898
:1010880000204FF0000908BFAD1AA368226908BF05
:1010980025EAE5759342C4BF9B1AED181A344D45ED
:1010A8001AD1002008E00123524639463046C0478D
:1010B800013003D14FF0FF30BDE8F0870135C2E7BA
:1010C8003020E11881F843005A1C94F84510224456
:1010D800023382F84310C4E70123224639463046DA
:1010E800C0470130E6D009F10109D8E72DE9F043FE
:1010F80001F1430C0C46097E85B06E291746064659
:1011080098460C9A00F0B38022D8632936D00AD8C2
:10111800002900F0B980582900F0838004F14205C5
:1011280084F8421032E0642901D06929F6D1206898
:101138001368050603F104012AD51B681160002B0A
:1011480003DA2D225B4284F843206F480A2239E0F3
:10115800732900F09D8008D86F2920D07029DDD12F
:10116800236843F02003236003E0752917D078290A
:10117800D4D17823654884F8453055E0136804F1E4
:101188004205191D1B68116084F8423001238CE068
:101198001B6810F0400F116018BF1BB2CFE713682F
:1011A8002568181D1060280601D51B6802E068062E
:1011B800FBD51B886F2914BF0A2208225248002138
:1011C80084F843106568002DA560C0F295802168F9
:1011D80021F004012160002B3DD1002D40F08E80CC
:1011E8006546082A0BD12368DB0708D5236962689E
:1011F8009A42DEBF302305F8013C05F1FF35ACEB20
:1012080005032361CDF800803B4603AA21463046FA
:10121800FFF7F6FE01304DD14FF0FF3005B0BDE8C5
:10122800F083394884F84510136821681D1D1B6830
:1012380015600A060BD5CA0744BF41F0200121609A
:101248001BB9226822F0200222601022B7E74D065F
:1012580048BF9BB2EFE76546B3FBF2F102FB1133DF
:10126800C35C05F8013D0B460029F5D1B9E71368C1
:101278002568181D6169106028061B6801D519606A
:1012880002E06A06FBD51980002365462361B9E7A9
:101298001368191D11601D6862680021284600F056
:1012A80037F808B1401B606063682361002384F845
:1012B8004330A7E723692A4639463046C0470130FC
:1012C800AAD023689B0713D4E068039B9842B8BF51
:1012D8001846A3E701234A4639463046C04701303D
:1012E8009AD00135E368039A9B1AAB42F2DCEBE72C
:1012F800002504F11909F5E7002BACD1037804F1B6
:10130800420584F842306CE7299400083A940008B2
:1013180010B5C9B202449042034601D1002303E04C
:101328001C7801308C42F6D1184610BD10B5431E0A
:101338000A44914200D110BD11F8014B03F8014F46
:10134800F7E7884210B501EB020307D8421E99421D
:101358000AD011F8014B02F8014FF8E78342F5D99A
:101368008118D21AD34200D110BD13F8014D01F8EB
:10137800014DF7E738B50546002943D051F8043C3C
:101388000C1F002BB8BFE41800F0D0F81E4A1368F1
:10139800104633B9636014602846BDE8384000F051
:1013A800C6B8A3420BD921686218934201BF1A68D4
:1013B8005B685218226063600460EDE713465A6860
:1013C8000AB1A242FAD919685818A0420BD120686C
:1013D8000144581882421960DED1106852680144ED
:1013E80019605A60D8E702D90C232B60D4E720682B
:1013F80021188A4201BF1168526809182160626089
:101408005C60C9E738BD00BF2C01002070B5CD1C59
:1014180025F0030508350C2D38BF0C25002D064690
:1014280001DBA94203D90C233360002070BD00F012
:101438007DF8214A1468214691B9204C23681BB9CC
:10144800304600F063F820602946304600F05EF828
:10145800431C24D10C233046336000F068F8E4E7DD
:101468000B685B1B18D40B2B0FD90B60CC18CD5015
:10147800304600F05CF804F10B00231D20F0070053
:10148800C31AD3D05A42E250D0E74B688C4216BFF9
:10149800636013600C46EBE70C464968CCE7C41C54
:1014A80024F00304A04205D0211A304600F02EF89B
:1014B8000130CFD02560DBE72C010020300100206F
:1014C800F8B5074614460E4621B9BDE8F84011465E
:1014D800FFF79CBF22B9FFF74DFF25462846F8BD08
:1014E80000F026F8A0420FD221463846FFF78EFFBB
:1014F80005460028F2D031462246FFF717FF31464D
:101508003846FFF737FFE9E73546E7E738B5002300
:10151800054C054608462360FEF72CFF431C02D104
:10152800236803B12B6038BD340100207047704731
:1015380051F8043C181F002BBCBF0B58C01870474B
:10154800537461636B206672616D653A0A0000002E
:10155800205230203D2020253038580A0000000055
:10156800205231203D2020253038580A0000000044
:10157800205232203D2020253038580A0000000033
:10158800205233203D2020253038580A0000000022
:1015980020523132203D20253038580A0000000002
:1015A800204C52203D2020253038580A00000000E9
:1015B800205043203D2020253038580A00000000E4
:1015C80020505352203D20253038580A0000000092
:1015D8004653522F4641523A0A00000020434653D0
:1015E80052203D2020253038580A00002048465314
:1015F80052203D2020253038580A00002044465308
:1016080052203D2020253038580A000020414653FA
:1016180052203D2020253038580A0000204D4D46E4
:101628004152203D20253038580A000020424641CA
:1016380052203D2020253038580A00004D69736338
:101648000A000000204C522F4558435F524554551C
:10165800524E3D20253038580A0000005B48617220
:10166800644661756C745D0A000000005B42757326
:101678004661756C745D0A005B5573616765466108
:10168800756C745D0A000000898A7A7B8E9A8D8F4A
:10169800A9A996A1A8ACAEAAA29B837F919A8E71A4
:1016A800716960626A5E595B5956675E58636C6817
:1016B8006E8D929D9D9180939CA3A3ABA59DA49BA9
:1016C80093979F8885777C737273664F565F5763CD
:1016D8005E646158556A7272707C85868D9A9F9E89
:1016E80098A5A496A9AB9C94A09BA3969699908B39
:1016F8006A75867E6D6C5E5A5A5C62676259565787
:101708005951606A6F758F9A9189959C8E868BA1C5
:10171800AE9D96A9AB96929DA197928E8B95858D3D
:10172800947C69706758575D676359525A6E625B5B
:10173800717A614B6B7E71708A9194939093938ABE
:101748008B9F98A0B0ABA5A19FA7AA9B918C9381D2
:10175800888E817978896764735D48626B65577094
:1017680074545756545E72746B6F887C7272937996
:101778007391928898AB928591A19FA79A9A9B930F
:101788008797A49F90909497938A9A9A716D776A95
:101798005E797D6068726D536C635658655B6371E2
:1017A8006F62605A6E7D697A6663607B7A8496960A
:1017B8008887878E9094AC9C95839C9AA4AD9B9BBC
:1017C800AAA9A2A88D89858D9C9792988967627E1F
:1017D8007C6B71705C536953576C63546369726CAA
:1017E800525C5E57547F725B616E6B62777A7B8165
:1017F800877E83909599A8AA9791A8AA979A8E937D
:1018080095A3A394A2A09D8C9AA59891A8A1747E53
:1018180099807D928277757F64657B635871725E6B
:101828006C766659564C6966595B626B5B55627695
:101838006B656C7E6573948E716E8588878F9788CB
:10184800958B8D97969CAD9C939E999DAAB5998CE6
:1018580097998E9DAD957F93998E92958881869361
:101868008587977E737C74697E857A787163626EEA
:10187800807759646A66607374554E576B5C546020
:101888006C5B5365656074766F666881868B887655
:101898005F8393827F99977B87979784949D9A9784
:1018A80095A0ACADA99C80929E9C97A4967D918AA8
:1018B8008193A38D9190958F9B978C808197918729
:1018C8008999665F7788647289614F6C775D637206
:1018D8006C53625F5F556E6F6055637364757566B0
:1018E800596B6F6E817B5C595D6F68738667646A3C
:1018F800706C7F878285868B9698A58B6F879F9360
:101908008DA4A1816D90948694AF9F888DA18E91AE
:10191800A9A59797A99CA2AD9A87938A9897ABA5F2
:101928008479798B999C85767A786B7D868A6D76B1
:10193800826F768B836D6B6F70787D7B7353626A71
:10194800696773795D52615E55688179596A6C730C
:101958007371695B5E657C74726D595064717D84C6
:101968007D746E647791877E868D88899296877D4F
:101978007984858F979D8D7B84979B939E978A7E8C
:10198800928F7D91A59B929F9F99A0A99E878AAAD5
:10199800A7929A93828E8E8D9B95908C7C73859658
:1019A8009A93939185918F82807D7B8277818D74C4
:1019B8006A6C6B6D7A7E7D7560687976667C8B79EA
:1019C8007B7A6E6D7480735F72787971746A57620E
:1019D80073746D6B6765565B6B786C727877636848
:1019E800807E7563817B808E83656A877973838641
:1019F8007776787B6D7C879A9186877C8A838A98AC
:101A080085788E97877C837E7B788D8A898B798091
:101A18008489939F9292977F7C9B9C8C85879694D0
:101A28008D958C7E869389788496826C8282758A5D
:101A3800A190817F7C88888C938382919291837610
:101A48008B846F828D7F7C837A6B778C8B898F7F79
:101A58006B76877D8083737C8486797775787B74D1
:101A68007770777B6D6B7D7B7B828A866A697D7DEB
:101A78007288837677818172687B8D6865757F65EA
:101A88006E7F6B617B91827C7B74707785857482B5
:101A980083888587757A8483767981717F7D72736F
:101AA8008D84808B93736F85857884998D878389DE
:101AB80080748192846F74817C798286777D99A005
:101AC8008C7A7A8C7E7B958A848C908780808087BC
:101AD800837C7E766D788982757E92857C88787124
:101AE80083897E7D88988D7D8E7F6C779D907877B1
:101AF8007B7C7B807C807B87928E6E6C847B668A05
:101B080091808794857C79798680847576717575DE
:101B18007D71808A8D90726F8282809385868C8B8E
:101B28007F838476758C87716B717B6D7A818281F6
:101B3800838F8B6A6C8587797988847F7F967D6EA1
:101B4800848584807F796F6F88807482908A847698
:101B58006A7E78728A8C7C8092927E73877E6F8E82
:101B68008E6E636F7C74748A8C7F8D8A6C778287A3
:101B780086807F8F8D7689958372848E795B748E4B
:101B88007A717F83858586906F687E8280827C8863
:101B98008B81938880828B767C897D696D8E777046
:101BA80079988A80757D7F737D87877C737A997B26
:101BB800818793777670626466886E72879481975E
:101BC800A17B7C8A8882898F7F8180747F778294C9
:101BD800988890908285737E6E76889F83738087BD
:101BE800938294817C717D7674686C8C8463667B47
:101BF8007385918B82908E927E77816D6F80626AF9
:101C08007666565A766D6E738885746D7872716FC4
:101C18007C8788939C938996849297859B978E93CB
:101C2800898B8B858C9F8F807C6F786F5F655F77E2
:101C38008C746780866E83938483917E838C817A8B
:101C48007D93877070808593898C898B8F8B6E6765
:101C5800846D7467636C725D617A706F6E8892824E
:101C68006A6F7081817A838F9D918A809A8E88931A
:101C7800A19C96A6A89785959D9A969D8D806E792C
:101C88007A685B60717E7156748882788A94876EF0
:101C98008E9688838085898570827E887B949887D4
:101CA800818D897970607B757768635C655861722E
:101CB8007470839B777570747A8E7171888D937D3B
:101CC800807F858696A5998FA69E95958A91A59ED3
:101CD800818875767971655B695B6D705970807BF9
:101CE8007B858B84898385858A9489808B896E75A9
:101CF8008D8D8B9D8D8B867A707A8B686D777E7BC8
:101D08005F576E6660767E7A8F9F6E706E72788689
:101D180084818E74858B7C7A8890999E9E959BA4ED
:101D28009B8F98A18F9F8F767176817065707152A5
:101D3800667A5D74827A8E957F82858F8980949F7A
:101D4800827E8F6D6D7A8D8D8B97918788887A7357
:101D5800766F697D6F637169616369757C7A848167
:101D68006C767171887E737F888384828385849082
:101D78008D95A09092A397999E97968E86797E7F4F
:101D88007B6D686765606B71656E6E717582838344
:101D98008F938890938F93928E828B8288817A7AA0
:101DA8007377747D76827A7575837C737B716969C4
:101DB8006F74877C7B737A6B6A70737C767E7A87A4
:101DC8008C94898C94958E91958D929A969FAB98C8
:101DD800979B8C74737266625C5C606672817E77B6
:101DE8007D7C7A7C7D8392918C96A2A2908D8A7C50
:101DF8007E75717A746F78817F7F7D7E787277784F
:101E0800777A726F6F78797B78797067736E6E6C9A
:101E18007B838783868B91908284928D8995949C0D
:101E280091989E9D939291877D727A717172676B7A
:101E3800716F70767C71727D867D829198938691A0
:101E4800918E8782797F827E7E84837F7F8183756E
:101E580077797C73777A7E7E78726C70736B6F7526
:101E68006962677C797C8291918488929082888B60
:101E78008F97938E9A938889939287808A8C7D7F97
:101E880080827B7172737375757C7D787F807E82AA
:101E98008283827D7F827F84878287848988848306
:101EA800807979817E7D787F84827C7A757B6E5F8C
:101EB800626A6A656F7A7667747D847A829190899E
:101EC800898E898E8F8F8E90898C92918087938747
:101ED80089868E8D7D79827E7C78787879737B800F
:101EE8007C7F717E7D7D7C7E86817E7F83848588F4
:101EF800837E8581847E828079807B7D7D7C8381E1
:101F0800727178756A68686A696775726E6A6D78E1
:101F180081838591938C86869391879096968B8FF3
:101F28009691878E8D8C8D8B8F8B8A7B7F84817623
:101F3800787B7976757D7C77757B7B7B7C818580EA
:101F480085827F8788877C8186827D82837978777E
:101F58007B7A7A777E807B7274766E6667736C6A3A
:101F68007174726E6D7A7F80838E918B8886908E65
:101F7800878C918F8D848D8D87888A898B8C888FAB
:101F88008681807D7E81757C827A777A7D7A7E787B
:101F98007A7C7C7F7F81857E808689857D83888029
:101FA8007B83857C7879797D777A7E867A71717181
:101FB8007264677874667176766C7079807E828ACE
:101FC8008E8A848990928792929289898E91878944
:101FD8008B8E8B898F898C83857B807E7C78827DB4
:101FE800777880807E7D77807B7E80847E827D8B03
:101FF80087807A83877F7A80867A7A787A777A79FF
:10200800867F797173716B66697971697478717596
:10201800737F7B7D838E8E84878A8D918D8F918B44
:102028008D848B918585918C8B908A8B8A837F8117
:102038007C807C78807E76787A7D7F767C7F7A7DDE
:10204800807B858480898782797A847D76777C7E97
:102058007574777F737686847A73757D766F747CF2
:102068007E7878797E757C817F8181848786838775
:1020780088858484838B8583857E80858A8C8C88FB
:10208800898887877F7C7F7E7A7E7E817C727A8151
:10209800827A787E8279798387827F86847E767C4D
:1020A800838279787E7B7A77827F7D7E878A7B7A46
:1020B8007E8379787F8485807B837C788181817930
:1020C8007B838581817E7D827C83847D82817D7A0C
:1020D8007F868482858C898186817D7B7A80807DDC
:1020E8007F84827A7A7F8480777E7E7C7B7E8B83F6
:1020F8007E8082817E81847F7C7678827F807F85E6
:102108007F7E83877F777E797C7D808380808381D3
:1021180083807F7C7B78737D80828086897C7F82C8
:10212800808383827779817A7E7A81828284879795
:102138007E7B86857E8286867C766F75746E787ADD
:10214800868C8A84958F8587857C7C6F76756F6A87
:10215800707C63696665879C888B9F9BAAB49F8CFB
:1021680081898D7D6C6E747A584C47596D5C71739A
:10217800779199A1B6B2B2B1B5ABA277607A717016
:102188006969534F494B555C79827779736C7893B9
:10219800A9A2B3B6A8A8A78D9DB1AD967E827B648F
:1021A800575E5562524651617B7172918D7B88985A
:1021B8008E7E92A49790ACA78D8C8C7E7E82777948
:1021C800755E535C575565757F7368646B81718A5A
:1021D800A196B1AB969CB1B4B1AF958D8D7C81833E
:1021E80077808C7B826A43586A545A63506F715D5A
:1021F800636C7C929096A8967E888699A396B8AAD6
:102208008A89908E8F9C897A6E707157636E677811
:102218007758446B715261706E746A5C8C8877A6CB
:10222800B089778E9BA5AA98AFA99DA099A69F9BD8
:10223800907B696C688782686A6454506D684E61E7
:1022480060516A605B638D837C878A8B8D8582A7EA
:102258009086A1ADA8B0939CAEA9979088788092FB
:102268008F8774577A886C67886B535B544E685FA6
:102278005B6A6063696068826E6590A95C619CA214
:1022880095A19F94AAA19CA99A7B97AD9D8B8E83BB
:10229800839397887D7359868F826D6479826F5C8A
:1022A8007179624C5E5F5463666B7F6B7488785893
:1022B800738E84978C796E909F9599A19FA3A6A8F9
:1022C8009A9C959CAB95989EA67C7B9B946F717C01
:1022D800797370708B83506F8175626C5956725F19
:1022E8004251545C64696755687069768873949F35
:1022F80074799C998593A89D7E89939A99879AB2B7
:10230800AF9EA69488A29D8798948092967E708F9F
:1023180085818774697B6D5872755F53646B6B64D4
:102328005869775A465769626A6E6A6865747F7A2F
:1023380080838694877A808A88919DA6957B8FA3CF
:10234800A19285A0B09B949799A2ABA4A49E8F93C9
:1023580082888D77839488736F74676275835F55FD
:102368006D6E6C5658676E766852546B634F5F5942
:102378005C62596E7E7E666D8D7F6B6F7D7988920B
:102388008A8F949795A5909EB59F8A9490949C95D2
:102398009D9695828D98A69A9797ABAB7A8EAD9AB3
:1023A800829D91727D836C6972767A857A78785A83
:1023B80063746D666958536A716169787F705A5E93
:1023C8007F7F516B6D57576D6B5D766D6A7B7E6E47
:1023D80071797A838079928E86929B8E84AFB4913C
:1023E8007F93A59B8CA5B48875A2A192A0A6A29D57
:1023F800A08593A8A9998D95A09276909F7A7293BB
:1024080092827C7C7D73737B795F637F6D576A7B77
:102418006B716B5659675F61686B69524C7D8B4F66
:102428005A817C5D526C78635D6E675A717E6C7000
:102438007E7F6B7D877C6D7B8B81888B897C899186
:1024480091819CAA937790AD94949DA79A96929D1A
:1024580096A8988C9EA28F84A6A3967F9D9F798626
:102468009F908D988A88919E8E7574908A7D8381BD
:10247800716A8E877684836B7280805D51747A6509
:10248800485E6F67637B6966625D72746C585364FB
:10249800735B5B636E706368755D647F71736C7D7D
:1024A8007B716873817382858B7B616987907F7A82
:1024B800928774777D87848F9AA99677889D998F5C
:1024C8009C9F99AB8D8395959B9CB2AB85869E9C72
:1024D8008A86939998928983999B98B49E888D9AB5
:1024E800998D887A808E997B6E8794798B916D69A6
:1024F8007E8E73727D8578867867787E7A7F765F40
:10250800656C75717968686B736C53627472677403
:102518007261646E6A696867627B7D545465757B15
:1025280083777178746B746A636B828B64607B9158
:10253800767982918984917B706B80959474778980
:102548008D7E7E817E8D978A81918185A1A48683E7
:102558009D978883928E7F95918993848994958895
:102568008293857A8A958A909F918784908D89989D
:10257800867F837D908C8995898F948D8B776D8CE0
:102588009173808D7771838A7E85998C8A877A7812
:10259800868572787776746D6875747C757B827FB2
:1025A800879385717A857E6776796D5E7B7D6F6BA3
:1025B800787A74737486806F697274766D7B7673BB
:1025C8007D85816F6F777B79817E77827E6F7B8156
:1025D80083777B836E667486786F84817F83818A34
:1025E800918385947C77897F76757A7C808D7878DD
:1025F8007D70818A899593828789838F8D848E8562
:10260800758295816D857B6B8B907A8A928980849F
:10261800867E7883888A897E877F81856F7D9A7890
:102628008897717A90817C918878777E7B736D74B6
:102638007E7173938A879C928B8886907E78757159
:10264800786D7882636E82707F938A88938A8E8D84
:102658007E81837A7D72767979737A7F717E8A8FAB
:1026680083928F7B737D73737877748082818A7F7E
:1026780087777E8F8F898683777477737E796E727A
:102688007D7C7B897D7A7380977F8B8B7D86837B2E
:10269800787A8281757A7F87877F737C726F797881
:1026A8007C76888E84818D8F838E948679868576D4
:1026B80065636D707A7B8D81808D8E87848C8C7B31
:1026C8007A897F6C687D747382888081968F928DF9
:1026D80090917578716E6B67747A68707A88898161
:1026E8009CA8A59298806C7C7B77696D75747276CE
:1026F800747A8A8996937A8F947687807D79777FA2
:102708007B787B8B7D7B85968382867D6F85836CCA
:102718007B7B736D76787F73768B997887887282E6
:102728007E7A7B827181897794939B8B819366569D
:102738006C777D887DA1937E8FA194959D9A8A7DE3
:10274800956966726F598B8A7B7E766C6C80868EF3
:10275800868A9AA072866A6C7476676A8579868C8E
:1027680085728E97908C8154514F5D5A64596A6F67
:102778005C7C908793AA83AC9692A0897C817F9099
:102788009080886B778077929F95A9A19691857C98
:10279800827D746D6A776C6F6876696692868D89BA
:1027A80081747E7C7D8286928F899397828A7372E8
:1027B8006C7D8698817677717683847174566460AF
:1027C80057696654766D6E8F898B968585958EA12F
:1027D80098989F8C95907D8D83918D758283839435
:1027E8009299A890978D857659686B7C797A6960FB
:1027F8005B596F70828B7D96987F8D7D97949C9B9B
:102808009D8E84815C62626C7F9395818B97606CEE
:102818006776755E6C605251665C6D7E6D7D9394D3
:10282800977D9691989F9F978989808E79869080C9
:10283800888A88908A8D9CA1918D847E7A6C636841
:10284800757366726B717165686E7F888F8C958100
:10285800818C9A9C9C8D988784895F697C6E7F9A0D
:10286800808A89717E78616C636852636364566A92
:102878007E787F6D918B8387938B8F869892A38DBB
:102888009090928073977C8B79847F919C987F8EAF
:102898007F7C7E8C6C69836B87627355736C637BFA
:1028A800797F8E8E8C8A8D9794A98D8D7F8A7E7B79
:1028B8006C717A6A838483898C878577705A65639B
:1028C8005E5D6E6B66826C80747C8C87969A8F874F
:1028D80095828488948F93928F79827D7D9183915C
:1028E800919997946D83686D81707A7D746F716723
:1028F8007171828A8A7C8C637C7A6E887C92959EC0
:10290800978C927E85847CA17E8F7A76706D8163A8
:102918007B7B656D566C655E76618A768580767997
:10292800737C81869082969485AD89999EA88E89BC
:10293800856A807E7B838E949789867A87787A8A5F
:102948007797797967635E628468837F7E76867716
:102958007D82969BAFA4909F7087657C6F838575F9
:10296800927C807970746D7D83577B545C6D5B7944
:102978006B7478818093818B9683948C9789888AED
:10298800918D91998B8883848E897D998994967489
:102998007B85727E7374876A727F75696F81887EA2
:1029A80081898A72796C72878691919391828B93CF
:1029B8007C86818C8380736D806C71786B75726096
:1029C800795B5A64757C637E7B8F767D8A838E7D86
:1029D800888A9B8A9096A3977C9798878187898312
:1029E8008281808E7C818685867A7E8182746E86DD
:1029F80079768276886B778B80797776828C828EEF
:102A08008F8988797C99818288956D6F75758471B5
:102A18007C7F84666E5F555F645B838478796E80A3
:102A28006E837C949B8C8F898D878B869192888FFF
:102A38009E8C928B7C8E828385928080787580783C
:102A48008B7B7B7872777E80758A7E7E8C6D7C81AD
:102A58006778817F857F84828788858F8B8E818147
:102A6800887E7C6D7B7960676F76716C666F6E5C53
:102A780073757172727F7F857D85978B838D929434
:102A88007E8E9F96918DA58E8580828C8C8D898E69
:102A98008678788584817B8D88797475796B7B7A63
:102AA8008185807C8082767A79888A80828A7E7C19
:102AB800808F8D7C7D7B827D7A777F736F71746E5A
:102AC800706A6B6F5C686C7C6E6D78788386868ABA
:102AD8008B8D8C8C9B868C8995937D90919C85821F
:102AE8008C8381928B7D8A838A7C7D7F7588827CAA
:102AF800817880827578727A84818F787E877684EF
:102B080089747E9383807F7F8382737A7E777782CE
:102B1800776F78686D787763697E6E66726E6675B2
:102B28008082838A8B8E8C85878C90888F8F908FFC
:102B3800848B928C828F978C8B897C7A858C83810D
:102B48008A898483827E797D81787A777D7C787F93
:102B5800737683817A887B7480878B807F8F8B7B69
:102B68008673717D717B8472777668705F6877751C
:102B78006E6971646C757F7F7F8A86898E86858E83
:102B8800888D8B908C87908B8C8F8E908C84888589
:102B98007E848784867F8383828480857F797A7E1A
:102BA8008174747B827976867E80797F867A7F7F4E
:102BB80082827A7E8385827779817473827F707648
:102BC800767B797278757775737B827D8085868A46
:102BD80083828C86828480878484858086848289A7
:102BE80089877F7C837F777F8A817E8688888484B3
:102BF80087867B797B808074718381747D84847BF4
:102C08007A8686817D7B817D7D8088817B7A7D82C5
:102C18007B7B8586787784827D7C7E7E7A78777DDB
:102C2800858181848588838185807D807D7D7C7F89
:102C3800777B818283848481807E827E7C7B827C98
:102C48008384848C87848581827D7C877D75787F69
:102C58007B7F7878837F7E7F7D7E8180838781817B
:102C68008982807B7984797B7A77807E7E80858271
:102C78007F817E7E7D7E817E7B7E8481847C7D8556
:102C88007B7D847F7D8081827F7B7F807C83847D48
:102C9800787C7D7C7D86828189908985827E7D761F
:102CA8007C7C777B7E7B847E7E848F888286807A1C
:102CB800797B7B828C89706D7981706A615C5372D3
:102CC8008F8D999DA9B2ABA8AF8C93918F82624FDB
:102CD80055594D5B6377746E78979E8F91ACB3AD01
:102CE800ACB3AE96836C645C646C66504E555D689C
:102CF8006E757480705B648094ADBBB4A49BA5AA08
:102D0800B0A7A29A8B7F79746C695C505C6C5C4C40
:102D18004A5559636C75889393929FB3B59D9F9557
:102D28008C7E85928A8C8A77535568847562565A48
:102D3800665D556791896C698795A2A8A99D848A63
:102D4800A1BBB2A7A8A79F91888C836F63585A5BD1
:102D5800666B66574F54647177736E746F6D7998AC
:102D6800A19B93A0ACAFAEB6A57A7F9292989A86B3
:102D7800868D7A666D746C51494B5464685C534A0D
:102D88005A757B797B8288817B8A979E9E9EA7AAAB
:102D9800A9A99B917E8196A19D9C91918A6F6F7A3A
:102DA80078625151656A656156494C6172706E6FFF
:102DB800757B736C859E988D8A9BB6BBA591808B1D
:102DC80098A2A6A6A09DAD9C808392897668677715
:102DD8007D715A4F57576973626262686D5D5B6DAA
:102DE800727472757E93A091737A8C899CA49F9E4D
:102DF800ADB3A5A0A5A5A59D8C94A5A38C7265715E
:102E080075807E6D666B5E5C5E5861605E5955606C
:102E18007A6F5A4B5066746C727E7A8A8D8B8C9B53
:102E28009A9A928897ABB2998492A6A5AEA6949BDB
:102E3800A49C96908C8B8F8F6D66829175564B5A99
:102E48006B6863605A5B6A665F5B6567675F556A54
:102E58008180605A6B747A86857B888B88908D8F89
:102E6800A4A29C9A9DAEB2A1918991AA9C9F9F9180
:102E7800979894958E8D95877A787E86826C5A611C
:102E88007B6F6261635F626257585E6D5E53515734
:102E98006872655B535A7475737971728C94918EEC
:102EA80096A39C908B97AAA8A194949DA1A5969F60
:102EB800A49FA1A5A4A1A59C949398968D848072A3
:102EC800686A76706F6D545B636C6B626D65595898
:102ED8005F6260604F576967625B636F60626A7ABE
:102EE800837F7A7B8170818E8B8282848C99A29A6F
:102EF800968A93B19DAEAC9DA4A68D8EB1AC9F8FE2
:102F080098989BA49D929488879593958288877FAB
:102F1800777D817976675C616D736C6061526964F5
:102F28006373686A62595365796C49536A61607260
:102F38006F615C666F727D7B797878757F8D91881B
:102F4800787D8F94979D98908592AAA19DA8AA9B19
:102F58008C93ADB3A39F8F89969FA29C9C8C8089EC
:102F6800999C989E9E8E7F8EA39F7F6C65768082AB
:102F7800826E66566A6D6571716E656356637A779F
:102F8800654D52606E746A615D676B6962637F7FCD
:102F980067606573828161585A60808282796F7335
:102FA800828C8691999F8C838B94A6A7827B8F9D18
:102FB800A5A4A18889959B9AA4B09E969E9C9CA343
:102FC800AAA49486899999939A8F7E898F8E8983EA
:102FD80080817F8789958C817D6E747685868272E3
:102FE8006E707577686360677A7D655F5556666C45
:102FF80057556F6B6B5D616A67656A6F626E7B8040
:103008007D6859636E786B69696B6F6D6E708477D4
:10301800808072838E9B9C756E7F898B858078807B
:10302800889B98887C8F9E86919E98AFA7867B897F
:10303800A1A6A89D8E8BA2AEA59196A1979B9E94C2
:103048009AA48C89837A879F9A8D827C8694A18A98
:103058007C80848C938F8C7E72716E737D78817C7A
:10306800665E6B7E7C797D6B5C85877C7269666148
:10307800686C66657F6E616167677276665E6172AD
:103088007C836A525566756E6B797C717676636F50
:103098008C886966778393856A60707A78777C7E96
:1030A800857E7E8C7C758A927C7695A79D8A766FC4
:1030B8007B858A8E7E8A868996818B968F8D828F74
:1030C800AFA39A8B75768986819392887D959B8C20
:1030D8008E857B7A8D9A9E9E7C767C6C848D8A8D7B
:1030E8008982888D8B9A9576727A869CA1846B7D6D
:1030F800746E747E867D807B7C80879A845E637D17
:10310800949E94776A676B797070787C7572757D18
:10311800908C6A5C6B879E967A6367676B6B6B7142
:1031280076797F75738591775C667C938B8D6F5C00
:10313800646F7D71767D837B787B8290816C686C0F
:103148008B9C887D77746976777481888C72818B83
:103158008C8D6F697E8F9BA08E7A73748281718249
:10316800878A85848C7D88866A729A9E9C978C78DB
:103178006F79808179828D8A818B878B836C738D3F
:10318800909B937F7F69798579868E8286848981F1
:10319800797D71727D9091908386866A6D7D77784E
:1031A8008D8C6F7C9576797A767B88928C898195DF
:1031B8008461687C8B8F84746E837D6F7669728C72
:1031C800998C909D8A826C6A78868A83746C8B8AC3
:1031D8007A71676C858C8A878A77869163798C8403
:1031E800877D72839077635B6C88928479919194E0
:1031F80094705E6C757F7975889682636D75848F1F
:103208008E7F86A098847464657C838F896D85849D
:103218005C5E66739AA18E9399927977806C788BAD
:103228007E7375918D636A718394978D75777C83AE
:10323800787C8889827781878D89796F677D9B8E75
:10324800786A7784818D8975808881726F8797887D
:1032580078707C8C81817E7B7E8F8777757C8B8074
:10326800817D7F8B90876C6C76817E82887578787B
:10327800645A70818090978999857F7A5A697A997A
:10328800929283918A6A7C7483868E8A8C837F83E8
:1032980083788DA99B9C857F7368727C66849F91D7
:1032A80092A38E7C7F71766A82746F696B6C75826B
:1032B800726C7588899A94899087757375878379F4
:1032C8007E6B5C62625C595F736B74777E8B868DF4
:1032D800948B76878F8F97939A989083827E899420
:1032E800908C929590A0998B81887E716D7471678E
:1032F80070636C7474828684858D9897907B8174D2
:1033080073897F8D7C7E786D7C7B868A8D858283B0
:10331800888F8A88786D5B4B5F6B5F5059646666EF
:103328006B7B8083838B9F9EA0AD907B7A88A294D1
:10333800898B85849A9A8DA69F909B9C9E8F989A3C
:1033480077535A616C755E6662737D6C6B867E7F9F
:10335800968F808D9B8E8D716A7991877571869114
:103368007F8B887F7A8E8A87868896825B545C6595
:10337800655D696162697476807B7D94989C95959A
:10338800A291788A878480857C869D95979C998E62
:1033980092969B8B92937B60605F6771656C61739B
:1033A8007A767D85767A918D8B948A878A758189DC
:1033B800837D7E79767E8B898F8D7B858C968D80BB
:1033C80077685451615F5A6A755E6176707F92833F
:1033D8008198959592958B7A7E8F8B7E908B858739
:1033E80094969BA59F919996908A8C79606758616D
:1033F800606674786E717879848A879695879585E2
:10340800898E8880817E7878838C7C8388868D9469
:10341800888B8C847C7776665A56615254676B68C1
:103428006A7471838B858D968D868993928D91921E
:1034380086838688928B8D929A95919392888683BB
:103448007770717569706A61637076697181818757
:103458008C8B8D8D8A888B8F8E858C857979827CF3
:103468007E797B888A8B868884816D6E6E646369B9
:1034780067615E6066686D707E8383868F898F8ED4
:103488008E8C909899938D8F898B8C9186898D8F4E
:103498008F8F8B8A8C847677726C75727673736E65
:1034A8007B7876777C81818381908B838A8B8788F0
:1034B80087878681838A85818080837F80807B7AE5
:1034C800756D696C61626B636D67627374717B7F24
:1034D8008285857F8F948A9291978E898D8F888A2D
:1034E8008F898D8886878A88848C888278757A7394
:1034F8007278787371727B78737A837E807F818A21
:103508008A8583908782898986867D7E8179767F80
:10351800817E7F76817C736F6C6E676D6D686B677B
:10352800676E767B797E868582868B8F9091949460
:103538008D8F92948F8D8C898B8787918D848B87C3
:1035480086807C7F807A717A88776D717577787FCD
:1035580077797B727F8C828C8B8D89868F82838B27
:10356800837F8081867C8778707B6F7376706A67CB
:103578005F726F667672646C6E79757C91818481F6
:1035880092928C8B828D9C98929998877B81848764
:103598008399938A7E7E87797B7479868C8C7F79F0
:1035A80073646E767D7D84887B706F7D838383846E
:1035B800858C918D808879747C87817C7D7B7D6DFD
:1035C8007C77776F6C6265787373786F62637485E4
:1035D8007981858688888E8E86788D8A8FA89A9C30
:1035E8009D7E6D7B898894948F8E7C878B7B757E7E
:1035F80089858A8B7D77776B6877858089827474F3
:103608007289857F83828386918D82868172817893
:103618007A7F807E796B6D866A6E69606D7376726B
:10362800756C636E75768581878D81818C878490B2
:10363800868D8E989F958D77818081898A8F9385D5
:103648007A84848187857D8B83817F7E716B7B748F
:103658007F8584757C7874817E828A807F8A849055
:103668008D7E70787B767B7D7F807B7275707E75B2
:1036780061727066797A726E646B757C7A7E857D0C
:103688008989808C8A8790949390A4A87F81867C6E
:10369800878F888F958085868087887C828B7781C5
:1036A8008F7071806E737B827F7E84777F81828A40
:1036B800827F7F85898F877476806F7081727A8820
:1036C800766B726F7C7568666873767D706E736FE3
:1036D800727B7875878C8385858C948D918C8F9877
:1036E80094938C8987848B8788878C8D8688888932
:1036F800857F7A7F8281797C7C7A72707A78797D0D
:10370800817E837D83897C7C8288877D77827B79B3
:1037180077787B78777F807577757B766F6E7A7E22
:1037280074767B7C7C797A80797C838382838486B7
:103738008B85898E8E8B81878E8384838084838713
:1037480088898C878384837A81837E7F7C7E847D4D
:1037580074767A7B7E7F7D84807B7E7E8484868877
:10376800817D7C837F75777C7F7B7D7F7D7F7E7984
:103778007C7D7A7D837D7B82848C807C82817D7D4B
:103788007B7B8282807B7F818485847A81817F852F
:10379800797E7E7D7F81838A8C847C7D7D7D807D22
:1037A8007F80858285807977797D7A7C84877E7829
:1037B80078808687858283867F7D7E7879807F7E04
:1037C8007C7E857F797A7A7D81807F8085838382FC
:1037D8007E81807D7E7A7E807D7C7B7A7E888584F2
:1037E800817F807D7B7E7F7F7C807E8387848B80CA
:1037F800808386847D797F7D808080847E7C7E7DC9
:103808007C7F80857E8080838781808786807F7C9F
:103818007F7F7F827B665B56605C6E888993919917
:10382800AEBAAB9A8B8B858C8756647051515553C1
:103838006D7B717D7C9399A3B8A7AAA2A898A19241
:10384800777E7F7B64594A4F555954646367727019
:103858007370848FA3B7B2AFB2A9A5A09F9C9B92A7
:103868008B8376726853436B634B5E5A788C695FBF
:1038780077797C969191AC9E9EAF8C889993928A29
:10388800756D7971665B4E5164615D615D67766BDC
:103898006A838C898D9BA6A9ACAEACB39C95979690
:1038A8009B998A8A8C7B7567625C675F515B6858F5
:1038B8005E6E725B6479769B786F8A939893979E15
:1038C800A4A0B3B3AFAF9290908789817F80756DC4
:1038D800675558624E484F4755635A616975807DF0
:1038E8007F88868A8E9493919897A6A0A9A59A9D79
:1038F800A49F958E7E7973858276786C6767635A04
:103908005C6851596B5B636D7C80747274828C84C3
:1039180081918B989D8896B2A0A8AD949CA29C8C0E
:10392800A487879A8B77848A78897460625C4E6EE4
:103938005F515E6D6254565B6E5A576D7A727D792F
:10394800808B959AA5A288A0B09996A297A19FA0CE
:1039580099A09EA49F888A7D7C777F7974857B67F0
:103968006F66676D5D5158595A62575B64686D7828
:103978006F68736E687E867D7F808A94979FA09C0F
:10398800A299959397A99B98AAAB979298918D84A1
:1039980086868084736E7E7B777B7B6E64706C64B6
:1039A8005C5A5B4D5458555E6E6C5B6B6F6D6B6A01
:1039B800806E7B92858F908E878E95959C9698A227
:1039C800A2A5A8A1A9B5A798A3A19F9A97928B94FD
:1039D8008683838887807A78736C6A68665D696E87
:1039E8005E5E5E5453585752545B58596968627604
:1039F8007E7174797D7E7E7C7985888A8D979B9C83
:103A0800A0A3A59DA3A3939BAAAAA8A7ABA1A9A27B
:103A1800989D9E978B91898E8A8381797B6F6D7033
:103A28006C6C635C63656160616066685C5C5D5773
:103A3800534F54586164615D616368676F7B787345
:103A48007489928A849395979B9C969B999E8D9551
:103A5800AAA09DA4AB98A7A4A5A2A49994919FAE4F
:103A68009998969B91918A8A83847C79847D6F76D4
:103A78006E5E72695E636E59595D5663615764671D
:103A88006267655F5F6158615A6A75685C646966F8
:103A98006F70717275767D7F8F85828C909A919206
:103AA8009F928C9E9998A39E9AA19FA6ADA3A1AC24
:103AB800A18A99A69A9B98939C989E9D939D9D9464
:103AC8008E8D938F80877D6F787F7D72676A6E6C2D
:103AD8006A6A665D646965616C6A5F5C5A6C606598
:103AE800646165625E626A626761686A6764757369
:103AF8007469697871746B75787E70788A8B828541
:103B08008E8D8F9A998E868B9B958F91A79C95A762
:103B1800AA9EA2A5A1A2A0969EAEA19E9296A0A49E
:103B28008E899D929093948391968B8E8C818C92A2
:103B38008286887A80907B7B766A747876736767EA
:103B48006664675D6D7A6462706A625C6064615A1B
:103B5800646A6D6169625C676A6A6D6562696A66F2
:103B680059717173707A79797D747B7179797687F7
:103B78008A758083867D828C87828790828F9692D1
:103B88008E939B9F9793999E91A1A199A7939F9A92
:103B980098A2A5A0989189999B8D97968F9DA3939C
:103BA8008B9086928C8A8B7A929B847B8285808686
:103BB8008379727486767279737D8A7E7A82747A52
:103BC80072646C6E697976696C6F6E6D74656A6D16
:103BD8006666696B63606E7564656B6D6C5B6A7C49
:103BE8006062786E6A6B6A717C766E6F6D716F6FEA
:103BF800778079768B786F828277758281858F8CD2
:103C08008183837E868D88837C91916C7F9385895F
:103C1800A1978B9F9D8480908D898C939D8D859A8B
:103C28008B8098908A918C82868F83888D8C8E8CDD
:103C38008F908A858E907F87988A858C8A82918ECC
:103C48007C8185837B7E838F86819A846B8D806857
:103C58007D807D7D84877F78848179798387827D63
:103C6800706A6A747A7F71838188846375796F78E2
:103C78007775827A7D736E71797470716B747476EE
:103C88006D7372748176717E7C7C77717C6A6D83CA
:103C98007674827B7E79727D7B7075757A8587876D
:103CA800717F847474827F787F8C8A8182898B7A11
:103CB80084858D868982707C7478857F82899393C8
:103CC8007B858680848685808C968583857F7980B0
:103CD800857E817A85837788858382818C868F8F9C
:103CE80084867B7C817E83838B7F878B7C7A7C74C4
:103CF8007B817D9487848081746D7E7A7E79858CC2
:103D08007B81908880838783878B8C7671776271BB
:103D1800787F8A827A858980807F817C8482938576
:103D280081877B767081717476737A807E827982DE
:103D380080788A8F8C80897D7B776976817B7B858B
:103D480085817A7F80758487898A84827D6C677093
:103D58006F767C817D878E81808C868C898D8F8221
:103D6800766D6A646870857D80878288948D848288
:103D7800877E848873837D747A796E72878380875F
:103D8800879A85797F7A7169878F7D7E8C797B8127
:103D98007C88948C8C88807F77756A716E7E888722
:103DA800918779828E7C838D7F777F7F7C766F7D0C
:103DB8007F808798958D84817A697B74747E7B7DFA
:103DC80082868A887A7D87657D8E839687937B7CB9
:103DD8006C707E6C7B6D666E7672808B89A4A28215
:103DE800717B765C8494888F8B727C7581969984BC
:103DF80087966F7F86867D7F739C8B768487869A6D
:103E0800A67F948F89788A7A8A92827E8260527895
:103E1800777678856D75807B6F7E83947D80A58DA0
:103E28007A8D907F8191926663584B545E535C6C97
:103E3800686B837B758A86989C898D988B8E87841E
:103E480089848F9B9D8B8689959B85908D7E7C7AB6
:103E5800778C8C7F8D8B7969745F6178838C8B8E7E
:103E68007B6A777172818D9397888092706F888E44
:103E78008C947D7D88758A837B8C83889474735C2D
:103E88004B645A52756656736D8784818694A28AEC
:103E98009FAB8C887E7F978998978B909D8791910F
:103EA80081A081929B6C79957E8E76576D686D8422
:103EB800737787708185827A6F697D88979A8D7FFD
:103EC8006A736C8E998F94867F8891867C7A8883B2
:103ED8007D8E776B775B46564F55716A8385707117
:103EE800898B838D808F949BAF8F7D76698092A21A
:103EF800A6AC857A928C908A7F7F7B78858C8E7B26
:103F08007856647D7E796B8C79697D7967828D7A44
:103F18006D8E8A819C9B95726A6E8A969C8F777D3E
:103F28007482948F7E7B74707B837B6352474C5A78
:103F38006C79897A777E6B8BA18E818A84A2A27C28
:103F48008E928B8183908695AB93847974809896B2
:103F58007E786D70928D757A6F6462737E7D8392C0
:103F680085695F8DA86B71907E92A39481828D7410
:103F7800738380879AA3978C6B668081887568673E
:103F880063585056596061768384A7836186818619
:103F9800A09586918691958A99938793899C8F702D
:103FA8009192897B7E788181867B6F756E797A6F35
:103FB8007E8C5F6E888D8785817B6C73887B8C8512
:103FC80081858A939773709B94788A9C7A91926B77
:103FD8007076747E755F645F4F50645E63757B7B3B
:103FE8007B8880978A71848F8C9DA97E7E8B92A412
:103FF80092889F98968B80878896806C879078792E
:10400800777072707A7F71787E837F7979838E83F7
:1040180080716B808D8B83818289898686818E9160
:104028008B82839A8A656C7C7B746E605B654D5964
:104038006563637A857D8F7E8294817E8F8788937E
:10404800908C888A8D8F9B96879E9F78808D8C75A3
:10405800727F7C87827C707E7576786F878B7177AC
:1040680089718090736D8A7974847679848679856C
:104078008A7D91948883888485847C817876766F1C
:104088006B6D6B674F5670726F70766D7F9A807626
:104098008D8B7C8B8E89A0888AA68D89ACA08F8316
:1040A800858E847A7B89798683867B768F88726A07
:1040B8007F7F7E857B6B7C867A768E8B757A67842C
:1040C80099817183827A9A9384817E768C7E7E9799
:1040D80073678B86646F736D5D696B6B6968716CF0
:1040E80066778C827E8895827E87938A98938B9850
:1040F800A1988B9A8D7C7A7C8CA0786D7B8C7A7752
:104108007F80847E89818278786C67809D896F76CC
:104118007F74808C6E7A898C898B848F7A5D82A675
:10412800926B6B7C89797C776A73717989756E6D0E
:104138004E58788A75695F738F877F7E85889698D1
:1041480097A992777C80B0997989837F88888085C0
:104158007D868B8D97896B7B7B87936F70787D7B52
:1041680085716E837F868E8E8A726C7F8196877446
:1041780072808C8486827472898E94826C6D616A76
:104188008D785E62736A677D6764747F788F8F74D9
:104198007D807F96A2797A8F93988C85948D8DA255
:1041A8009F8971837A75A0A172677E828E80837AD7
:1041B8006B81939C816E716B5A919B766F71817C38
:1041C8008482787384929F8E7B7D6F6F8B956F6FDF
:1041D8007C8077797960766F8B905E5E6A616086A5
:1041E8008B6955727F8D8786858696A5A1848D8378
:1041F8007C7AA0B685757F7B808C87887D78A59D25
:104208007C7E7D747391A17367827E847672746DEF
:104218008FB58F6B817E666C9294756D7387927A79
:10422800848361819F8880796F616D888F73585905
:1042380069696A7C69677D9271697A837679ACA7C6
:1042480080647D938F8B8E8589A4AE927C877666F9
:104258007EA5947A75787886917F8C797E958D8203
:104268008C77556D838F8B786C7478867D726A81B4
:10427800917F88987C5A7F948D7967617B8B758252
:104288007A678684728B83595E7281947C666E68C5
:104298007E93948C8A9080838D967F637691A1A477
:1042A80087736E78898B767A8E7885989573616E28
:1042B800939E898271707F83847E7C7F70879A99B0
:1042C800826B61698A8F7C656D82918A82867A6148
:1042D8007EA1967F6F6C758D86796A727B898C8BCF
:1042E8008C6E5F7BA193837C6B718C938A756970EC
:1042F8007F8D9292736686968E898970648298857E
:10430800686D78807D919D796B8A9F978183755EB2
:104318007993857575737D7E8E85635F90968886A3
:104328008C8661789A91747A7B7E7A8E86645F82B5
:1043380093828C92835F75878478747A757E9B8B61
:10434800626D898E8290968A6B717F817F7C77738C
:10435800888C856F7087857F9591847A7A827C872F
:104368007F807B798177707A8A86858A8E86727556
:10437800796D7F877F838A8879787E7F8086888D2C
:104388007A717B7B6A6F866F6B63605B778C8691D3
:104398009CA9B3B4ABA27A717F8A76756D534B55DD
:1043A800565C79798489878D9F9B9CA1ABB3A58C3A
:1043B80086848C85746C6B684E56565B5C615B6753
:1043C80079706A6C7B8FACB1B1B5AEAFB2A7A19A68
:1043D8008790A7906F5B504A505253504B4F5C6E7A
:1043E80070707175869D9B969998999E9C9EA192D6
:1043F8008D80848B7C72626965594B52606B7572D3
:10440800717579707C8C908B9C9EABB4A79A9CA399
:10441800A2A29FA292887871707065625D575C5500
:104428004A5059606B6972797F7E89888A98989D0D
:10443800A9A5A4A3A3B0A19D9E93878A85787E761B
:104448006D5F5965645D5A5755595C525C65616E7C
:1044580075737F85868F8F91A0979BAEA1A6B2AE0C
:10446800A9A9A79D9C99968E8580716D665D5F61EF
:1044780061594D494F59535767656D6C717C8282FC
:104488008381879291979C9BA4AEAEB0A5A8A99969
:104498009BA5998F8A85817A7A81837B766A6B68F6
:1044A80057525758585555535A656A63646B6C751B
:1044B8007F7F7A8C909997989F9B9CADB2A6AAA76C
:1044C800A5A09E92A29E9293888584837B75697825
:1044D800786D6A685B686761624F5253575A665FC6
:1044E800666968696B6E7D7C738B83848D8F9CA5F0
:1044F8009BA4A699A0A9A4A1A4A6A3A7A0979899AC
:10450800998A8C81828277656D7B74767166636423
:104518006A766260635A4E5A585064686564676880
:104528006E727A7877848B94938A989E8F8F9296FE
:104538009E9A9A9DA0A5AAA8A09E949B9C9C9C9597
:104548008C868683868388837F7676786F726B5EA7
:104558005A65675D5761635C4F4E53566059565FA5
:1045680076726D737573717B7F878A8A908C7F9260
:104578009F989DA29DA0A2A7ABA7A3A1ADB0ACAEEA
:10458800AAB3AA9A989797958D878980847C77771C
:104598006C6D70655E6B6365605E5C5E5B566155F5
:1045A8004A4B53585947515F5F5D616E767572701B
:1045B8006F8185827E88928E94A19B98A5AD9EA0DE
:1045C800ADA3A1A7A298A5A1A3A49E9F999AA199DA
:1045D800929EA39D95968F91937A6D797577746F56
:1045E8006E7464686D66675D645C5D5F69645A5784
:1045F800635F606A625B666B5364655D5A6369609A
:1046080062747A6D697073748080878F8D8B978FD1
:1046180090A095959896989AA19C98999FA49EA8E1
:10462800A4A19CA0A59E9FA39C919D9F9D999197B5
:104638009D9291918F8487887D797A7E716B6D6D5B
:104648006769696B6E635D686761635F62695B5028
:104658005F5D5F5D5A65666165686A5C606A6D701A
:104668006C736C6A767B76767381847B7A86867EB9
:104678008183888C969796929F9898A0A5A79A9BD5
:10468800A89C90A29D98979B989398A299979D967D
:104698009B9B96958D8A93999593978B7E80938E05
:1046A80087858B9384877E807E7A76787872716A24
:1046B80067676C656166706968666567625C616793
:1046C80060635E545B62585F5E6369646C6F6D6AB9
:1046D8006C6A6E737774666D7D75737F7D77808481
:1046E80082807B828483808281848686918D8E9A63
:1046F800938E97959DA1999296939CA096988E9A41
:10470800A29C9C9C9B9EA49C939698A1968E9A8E04
:10471800868F9A8E8997918D938F8B8A8A838080D2
:104728008585807C73797C84897A7070757D7773D0
:1047380074716C6B777268696768666268686A6DBD
:104748006B676D696C7368686B6E60676D696A6FBB
:104758006A61667370676F716B6D7878716A747B64
:10476800817E7A7A7472818878787C7A7883887F77
:104778007D83827D8286898A898C86868B8B8C88CC
:104788008E8F8988888E8C8B918E928E959B8D8743
:104798008B8A8A91968981879299978F898A868E42
:1047A80093918A8787818692888383898A727D8D8F
:1047B800858087888182898483868F837C827E85B1
:1047C8007D81827A7E8580797677777780887E7218
:1047D80072818C7C7B8171757C797A7B76686F7C41
:1047E8007B766E6C767773676C777873777C747783
:1047F8007576777E7A76747A77737A79777E807C25
:104808007C7A756F7D7F7F7B776E788D84727B85F0
:104818007A7C84888584737C8682837E797D807E99
:1048280081777884837A868A847C898E878884864F
:10483800888D7D7D8B8483857F86877B767B898F3A
:10484800838684848F8B84817D83857E86897E742C
:104858007A808488847D7F828484807A7B7F757E59
:104868008A827478857F7F84868083827B8B858229
:10487800827D85897F7979778C8B7975808B848225
:10488800847D7B7C808586827D7B7B7C787F7E7542
:10489800787B8080827C69788981837E7E7C828433
:1048A800807E7D7F7F7A7E887C7E7A7B88827B8013
:1048B8007C7B84897C7D87837F7E7E74777F887FFD
:1048C8007F807E80797D7A7C7C7A7D82837F817E01
:1048D8006D7783808480787F867C7F8180818186E4
:1048E800847B7B81807881877C7C80828187867FBE
:1048F80082808780777A7E878181897D79807C7ABA
:104908007781837B7981827D7A898073898A877BA5
:104918007D7A807E7686857F87867D7D7F878C8879
:1049280089807081737B888E8B6F716E827F918591
:104938007E98827F675765817B878F64687A8080DD
:104948007D7B8F9093A4A29A7F725E6F8490857B03
:10495800877A9A9A785D80786B8394A28B867C811B
:104968007F9A8F8D89697A8E897F74606F8083A220
:10497800A49E94737F7A877079676D8C7F81696252
:10498800657B7596967E717368668E948D8F8D8221
:104998006B5E7075849A9B9EA387777E7275817112
:1049A800737B6E645C5362655B5F7D848A7D7E8702
:1049B8008693806F5E84A9A4A49184807994999940
:1049C8008985889D9D998D7F6A5E7E979A85876B7C
:1049D8007696AB8F8C78637A8E867D846067637CED
:1049E8007869796B7F8493898A8A807C88937A79BD
:1049F800768C80968875636E8587A18F9386828C66
:104A08009DA27761636B909C8D878F767089839167
:104A180077637771625B786346535467807B7978F4
:104A2800776F7E8C857779898F9D95A19B88828108
:104A38008D989B997A8C9792AB997C686E83A29B90
:104A4800837B88948B9399806A7268717A6D756E8E
:104A580066505C6C8C83656E858D83948A7C5E69F8
:104A68007B868A9B9791857A8095A48F73709E9296
:104A780099AA96635A717E8C848A8C858591908CCC
:104A88008C7866777D7A7770674B52636269726F4C
:104A980078828485857D7381817783938C9F987BC9
:104AA8007D788A9287878691A0A9A281778A7E6D70
:104AB8007B8D878A8E76828F898880747C788187BF
:104AC8006B555A70716765737891816B75808483B3
:104AD80079737C919E8A8C8B807C99907C728B9E5A
:104AE800908B8D88838C8477748C8683888B808266
:104AF80094A37F63737B777679655D5B6965716B7A
:104B080057667A826F778B8E847477787D939B85CE
:104B1800788C8D969C857B879696888493989287C7
:104B2800746F7C8690857C7A8C9B8E787274748086
:104B3800767677767870635662727E6E6F727D8F46
:104B48007E74798283898F9081879395856C7B9217
:104B5800918E96868F878992897F7E8A8F867D82BD
:104B68007F8C8272767F7C80837C6960666B5F58FD
:104B7800657268617166788B807382797E99A38A81
:104B880076808E8E7E8C918B8993868798998E8B72
:104B9800857C889C947C7C7D887E7C888A867D7DCB
:104BA800767C7B767674625D7C89715E6A6E6F75E1
:104BB8007B7F7E80807B7D86898989888084A3A08D
:104BC8007A7C8781848E8E928B7B82818085878395
:104BD800847F788B9A856E7A7776827B767469641F
:104BE80062646E6C6969726A6D898977747A86897C
:104BF80087919286868989929291858A89829CA5D5
:104C08008C7C8081868B8585887D81807E8A8C7D61
:104C1800748679769A8F676A736E777572776E6A1B
:104C28006D6A728483737B7F7D8D94857A7C848999
:104C38008E8C8C8A8285888A87948A817A7C8B97E5
:104C48008A74777F887C83828078767777747B8193
:104C58006D5E5E707A816859697A74737679797D48
:104C6800858A80838F8D8C7486A3A289817C8598A0
:104C7800978E87888C908580858C85837A868B84AF
:104C88008E796579897A7D877770747D7C70747385
:104C98006B757C72798479656B85908782767C8E5A
:104CA800908689848285868086969497837787996B
:104CB800867A8680808685807883826A717A777E14
:104CC800837F715D5C79786570726F777F72677DBD
:104CD8007F6D7982888E8F878F837999988485985C
:104CE8008F87929389948D7B8B877D8C88888B7A2C
:104CF8007B827F85847A7E81817D7E816E6B7271F5
:104D0800787D79767372787D7A74717C837F8689F1
:104D18007F867B7C847B8F8E858781898D82818A43
:104D28008B908F7B7989817F79797A797F857E707D
:104D380072747C7773776E636E7476717B746A7540
:104D480067727F7A7D807D898984898B8586868C48
:104D5800938D8E949088898C8F8F958C827B818699
:104D68008A89777B81838A8376767C81848581783A
:104D780068757C7378808178756F74777A7D7B82AB
:104D88008280817D818786828185828C9484848CCF
:104D98008583878D8B88848B8F7B797979847D7DDA
:104DA800807375746B777E757369687170717979C2
:104DB80074746F706F7A807E8385877F8088878E12
:104DC8008A8C8E8D91908A89928D868B968D7F7F25
:104DD8008683817F7A7C7980807D837D7A7A7D83E2
:104DE80083817B7673787B7D807C7C7773767A7C15
:104DF800797D85887F798084857F8182808185849B
:104E08008186817E828988828181828582807E7A7C
:104E18007B7C7982847D7F7D8081837C7D7C7F80A3
:104E28007E8886817A767C7D787A7C7B7F7F7A7CA7
:104E380080807C7F7F808583867F797C80827C816F
:104E4800847B767980807A7A7976798286837E7F88
:104E5800858184887F787D817E7A81867B797D7E55
:104E68007B7D81897A84857C7F7A87808584837E2F
:104E78007E88857C7E838383828F887E85857D7E00
:104E88008684787A8183807E8183817A8281828414
:104E9800827E7F83877F7A817A797E827D85777F1C
:104EA8007F76807C7F79868183818586777B807D0C
:104EB8008282828284807D7A6A77737A7482888318
:104EC8008581837E7E7F85818F7D827C767C757DE2
:104ED80080817B857F7C80725B5368667D94858446
:104EE8008C8C9FBAB2B88884817B80635A64816253
:104EF8004E55776A65736E7D9FABACB69FA3AE9E29
:104F08009C9F8B8280675C594F4A4D615963595603
:104F1800706568758DA2B8B2B4B19CA99895A0982F
:104F28009399908478676A6762556253435B5F75AB
:104F3800776D807A858CABB39BB98E9B966F847C9A
:104F48007C8E79788575705B53556D7367747A714B
:104F580069647D6C8598809D9096A19A98A8A2B165
:104F6800B1A0A6979A79736F5E617C796461456494
:104F78006060695C676E6B756D7391787B8F959DCA
:104F88009DAA9FA6A59BA488A79489958D896C72D4
:104F9800685C5F5C535F5C6E6267666474635D56F1
:104FA8006C7C747485829695A3A4A4B0AFB193A4C5
:104FB800948A989898939D83726A7F7C797C6666B8
:104FC8005B6457665853705A4D656B6B70766E7696
:104FD800948FAB909697979986A7949FA29F9A9D36
:104FE800A9A1B3AAA3958D79638169656C615E6C8B
:104FF800634F5C59615869556269596C6378717B74
:10500800797E838178849F909D9DA1A9AA9EA69C64
:10501800A198949E8795959689A592908D74936C86
:105028006555546358646162575E5F6A61646A5E7D
:1050380068617168747469778A848A8C8B8B8995A6
:105048009AA68CAA9FABB0ACAE92A58EA7898F8F7B
:1050580096997E9971867A7B837A665C6C685D63C3
:1050680073756D635A535F4E5B5C626B6E5D5E7504
:10507800708071887F7C98757F767F84A3AAA2A1AF
:1050880091989FA0A1999AAB9CA581998FA09B9F6D
:10509800A68D9F7F7E6F8F816F89797775605C5A47
:1050A8005F5D65676267524F625565555B64597409
:1050B8005F625C78686C90868B85888C8D8E818A1F
:1050C8008DA0A08A9989A8A7A6ABABB4B6B29CABB1
:1050D800A99FAA9EA1A8928F7D88787C7B828077E1
:1050E80072677A6F71616A6A776C60545D625F6B30
:1050F800616567605B5B5359565D5B7D6264676E93
:105108008675848C94909B938A908B8F9991AE9E90
:1051180099958798939D9BA4A99E9E9CA29E8D94E9
:1051280094A59E9593818B898D8A9095898D7A7A9D
:1051380077686F646F6F5D5A4E6B62586266706B0A
:10514800716E63666A626B74736069515F6A5F61EE
:1051580065777172787D787B738F80948D9586756D
:1051680096838C98A0999DA5AC8C9E8BA3959DA9A0
:1051780094938EAE8891999CA0A59FAB829C8D8EAE
:10518800978CA6888B6F8272777875798374816E15
:1051980068625F755B7E676F545B63545C66696DBC
:1051A800676E6E54645C6B4F6A6F675F5D696069B8
:1051B80071777B87838567756E7771838C7D7C7843
:1051C800837789878E8F9E9DAB928B939094A2B4A0
:1051D800A69F899E8C8F979F9FA0A4A99F96988E23
:1051E8008A8EA2939A7B8F857E8D9191949E9893B7
:1051F8008086757A818D7A8670757163736A757326
:10520800847C756C6B5A616679737563626B5966D9
:1052180065716D777B786568575A5A6C687B685CEE
:1052280072546C6F797E8D86877B806F756D8780F1
:105238007E86698166787B828A979694909D7C7D2C
:105248008C9CA39AA1829C7B889897A39FA5AE9AD1
:105258009B8B838891A89EA57E9081869A98A8A109
:10526800ACA2989B807C8C8A998F8B7578766F7DA1
:105278007C878A968C7F887D6B7381857D7D6C6A3F
:10528800625E736F837485807C7F695E5562637725
:10529800665C5D54596B657A6B7A8269806B60567F
:1052A8006F6B766E63605B5C6A64797B7B83798DF8
:1052B8006A7D6D7F788280686D6C6A7583888D8C55
:1052C8009B8899808476817C8F8D687C7172838EAF
:1052D80098998BA58CA19991849392939A7A826CD0
:1052E8007981868F9B8E9B8CA2918E968F8F909CB6
:1052F8007D7F757E7989989E899A8E8D9181847F2C
:105308008A858E747566757F898E90898A9387974A
:1053180081817F7F7C81746D636978747E7C7A7902
:10532800908387837C8A76767C6C64616E7B6C80E4
:1053380086757B917E7E896E73746E675F665A563A
:10534800767B7C7C7E7D87887F907F808872697180
:10535800666564707B77807C747D8D7F898C8D8792
:105368007F7C776B6E74798B849083828793867F3A
:105378008F92847A75696C71746B8C858A8D8B9029
:105388008D9493949E947B7B737071746F888987D6
:105398008781878A8D8E929A91818673666D7672DF
:1053A8008D8E898C8A8C86868488919E81716D64A5
:1053B80062786E73817F8F8E8C848E889999A2947F
:1053C80075786D5C707465807B7A7A857C83868954
:1053D80097919E81737661628C767F97787D987BB2
:1053E80077896C92948D8665686C5B787F608A900B
:1053F8007C9390768A848DA192897F6D68656477A5
:10540800717A847C7F8B817B867C94998A8C716786
:1054180066677B7E758C8B848B847B787B869B8C84
:1054280086746A66706F6974768B9790798D7F80C1
:105438009D949289847B67697871697F726E8E808A
:1054480075927E7C97988E88827078729388718620
:105458007D7380817D7C7C8D988B877766736E8366
:105468008473858E81837C7D888E859890818671F2
:105478005D707E7E8E72807F707582787B85949257
:10548800978D6A6C6B778D8C7D9C7E70837A6C941B
:105498007878909480766E4D826E6574816E907780
:1054A80086A8938F989685957D6D587368716D77EA
:1054B800867F7E9B9285AA8D91919E7D767D677D64
:1054C8007F7D8B9378627979879E838A9F9E919D51
:1054D800734E78696C85748299808089818E8688FC
:1054E80090979769727E58677D695F605A72837A70
:1054F8008386778F9F93888C867A9C969494695A32
:105508007072758C7E6080847B7859514C5F618B9A
:105518008077807772798D7F869387799B968B8841
:105528007154859887A1A47D929593A18B8A94A79D
:105538007D95968E83757576807A8E747F787C9546
:10554800888A777283694D797D6580817A8B8690A8
:10555800767C808089899E8F9B6C71746C8285773C
:105568006A8F768095836F798C88A19B999B8A83B3
:10557800938975926B5B6C66777C7062555C6A5D2B
:1055880072745A7C88849F8D758A7758829771883F
:105598009785808B897186929AA1AC9B9D957C8B0F
:1055A8007F76869B8E8EA0897C9D7F658089878F7C
:1055B80084798C7B6B6E6155665E707A72768481B5
:1055C800647C80869089888D987C8185677F816FCF
:1055D800849A8682947D69868F809199849FA78317
:1055E8009C926A86916B76856B78854F5B7B635E50
:1055F800655857767C6D7A8876848F7A7D896F8B2B
:105608008F6F7A8885798E71719A9280A89C839B16
:105618008D7B8A90849281828BA0907D8976768119
:105628007C7191875B818058686E63525F57707F89
:105638007989857F8A8B7A7B9AA37D877A847C7D1A
:105648007F76787094959A878B898B8D75939692CF
:10565800918B84908E8A8D8575788975796A767232
:10566800745E48776C6D71636283828D95847C81EA
:10567800938A898C7876916D68818889977B7BA5D8
:105688009B9D9794748AA38185947B898E81888B4E
:1056980088859A6E66747976867C4A6D7F696E71A4
:1056A800646B6E6F779589818D857C888E798F88FC
:1056B8005F757F7B91897E818C8F96908D8A818A98
:1056C800767F9287928380918387947E76715F71CB
:1056D800756F685F5A72695E62737E637D817690CA
:1056E80099778A947781927E817D708489827FA55B
:1056F8008D7BA79E859A937D87837688907F7E850C
:105708008E8690806E8A7264897B6D816D667669FB
:1057180063716C7574687C828B817C83838B8D8BC1
:105728008D846E7C806E848E7E8F8C7D929F8E9809
:10573800906B7693988A8B7176A9836B937D62734D
:10574800796C73776C866E4F6C77737B765D6A893C
:10575800746D837E7C8F97848C8F8C8C726E848F13
:105768008E928F818F968F998F858688858C91836D
:10577800827E879081888A76647D86677B82646E64
:1057880076716A727A746E637C84727B887F7F9389
:10579800977F858B6D727F6E849B8B848280959CAE
:1057A8008C958C7F818D90857D767A848F86849484
:1057B8008359607A8578677169636A766F5F6C6D03
:1057C80068747A7D7E8A8C767DA4A27F89847473BE
:1057D80079889384818D898B909B9C98817D899011
:1057E800877F84837D858D8B9183646A7873848FAA
:1057F800857367737F6D66757A73726673817B8450
:10580800777B828E9A9D896E71807D7E8A828B934A
:10581800857C7F80949883727E88919E86737C862F
:10582800878C7A7478776269716C78856E5F706638
:105838007D897263687280878874858F93947F846A
:10584800818B818280959B968A7C8E908695997DA6
:105858008A8C8D7F7872868A85967F8A8875756B23
:105868007084827F74757376726F6F6D84736D84C4
:105878008E82787A7D8995838A867F7C7B818493E2
:1058880080868889898692938D7A6D898D817F7CBF
:105898007F7E87808080837A66646E7F8677716278
:1058A8005F6770746C6F686A7C857978848C888C83
:1058B800908A888E857B7C819497878A9684868F48
:1058C8008D909295817D837F828C8883886973858A
:1058D800757678747B89867E857A696F746F747A39
:1058E800787B776A6D7C8489999E8187847B8A7AA4
:1058F80073878575858D8A837E89837D8B90979044
:105908008387827B848C6D707D6E69737174797105
:10591800786F6C7D786E7B71696D708078747F7E2E
:105928008388959089989688857F8291868B918BBC
:10593800817E888B7B818A7D878D898A807F91850E
:105948007984897B6E7D78758376757C73797974B3
:105958007D7B777784867C8589818283877F808831
:105968007A727073717C7E87898184858D8E868436
:105978008080898488857E707A7B7A897F7E84841A
:10598800828987928F7D827E7E7974777373777927
:10599800777C82808188848C8783917C76766D770A
:1059A8007B7681726F7B74767982818D8A8C928402
:1059B80082848073747B7A7C7C7A716E7A7A7F8039
:1059C8009090838284847E7E7E7A76847E7C7E7EBE
:1059D8007D757C868B8484838087877E8476839498
:1059E800787F84787A818191898585838483877497
:1059F80081787C8B85887C70708180838A7D7D80AE
:105A08007F8580767E807D8783887D79786C7F81AD
:105A18007B827B8086767776778487807E81828496
:105A280086797E7A7E8987887F787A7474807A7E90
:105A38007F7B7D7C7985868287878C8283837B7850
:105A48007E6B53565B5F758D8A98A1A6B5B8AFA2D9
:105A580087778279676D645C554F596184837F913C
:105A6800929C989B9FA5AC9DA79890866A746E6F30
:105A7800746461634F5B615A5F5B6A7472767F7BA3
:105A88009DACACB8B0B8B8A59F9A8984827E7C7565
:105A9800635E5348505D5A5B6269708086707E8889
:105AA8008DA9A388998384A09498948C8D7E7B7A01
:105AB8005863595E6E4F525F50526874858796A13D
:105AC80098898B9398B1B9BDAF9F9C938F8E919312
