:020000040800F2
:100000000050002021020008270200082B020008EF
:100010009D020008A1020008E9020008000000009B
:100020000000000000000000000000003103000894
:10003000350300080000000039030008810B0008A8
:100040004D0300084D0300084D0300084D03000850
:100050004D0300084D0300084D0300084D03000840
:100060004D0300084D0300084D0300084D03000830
:100070004D0300084D0300084D0300084D03000820
:100080004D0300084D0300084D0300084D03000810
:100090004D0300084D0300084D0300084D03000800
:1000A0004D0300084D0300084D0300084D030008F0
:1000B0004D0300084D0300084D0300084D030008E0
:1000C0004D0300084D0300084D0300084D030008D0
:1000D0004D0300084D0300084D0300084D030008C0
:1000E0004D0300084D0300084D0300080000000008
:1000F0000000000000000000000000000000000000
:1001000000000000000000005FF808F100B583B0B7
:1001100000F0ACF9304B314A1360314A1360314B77
:10012000314A03E052F8041B43F8041B2F498B4269
:10013000F8D32A4B1A682E4B9A4200D0FEE7284B80
:100140001A682C4B9A42F9D1234B2B4A13602B4A45
:1001500013602B4B02E0002243F8042B294A934200
:10016000F9D3254B1B6813B9244B1B6803B1FEE779
:1001700000F088F9694601A800F022F9224C234BCF
:10018000E41AA410002504E0204B53F825309847CA
:100190000135AC42F8DC1E4C1E4BE41AA4100025BD
:1001A00004E01C4B53F8253098470135AC42F8DC8D
:1001B0000099019800F036FD0546174C174BE41ADC
:1001C000A41004E0013C154B53F824309847002C50
:1001D000F8DC284600F0D0F8BABADECA00000020E9
:1001E0008800002000000020A01D00088C000020D6
:1001F00078563412325476988C0000202C0100205E
:100200008C000020300100207803000878030008EB
:1002100078030008780300087803000878030008D2
:1002200008B5FFF773FF00BEFEE71EF0040F0CBF1A
:10023000EFF30880EFF309807146414A10472DE93A
:10024000F04182B004460D46124B5F6BD3F8388004
:100250009E6A1B6B13F0020F03D00E4BDB6A002B60
:100260000BDB0D4800F0B4F8009543463A463146A2
:10027000204600F00BF900BEFEE74BF6AB6100F044
:100280007FF90028EDD0034B4FF00042DA6202B054
:10029000BDE8F08100ED00E0741C000800BEFEE740
:1002A0001EF0040F0CBFEFF30880EFF309807146D6
:1002B000244A10472DE9F04182B004460D46084B10
:1002C0005F6BD3F838809E6A064800F081F800958D
:1002D00043463A463146204600F0D8F800BEFEE7D5
:1002E00000ED00E0841C00081EF0040F0CBFEFF3CB
:1002F0000880EFF309807146134A10472DE9F04159
:1003000082B004460D46084B5F6BD3F838809E6A76
:10031000064800F05DF8009543463A4631462046CF
:1003200000F0B4F800BEFEE700ED00E0901C00080D
:1003300000BEFEE700BEFEE700BEFEE7704700001D
:100340003F020008B5020008FD02000800BEFEE7FB
:10035000A01D0008000000208C000020A01D000847
:1003600000000000000000008C0000203001002090
:08037000000000000000000085
:10037800FEE7000008B503460C4A12685AB10B4A5A
:100388001068033323F003030344094A934206D851
:10039800064A136008BD054A06491160EFE700F0F8
:1003A8008BFC0C2303604FF0FF30F3E79000002034
:1003B800004C00203001002001230360014B0B603A
:1003C800704700BF040000200FB400B583B004AB31
:1003D80053F8042B01938021074800F095FD00286D
:1003E80004DC03B05DF804EB04B070470146024832
:1003F80000F034F8F5E700BF980000202DE9F0433D
:1004080085B004460F46435633BB0425284621468B
:10041800ABBE0446384605B0BDE8F08314F9010BBD
:1004280004AA1A4402F8100C0133AB42F6D304AA0A
:100438001344002203F8102C4FF00408E946404604
:100448004946ABBE8046761B002EE3D03546102EBB
:1004580028BF10250023E8E70E46F5E708B5FFF7A3
:10046800CDFF08BD08B500F0FDF8024A024B9A60BE
:1004780008BD00BF0000000800ED00E008B500F06E
:1004880019F908BDF8B504460D4617461E46274813
:10049800FFF79AFF21682648FFF796FF616825480D
:1004A800FFF792FFA1682448FFF78EFFE168234811
:1004B800FFF78AFF21692248FFF786FF6169214813
:1004C800FFF782FFA1692048FFF77EFFE1691F4817
:1004D800FFF77AFF1E48FFF777FF29461D48FFF709
:1004E80073FF1D4CE16A1D48FFF76EFF216B1C4826
:1004F800FFF76AFFE16B1B48FFF766FF15F0800FF7
:100508000AD115F4004F0CD11748FFF75DFF069983
:100518001648FFF759FFF8BD39461548FFF754FF4D
:10052800EFE731461348FFF74FFFEDE7581B000888
:10053800681B0008781B0008881B0008981B000827
:10054800A81B0008B81B0008C81B0008D81B000817
:10055800E81B0008F41B000800ED00E0041C00087C
:10056800141C0008241C0008541C00085C1C00080B
:10057800341C0008441C000883691A888A4201D088
:10058800002070470268033A012A01D90020704709
:10059800023383610120704782B0002301930093E6
:1005A8002C4A136843F4803313602A4B1B6803F406
:1005B80000330093019B01330193009B1BB9019BFE
:1005C800B3F5A06FF1D1234B1B6813F4003F06D09D
:1005D80001230093009B012B04D002B07047002335
:1005E8000093F7E71C4B1A6842F010021A601A6869
:1005F80022F003021A601A6842F002021A60A3F598
:1006080080535A685A605A685A605A6842F480623D
:100618005A605A6822F47C125A605A6842F4E81206
:100628005A601A6842F080721A600A4B1B6813F00D
:10063800007FFAD0074B5A6822F003025A605A68C2
:1006480042F002025A60034B5B6803F00C03082B6C
:10065800F9D1C2E7001002400020024008B5FFF7B8
:100668009BFF08BD08B5104B1A6842F001021A60DA
:1006780059680E4A0A405A601A6822F0847222F4B5
:1006880080321A601A6822F480221A605A6822F4AA
:10069800FE025A604FF41F029A60FFF7DFFF044B17
:1006A8004FF000629A6008BD001002400000FFF899
:1006B80000ED00E01F4B5B6803F00C03042B15D022
:1006C800082B17D01BB11C4B1C4A1A6002E01A4BAE
:1006D8001A4A1A60174B5B68C3F30313184AD35CB2
:1006E800DAB215490B68D3400B607047124B134AB6
:1006F8001A60EFE70F4A53685268C3F38343023323
:1007080012F4803F05D10F4A02FB03F30A4A136033
:10071800E0E7084A526812F4003F05D0094A02FB94
:1007280003F3054A1360D5E7044A02FB03F3024AC0
:100738001360CFE7001002401C00002000127A006E
:100748000C00002000093D0010B59AB00024019467
:100758006022214602A800F0B5FA204608E064208D
:1007680000F048FA1AAB234403F8640C0134E4B2ED
:10077800FF28F4D10020034609E05A1C1AAC224491
:1007880012F8642C492A0DD030200133DBB2622BD9
:1007980014D819461AAA1A4412F8642C2B2AECD039
:1007A8003020F2E70731214411F8642C012A03D0E4
:1007B800002AEAD11046E8E71046E6E71AB010BD6D
:1007C80030B59BB00546002401946022214602A85A
:1007D80000F078FA204608E0284600F00BFA1AAB39
:1007E800234403F8640C0134E4B2FF28F4D1002058
:1007F800034612E0581C1AAC204410F8640C4B282D
:1008080014D1012007E04A1C1AA8024412F8642CEB
:10081800522A0FD000200133DBB2622B14D81946BC
:100828001AAA1A4412F8642C4F2AE3D0452AEAD0AF
:100838000020F0E70231014411F8642C522A01D05B
:100848000020E8E70220E6E71BB030BD08B500202D
:1008580030B9094800F0BCF96420FFF7B1FFF7E7A9
:10086800002005E0054800F0B3F99620FFF7A8FF3F
:100878000028F7D008BD00BFA01C0008A81C00086D
:1008880070B59EB005460E460024059460222146A8
:1008980006A800F017FA0A4A0392029601920092FB
:1008A8002B46084905A800F07BFA204630B905A870
:1008B80000F08EF90448FFF783FFF7E71EB070BD1C
:1008C80020000020B81C00088023430030B59FB0EA
:1008D8000546002405946022214606A800F0F2F996
:1008E800094A0292019500921346084905A800F0AA
:1008F80057FA204630B905A800F06AF90448FFF70E
:100908005FFFF7E71FB030BD20000020D81C0008AB
:10091800E0C8100070B59AB006460D460024019450
:100928006022214602A800F0CDF93246104901A8FC
:1009380000F036FA3CB901A800F04AF9C820FFF7E0
:100948003FFF0446F6E70B4901A800F04BFA2A4698
:10095800094901A800F024FA06E001A800F038F9D6
:100968000648FFF72DFF0446002CF6D01AB070BDDC
:10097800F81C0008D41C0008081D0008A0BB0D00C6
:10098800F0B4012827D0022848D008B1F0BC70473D
:1009980007290DD8334B1C6888000F21814024EAB1
:1009A800010119601C6802FA00F121431960EDE7A2
:1009B8000F29EBD8A1F10807FFB22B4B1968BE002D
:1009C8000F20B04021EA00011960196802FA06F602
:1009D8000E431E60DAE707290DD8244804688B0007
:1009E8000F21994024EA01010160046802FA03F129
:1009F80021430160CAE70F29C8D8A1F10807FFB24F
:100A08001B4B1968BD000F20A84021EA000119609E
:100A1800196802FA05F50D431D60B7E707290DD8D7
:100A2800144B186889000F248C4020EA04001860D1
:100A3800186802FA01F101431960A7E70F29A5D840
:100A4800A1F10807FFB20C4B1968BC000F20A040A9
:100A580021EA00011960186802FA04F101431960DB
:100A680094E700BF0008014004080140000C014061
:100A7800040C01400010014004100140012817D067
:100A8800022829D000B17047012A0AD0002AFAD1D9
:100A98001B480368012202FA01F123EA01010160FF
:100AA80070471748036802FA01F11943016070475B
:100AB800012A0AD0002AE6D112480368012202FA64
:100AC80001F123EA0101016070470E48036802FA48
:100AD80001F1194301607047012A0AD0002AD2D1D6
:100AE80009480368012202FA01F123EA01010160C1
:100AF800C9E70548036802FA01F119430160704724
:100B08000C0801400C0C01400C100140064B4FF43E
:100B180080321A60043301221A60034B1B6813F4F5
:100B2800003FFAD0704700BF001002401F2904D8C8
:100B380001280BD0022811D000B170470B48036878
:100B4800012202FA01F1194301607047084803685D
:100B5800012202FA01F11943016070470548036850
:100B6800012202FA01F119430160E6E7141002407C
:100B78001C1002401810024008B5084B1B7843B9F6
:100B8800074B1A6822F002021A6000221A605A60A3
:100B98009A60044B1B68984708BD00BF1C010020E1
:100BA80010E000E018010020084B45229A60DA683E
:100BB80042F00802DA60DA6842F00402DA60DA68C1
:100BC80042F40052DA6000221A607047003801408F
:100BD800002208E006494B60054B1B6813F0400FE4
:100BE800FAD00132D2B2835C002BF3D1704700BF38
:100BF800003801400023084A126812F0200F04D17F
:100C080001338342F7D1FF2000E0002010B9024BE6
:100C18005868C0B2704700BF0038014010B5FFF7F0
:100C280075FF02210846FFF781FF0E210220FFF71A
:100C38007DFF0B2209210020FFF7A2FE04220A21D2
:100C48000020FFF79DFE022200210846FFF798FECC
:100C5800022201210020FFF793FEFFF7A5FFFFF70F
:100C6800F5FD11491148FFF70BFE1148FFF72EFE5D
:100C780010492C20FFF74EFEFFF766FD044604E0FE
:100C8800012200210846FFF7F9FE012CF8D02CB903
:100C9800002211461046FFF7F1FEF6E70122114641
:100CA8000020FFF7EBFEF0E7241D0008301D0008C8
:100CB8003C1D00084C1D0008014B1868704700BF18
:100CC80024000020F0B4860746D0541E002A3CD0E9
:100CD800CAB2034602E014F1FF3436D303F8012BFD
:100CE8009D07F8D1032C29D9CDB245EA05250F2C4B
:100CF80045EA054533D9A4F11006360903F1200762
:100D080007EB061703F1100242E9045542E90255C0
:100D18001032BA42F8D1721C14F00C0F03EB021215
:100D280004F00F0613D0331F23F0030304331344D6
:100D380042F8045B9342FBD106F003042CB1C9B21C
:100D48001C4403F8011B9C42FBD1F0BC704734469D
:100D58001346002CF3D1F8E714460346C2E71A46B7
:100D68002646E0E70CB470B56FF000459CB020ACA7
:100D780054F8042B094E02910691234602A90194C6
:100D88000795CDE9045600F0ABF90022029B1A70D2
:100D98001CB0BDE8704002B0704700BF0802FFFFFA
:100DA8000EB4034630B56FF000449CB01FA951F84B
:100DB800042B0A480A4D0293069301910B460068DA
:100DC80002A90794CDE9044500F08AF90022029BA4
:100DD8001A701CB0BDE8304003B0704724000020F2
:100DE8000802FFFF80EA0102844612F0030F4FD188
:100DF80011F0030F32D14DF8044D11F0040F51F8E2
:100E0800043B0BD0A3F101329A4312F0803F04BF98
:100E18004CF8043B51F8043B16D100BF51F8044B81
:100E2800A3F101329A4312F0803FA4F101320BD1B1
:100E38004CF8043BA24312F0803F04BF51F8043B36
:100E48004CF8044BEAD023460CF8013B13F0FF0F93
:100E58004FEA3323F8D15DF8044B704711F0010FC6
:100E680006D011F8012B0CF8012B002A08BF704797
:100E780011F0020FBFD031F8022B12F0FF0F16BF8E
:100E88002CF8022B8CF8002012F47F4FB3D1704756
:100E980011F8012B0CF8012B002AF9D1704700BF7B
:100EA80070B5141E9AB0054629DB1A464FF4027332
:100EB80000910491ADF80C304FF6FF7611D0013C4B
:100EC8001E9B694602940594ADF80E6000F008F97F
:100ED800421C01DA8B232B600022009B1A701AB087
:100EE80070BD1E9B694602940594ADF80E6000F033
:100EF800F7F8431C01DA8B232B601AB070BD8B23E3
:100F08004FF0FF302B60F8E710B5054C82B0009326
:100F180013460A4601462068FFF7C2FF02B010BD1B
:100F2800240000202DE9F0478E6880469E420C463A
:100F38001D461746086836D8B1F80CC01CF4906FE7
:100F48000DD135462A46394600F0A0FC0020A2689B
:100F58002368961B2B44A6602360BDE8F087D1E97F
:100F6800041606EB460606EBD676A0EB010901331C
:100F780076104B44B342324684BF1E4632461CF4B8
:100F8800806F12D01146404600F03AFD824600B309
:100F98004A46216900F004FCA38923F4906343F0D6
:100FA8008003A38106E01E46CCE7404600F08CFD96
:100FB800824650B1A6EB09030AEB09006661C4F842
:100FC80010A02060A3602E46BCE72169404600F0CF
:100FD800C3FC0C23C8F80030A3894FF0FF3043F05E
:100FE8004003A381B9E700BF2DE9F04F936883B0B0
:100FF8009046002B6DD0176882460C460868083763
:101008008D6843E0A38913F4906F2ED0D4E90415BA
:1010180005EB4505A0EB010B05EBD5750BEB0600C1
:101028006D100130A8422A4684BF05462A465B0552
:1010380036D51146504600F0E3FC00283AD05A460F
:101048002169019000F0ACFBA289019B22F4906217
:1010580042F08002A281A5EB0B0203EB0B00656155
:10106800B346354623612060A2605A46494600F0DF
:101078000DFCD8F80830A2682068551B58449E1B00
:10108800A5602060C8F808601EB3083757E90296C3
:10109800AB46002EF9D0AE42B4D23546B346E4E7AB
:1010A800504600F011FD03460028D4D1216950466E
:1010B80000F052FC0C2300224FF0FF30CAF8003039
:1010C800A38943F04003A381C8E9012203B0BDE826
:1010D800F08F0020C8F8040003B0BDE8F08F00BF0F
:1010E8002DE9F04F8B4689899FB00C0690460290F7
:1010F80004D5DBF81020002A00F00D810020202103
:101108003022059398F8003001270B908DF83110A4
:101118008C4E8DF83220002B00F08680252B00F0B5
:10112800F880454603E0252B00F0888025466B783B
:101138006C1C002BF7D1B4EB080A75D04246534615
:1011480059460298FFF7EEFE01306DD00B9B6A7886
:1011580053440B93002A67D000234FF0FF32013429
:101168000693CDE908338DF85B301C93079206E0AF
:101178002C46069B801B07FA00F01843069025466C
:10118800052215F8011B304600F0C4FAAA460028CB
:10119800EED1069BD90644BF20228DF85B201A07A2
:1011A80048BF2B22217848BF8DF85B202A2949D1D6
:1011B800059A11680432002905927FDB099161784C
:1011C800A51C2E2957D0604C0322204600F0A2FA15
:1011D800002869D04022069B001B02FA00F0034356
:1011E800069305F101082B780622194657488DF811
:1011F800303000F08FFA002866D0554B002B56D0BF
:1012080005AB00935A46534B06A90298AFF30080EA
:101218008146B9F1FF3F07D00B9B4B440B9398F8DD
:101228000030002B7FF47AAFBBF80C305B064CBF64
:101238004FF0FF300B981FB0BDE8F08FB4EB080AF1
:101248008AD07BE7A1F13002092A88BFA246B8D824
:10125800099B01E02C460135297803EB830302EB57
:101268004303A1F13002092AAA46F3D92E2904F131
:1012780002050993A7D19AF801102A292ED1059BB6
:101288000AF102001A680433002A079205939AF8B3
:1012980002100AF1030537DB2B4C82460322204655
:1012A80000F038FA002895D1A84655469BE7059BDB
:1012B800073323F0070308330593ADE7494243F0AA
:1012C8000203099106937AE705AB00935A46214B2E
:1012D80006A9029800F0D4F881469AE70023A1F104
:1012E8003002092A079301D923E05546697803EBB0
:1012F800830302EB4303A1F13002092A05F1010A35
:10130800F3D9023507935EE74FF0FF338246079320
:1013180059E7444620E74021039300F071FB039B03
:10132800CBF80000CBF8100030B14022CBF81420E5
:10133800E4E6AA46013546E70C23029A4FF0FF304F
:10134800136078E7641D00086C1D0008701D000814
:10135800000000002D0F00082DE9F0470C46096930
:10136800A56891468D42B8BF0D46156094F84310A4
:1013780006461F46DDF8208011B16A1CC9F8002016
:10138800236899065CD5D9F800200232C9F80020F4
:10139800236813F0060F19461DD1E1688A1A002A3E
:1013A800D8BF194617DD002504F1190A05E0E368DE
:1013B800D9F800209B1AAB420CDD0123524639466E
:1013C8003046C047013005F10105F0D14FF0FF303C
:1013D800BDE8F087216894F84330003318BF012333
:1013E8008A060AD53021E21882F8431094F845108D
:1013F8005A1C224482F84310023304F1430239464E
:101408003046C0470130E1D02368A26803F00603E4
:10141800042B21691DD08A4226DD4FF00009521A9B
:10142800914400251A3401E04D451DDA0123224676
:1014380039463046C047013005F10105F4D1C5E70A
:1014480013F0060F13D094F84330003318BF01236C
:10145800D3E7D9F80000E3688A42A3EB000323EA44
:10146800E379DCDC002BDCDC0020BDE8F087E168F8
:10147800D9F800208A1A002AD8BF194693DCAAE7AF
:101488002DE9F0430C46097E85B06E2906461746BD
:10149800984604F1430C0C986DD039D9732900F0A3
:1014A800F48044D9752900F00281782940F00F8131
:1014B80078232268DFF854E284F84530016815067D
:1014C80051F8043B016040F1A180D10744BF42F0CC
:1014D80020022260002B00F093801022002184F863
:1014E800431060680028A060C0F2C680216821F01F
:1014F80004012160002B40F0A280002840F0BE804B
:101508006546082A00F0AB80ACEB0503236141E097
:10151800632900F0E3801AD8002938D0582940F010
:10152800D68084F845102268DFF8E4E1C6E76F2921
:1015380000F0BD80702940F0CA8078232268DFF867
:10154800CCE142F02002226084F84530B6E76429F5
:1015580002D0692940F0BB8022680368110603F1B4
:10156800040557D5196805600B46002959DB0A227E
:10157800DFF89CE1B5E7036822681D1D6169056015
:1015880015061B6802D4500600F1BB8019600023C1
:1015980065462361CDF800803B4603AA21463046C4
:1015A800FFF7DAFE013020D02A4623693946304653
:1015B800C047013019D0226803989207E36819D50B
:1015C8001A1A002A16DD002504F1190904E0E36857
:1015D80003981A1AAA420DDD01234A4639463046B5
:1015E800C047013005F10105F1D14FF0FF3005B0DA
:1015F800BDE8F0839842B8BF184605B0BDE8F0834F
:101608002168102221F02001216067E7500648BFB9
:101618009BB25AE75106A5D5B3F9003005601946C3
:10162800A3E72D2061685B42002984F84300A1608C
:1016380002DB22F0040222600A22DFF8D4E06546C9
:1016480000E00B46B3FBF2F102FB11301EF800007C
:10165800934205F8010DF4D2082A7FF455AF2368A8
:10166800DB077FF551AF626823699A423FF74CAFB9
:101678003023013D2B7047E7002BE0D19EF8003066
:1016880004F1420584F842303BE703686268191D9B
:1016980001601D680021284600F03CF8002832D07F
:1016A800401B60602061002384F8433072E72268A1
:1016B800036812F0800F03F104051AD01B68056057
:1016C8006F290CBF08220A22DFF844E006E701234D
:1016D80084F84210236104F14205E4E7012203681B
:1016E80004F14205191D1B68016084F8423022612B
:1016F800D9E712F0400F0DBF1B6805601B88056015
:10170800DEE7198043E76068CCE700BF8C1D00085E
:10171800781D0008830770B4CDB23DD0541E0AB3BB
:101728000378AB421FD0431C05E014F1FF3419D3F2
:101738000278AA4217D013F0030F184603F10103E9
:10174800F3D1032C11D84CB30378AB420BD004442B
:10175800431C02E00278AA4205D09C42184603F1D5
:101768000103F7D1002070BC704702460E02B6B2E2
:101778002E4346EA0646136810467340A3F101312A
:1017880021EA030313F0803F02F10402DCD1043C98
:10179800032C1046EFD8D6E71446D2E72046E2E7F6
:1017A800844641EA000313F0030349D1403A23D3A6
:1017B8000B6803604B6843608B688360CB68C360C9
:1017C8000B6903614B6943618B698361CB69C361B1
:1017D8000B6A03624B6A43628B6A8362CB6AC36299
:1017E8000B6B03634B6B43638B6B8363CB6BC36381
:1017F80040304031403ADBD230320BD30B680360C3
:101808004B6843608B688360CB68C36010301031CD
:10181800103AF3D20C3205D351F8043B40F8043B9C
:10182800043AF9D2043208D0D2071CBF11F8013BA0
:1018380000F8013B01D30B8803806046704700BF66
:10184800082A13D38B07B1D010F00303AED0C3F12D
:101858000403D21ADB071CBF11F8013B00F8013B57
:10186800A4D331F8023B20F8023B9FE7043AD9D3CE
:10187800013A11F8013B00F8013BF9D20B780370EB
:101888004B7843708B788370604670478842F0B419
:101898000DD98B1883420AD9841832B1224613F81D
:1018A800014D994202F8014DF9D1F0BC70470F2A59
:1018B8000ED80346541E002AF7D001340C44013BCD
:1018C80011F8012BA14203F8012FF9D1F0BC7047A0
:1018D80040EA01039B073AD1A2F110073F0901F141
:1018E800200606EB071601F1100300F1100453F867
:1018F800105C103344F8105C53F81C5C103444F846
:101908001C5C53F8185C44F8185C53F8145CB34238
:1019180044F8145CEBD17B1C1B0112F00C0F19442A
:1019280002F00F05034415D00E46043DAD0803EB45
:10193800850C1C1F56F8047B44F8047F6445F9D1D4
:101948000135AD002B44294402F00302B2E7541ECE
:101958000346B2E72A46ADE700293AD038B551F830
:10196800043C0C1F002BB8BFE418054600F0E4F84F
:10197800224B1A682AB1A2420DD921686018824206
:1019880021D0626028461C60BDE8384000F0D6B817
:10199800A34203D81A465368002BF9D1116850188E
:1019A800A04217D022D821686018834203BFD3E928
:1019B80000030918C4E90013636054602846BDE8B1
:1019C800384000F0BBB8D2E900020144C4E9001273
:1019D800D8E7704720680144501883421160EDD160
:1019E800D3E900030144C2E90013E7E70C232846C2
:1019F8002B60BDE8384000F0A1B800BF20010020EE
:101A0800F8B5CD1C25F0030508350C2D38BF0C257D
:101A1800002D064633DBA94231D82A4F00F08CF856
:101A28003A6852B113685B1B04D43FE023685B1B20
:101A380029D522465468002CF8D1796800293BD072
:101A48002946304600F066F8431C28D0C41C24F010
:101A58000304A04205D0211A304600F05BF801309B
:101A68001DD02560304600F069F804F10B0020F025
:101A78000700231DC21A01D01B1AA350F8BD0C225F
:101A880000203260F8BD0B2B05D8A242636811D044
:101A98005360E7E7144623601C442560E2E70C2303
:101AA8003046336000F04AF80020F8BD0B2BF1D81F
:101AB800144653683B60D5E7304600F02BF8786051
:101AC800BEE700BF2001002009B3F8B51446CAB12B
:101AD80006460D4600F034F8A04202D32F46384699
:101AE800F8BD21463046FFF78BFF07460028F6D0A1
:101AF80022462946FFF754FE30462946FFF72CFFB9
:101B08003846F8BD2746FFF727FF3846F8BD114687
:101B1800FFF776BF38B50023064C05460846236014
:101B2800FEF728FC431C00D038BD2368002BFBD0EF
:101B38002B6038BD28010020704700BF704700BFE8
:101B480051F8043C181F002BBCBF0B58C018704735
:101B5800537461636B206672616D653A0A00000018
:101B6800205230203D2020253038580A000000003F
:101B7800205231203D2020253038580A000000002E
:101B8800205232203D2020253038580A000000001D
:101B9800205233203D2020253038580A000000000C
:101BA80020523132203D20253038580A00000000EC
:101BB800204C52203D2020253038580A00000000D3
:101BC800205043203D2020253038580A00000000CE
:101BD80020505352203D20253038580A000000007C
:101BE8004653522F4641523A0A00000020434653BA
:101BF80052203D2020253038580A000020484653FE
:101C080052203D2020253038580A000020444653F1
:101C180052203D2020253038580A000020414653E4
:101C280052203D2020253038580A0000204D4D46CE
:101C38004152203D20253038580A000020424641B4
:101C480052203D2020253038580A00004D69736322
:101C58000A000000204C522F4558435F5245545506
:101C6800524E3D20253038580A0000005B4861720A
:101C7800644661756C745D0A000000005B42757310
:101C88004661756C745D0A005B55736167654661F2
:101C9800756C745D0A000000415445300D0A00005F
:101CA80041542B43574D4F44453D310D0A00000028
:101CB80041542B43574A41505F4355523D257325A4
:101CC8007325732C2573257325730D0A00000000F6
:101CD80041542B43495053544152543D2573544366
:101CE8005025732C2573257325732C38300D0A0065
:101CF80041542B43495053454E443D25640D0A0039
:101D080047455420687474703A2F2F25732F7374C5
:101D1800617475732E7478740D0A00006B366D3219
:101D2800313732330000000057455F3941324239BC
:101D3800330000003136322E3235332E3135352E10
:101D48003232360061686D656461726D2E66726547
:101D5800657661722E636F6D00000000232D302BB5
:101D680020000000686C4C00656667454647000027
:101D780030313233343536373839414243444546B9
:101D8800000000003031323334353637383961627B
:051D98006364656600B4
:101DA000785634129400002000000000000000006B
:101DB00000000000010203040607080900A24A040B
:101DC0002200FFFF280000200000000000000000AB
:101DD0000000000000000000000000000000000003
:101DE00000000000000000000000000000000000F3
:101DF00000000000000000000000000000000000E3
:101E000000000000000000000000000000000000D2
:101E100000000000000000000000000000000000C2
:0C1E200000000000000000003254769822
:040000050800010DE1
:00000001FF
