:020000040800F2
:100000000050002021020008270200082B020008EF
:100010009D020008A1020008E9020008000000009B
:10002000000000000000000000000000F1100008C7
:100030003503000800000000511100089511000868
:100040004D0300084D0300084D0300084D03000850
:100050004D0300084D0300082D0800084D0300085B
:100060004D0300084D0300084D0300084D03000830
:100070004D0300084D0300084D0300084D03000820
:100080004D0300084D0300084D0300084D03000810
:100090004D0300084D0300084D0300084D03000800
:1000A0004D030008550700084D0300084D030008E4
:1000B000C5090008A50A00087D0B00084D030008CB
:1000C0004D0300084D0300084D0300084D030008D0
:1000D0004D0300084D0300084D0300084D030008C0
:1000E0004D0300084D0300084D0300080000000008
:1000F0000000000000000000000000000000000000
:1001000000000000000000005FF808F100B583B0B7
:1001100000F0AEF9304B314A1360314A1360314B75
:10012000314A32498B4204D21168196004330432D7
:10013000F7E72A4B1A682E4B9A4200D0FEE7284B6D
:100140001A682C4B9A42F9D1234B2B4A13602B4A45
:1001500013602B4B02E000221A600433294A9342B9
:10016000F9D3254B1B6813B9244B1B6803B1FEE779
:1001700000F08AF9694601A800F026F9224C234BC9
:10018000E41AA4100025AC4214DC214C214BE41AE3
:10019000A4100025AC4213DC0099019800F00EFE7B
:1001A00005461D4C1D4BE41AA410002C0EDC2846FD
:1001B00000F0E6F8154B53F8253098470135E2E793
:1001C000144B53F8253098470135E3E7013C134BB6
:1001D00053F824309847E8E7BABADECA0000002096
:1001E0008C0000200000002028240008900000203F
:1001F000785634123254769890000020DC46002065
:1002000090000020E04600207803000878030008F2
:1002100078030008780300087803000878030008D2
:1002200008B5FFF773FF00BEFEE71EF0040F0CBF1A
:10023000EFF30880EFF309807146414A10472DE93A
:10024000F04182B004468846124B5E6B9F6B9D6AFC
:100250001B6B13F0020F03D00E4BDB6A002B0CDB81
:100260000D4800F0B9F8CDF800803B4632462946EB
:10027000204600F00DF900BEFEE74BF6AB6100F042
:1002800081F90028ECD0034B4FF00042DA6202B053
:10029000BDE8F08100ED00E0A023000800BEFEE70D
:1002A0001EF0040F0CBFEFF30880EFF309807146D6
:1002B000244A10472DE9F04182B004468846084B95
:1002C0005E6B9F6B9D6A074800F086F8CDF8008052
:1002D0003B4632462946204600F0DAF800BEFEE7EB
:1002E00000ED00E0B02300081EF0040F0CBFEFF398
:1002F0000880EFF309807146134A10472DE9F04159
:1003000082B004468846084B5E6B9F6B9D6A074827
:1003100000F062F8CDF800803B4632462946204680
:1003200000F0B6F800BEFEE700ED00E0BC230008D8
:1003300000BEFEE700BEFEE700BEFEE7704700001D
:100340003F020008B5020008FD02000800BEFEE7FB
:100350002824000800000020900000202824000825
:10036000000000000000000090000020E046002097
:08037000000000000000000085
:10038000FEE7000008B503460C4A12685AB10B4A52
:100390001068033323F003030344094A934206D849
:1003A000064A136008BD054A06491160EFE701F0EF
:1003B00037FB0C2303604FF0FF30F3E7940000207D
:1003C000004C0020E046002001230360014B0B603D
:1003D000704700BF040000200FB400B583B004AB29
:1003E00053F8042B01938021064801F057FB0028A5
:1003F00003DD0146034800F037F803B05DF804EB75
:1004000004B070479C0000202DE9F04385B00446FD
:100410000F4643560BB10E461EE0042528462146E2
:10042000ABBE0446384605B0BDE8F08314F9011BA5
:1004300004AA1A4402F8101C0133AB42F6D304AAF2
:100440001344002203F8102C4FF00408E9464046FC
:100450004946ABBE8046761B002EE3D03546102EB3
:1004600028BF10250023E8E708B5FFF7CDFF08BD3A
:1004700008B500F0FDF8024A024B9A6008BD00BFC3
:100480000000000800ED00E008B500F019F908BD13
:10049000F8B504460D4617461E462748FFF79CFF51
:1004A00021682648FFF798FF61682548FFF794FF09
:1004B000A1682448FFF790FFE1682348FFF78CFF0D
:1004C00021692248FFF788FF61692148FFF784FF0F
:1004D000A1692048FFF780FFE1691F48FFF77CFF13
:1004E0001E48FFF779FF29461D48FFF775FF1D4C91
:1004F000E16A1D48FFF770FF216B1C48FFF76CFF96
:10050000E16B1B48FFF768FF15F0800F0AD115F467
:10051000004F0CD11748FFF75FFF06991648FFF709
:100520005BFFF8BD39461548FFF756FFEFE7314648
:100530001348FFF751FFEDE78422000894220008DA
:10054000A4220008B4220008C4220008D422000813
:10055000E4220008F4220008042300081423000801
:100560002023000800ED00E03023000840230008AD
:100570005023000880230008882300086023000817
:100580007023000883691A888A4201D000207047CE
:100590000268033A012A03D80233836101207047BD
:1005A0000020704782B00023019300932C4A136807
:1005B00043F4803313602A4B1B6803F40033009329
:1005C000019B01330193009B1BB9019BB3F5A06F05
:1005D000F1D1234B1B6813F4003F06D00123009395
:1005E000009B012B04D002B0704700230093F7E773
:1005F0001C4B1A6842F010021A601A6822F00302BB
:100600001A601A6842F002021A60A3F580535A6811
:100610005A605A685A605A6842F480625A605A684E
:1006200022F47C125A605A6842F4E8125A601A683E
:1006300042F080721A600A4B1B6813F0007FFAD0F8
:10064000074B5A6822F003025A605A6842F00202CD
:100650005A60034B5B6803F00C03082BF9D1C2E727
:10066000001002400020024008B5FFF79BFF08BDC4
:1006700008B5104B1A6842F001021A6059680E4A18
:100680000A405A601A6822F0847222F480321A609A
:100690001A6822F480221A605A6822F4FE025A6014
:1006A0004FF41F029A60FFF7DFFF044B4FF0006228
:1006B0009A6008BD001002400000FFF800ED00E065
:1006C0001F4B5B6803F00C03042B15D0082B17D0CD
:1006D0001BB11C4B1C4A1A6002E01A4B1A4A1A60E2
:1006E000174B5B68C3F30313184AD35CDAB215499E
:1006F0000B68D3400B607047124B134A1A60EFE748
:100700000F4A53685268C3F38343023312F4803FA5
:100710000AD00B4A526812F4003F0BD00C4A02FB7D
:1007200003F3084A1360DBE7094A02FB03F3054AB7
:100730001360D5E7044A02FB03F3024A1360CFE7D4
:10074000001002401C00002000127A000C00002063
:1007500000093D0008B52E4B1B7833B12D4B1A68AC
:100760002D4B1A602A4B00221A702B4B1B68012B51
:1007700010D9294A1368013B1360284B1A6922F0EB
:1007800001021A614FF6FF72DA625A6942F0010201
:100790005A6108BD204B1B68012B23D0204B1B78CE
:1007A00043B91E4BDA6822F00102DA601A6822F0BF
:1007B00001021A601B4B1B689847184A136923F003
:1007C00001031361134B1B68EBB113464FF6FF7225
:1007D000DA62124A536943F0010353610C4B012260
:1007E0001A70D6E70C4A1368013B13600B4B1A6969
:1007F00022F001021A610C4A1268DA625A6942F068
:1008000001025A61C5E7084B1A68044BDA62E0E757
:1008100020000020240100201C010020002C0140A9
:100820002C010020280100202001002008B5044BE5
:100830001B689847034A536943F00103536108BD9D
:10084000300100200004014010B4012824D018B168
:10085000022841D010BC7047072910D90F29F9D8B8
:10086000A1F10804E4B2A4000F23A3402A480168C0
:1008700021EA030302FA04F119430160EAE789005F
:100880000F2303FA01F0254C236823EA000302FA40
:1008900001F119432160DDE7072910D90F29D9D8C3
:1008A000A1F10800C0B280000F2383401C4C2168D6
:1008B00021EA030302FA00F119432160CAE7890023
:1008C0000F2303FA01F0174C236823EA000302FA0E
:1008D00001F119432160BDE7072910D90F29B9D8C3
:1008E000A1F10803DBB29B000F2098400E4C216859
:1008F00021EA000002FA03F101432160AAE789001E
:100900000F2303FA01F0094C236823EA000302FADB
:1009100001F1194321609DE70408014000080140EE
:10092000040C0140000C0140041001400010014083
:10093000012818D010B1022829D07047012A0AD006
:10094000002A2FD1012303FA01F11B4A136823EA7D
:10095000010313607047012303FA01F1164A13687B
:100960000B4313607047012A09D0DAB9012303FA57
:1009700001F1124A136823EA01031360704701234F
:1009800003FA01F10D4A13680B4313607047012A03
:1009900009D03AB9012303FA01F1094A136823EA9D
:1009A000010313607047012303FA01F1044A13683D
:1009B0000B431360704700BF0C0801400C0C014052
:1009C0000C10014008B5314B1B7833B1304B1A681D
:1009D000304B1A602D4B00221A702E4B1B68012BD6
:1009E00011D92C4A1368013B13604FF080431A69F8
:1009F00022F001021A614FF6FF72DA625A6942F080
:100A000001025A6108BD234B1B68012B26D0224BE3
:100A10001B784BB94FF08043DA6822F00102DA60AC
:100A20001A6822F001021A601C4B1B6898474FF0AD
:100A30008042136923F001031361154B1B68FBB15E
:100A400013464FF6FF72DA624FF08042536943F06B
:100A5000010353610D4B01221A70D3E70D4A13684D
:100A6000013B13604FF080431A6922F001021A61C2
:100A70000B4A1268DA625A6942F001025A61C1E710
:100A8000074B1A684FF08043DA62DDE7210000204F
:100A90003C010020340100205C01002058010020AE
:100AA0003801002008B52E4B1B7833B12D4B1A6846
:100AB0002D4B1A602A4B00221A702B4B1B68012BFE
:100AC00010D9294A1368013B1360284B1A6922F098
:100AD00001021A614FF6FF72DA625A6942F00102AE
:100AE0005A6108BD204B1B68012B23D0204B1B787B
:100AF00043B91E4BDA6822F00102DA601A6822F06C
:100B000001021A601B4B1B689847184A136923F0AF
:100B100001031361134B1B68EBB113464FF6FF72D1
:100B2000DA62124A536943F0010353610C4B01220C
:100B30001A70D6E70C4A1368013B13600B4B1A6915
:100B400022F001021A610C4A1268DA625A6942F014
:100B500001025A61C5E7084B1A68044BDA62E0E704
:100B60002200002048010020400100200004004035
:100B700064010020600100204401002008B52E4BD4
:100B80001B7833B12D4B1A682D4B1A602A4B00226B
:100B90001A702B4B1B68012B10D9294A1368013B93
:100BA0001360284B1A6922F001021A614FF6FF7296
:100BB000DA625A6942F001025A6108BD204B1B6893
:100BC000012B23D0204B1B7843B91E4BDA6822F04F
:100BD0000102DA601A6822F001021A601B4B1B68DE
:100BE0009847184A136923F001031361134B1B68DC
:100BF000EBB113464FF6FF72DA62124A536943F0C3
:100C0000010353610C4B01221A70D6E70C4A13689A
:100C1000013B13600B4B1A6922F001021A610C4A66
:100C20001268DA625A6942F001025A61C5E7084B5C
:100C30001A68044BDA62E0E7230000205401002028
:100C40004C010020000800406C01002068010020D9
:100C500050010020064B4FF480321A600433012209
:100C60001A60034B1B6813F4003FFAD0704700BFB3
:100C7000001002401F291CD801280BD010B10228F7
:100C800010D070470B480368012202FA01F11943A2
:100C90000160704708480368012202FA01F1194314
:100CA0000160704705480368012202FA01F1194307
:100CB00001607047141002401C10024018100240DE
:100CC000094B40F241329A60DA6842F00802DA6079
:100CD000DA6842F00402DA60DA6842F40052DA605C
:100CE00000221A60704700BF00380140044B1B68A7
:100CF00013F0200FFAD0024B5868C0B2704700BF03
:100D0000003801407047000008B500230222194650
:100D10000948006800F028FE00230222194607480F
:100D2000006800F021FEFFF7E1FF054B18704FF45B
:100D3000FA7000F07FFDE8E77401002078010020E0
:100D4000D846002008B504E0012200210846FFF73C
:100D5000EFFD4FF0FF31002000F0CAFDC0B20028C7
:100D6000F7D0064B1B78462BEED0422BF1D1002258
:100D700011461046FFF7DCFDEBE700BFD846002028
:100D800008B504E0012200210846FFF7D1FD4FF02D
:100D9000FF31002000F0ACFDC0B20028F7D0064BB8
:100DA0001B78522BEED04C2BF1D10022114610466D
:100DB000FFF7BEFDEBE700BFD846002000B583B0CB
:100DC000FFF748FF02210846FFF754FF0E210220DB
:100DD000FFF750FF0B2209210020FFF735FD042209
:100DE0000A210020FFF730FD022200210846FFF70C
:100DF0002BFD022201210020FFF726FD02221146D1
:100E00000020FFF721FD022203210020FFF71CFD37
:100E1000022204210020FFF717FD164B0193012346
:100E20000093002380221449144800F0A5FB144BC2
:100E3000019302230093002380221249124800F0FC
:100E40009BFB124B01930323009300238022104944
:100E5000104800F091FB104B0193042300930023F2
:100E600080220E490E4800F087FBFFF729FF00F0B3
:100E7000B5FBFEE774010020CC230008450D0008F7
:100E800078010020D4230008810D00087C01002097
:100E9000DC230008090D000870010020E42300088D
:100EA000050D0008124A12F0070F1ED0D11D21F0C7
:100EB0000701C1F5884313440A460E480260002129
:100EC00041601344083B23F007030B48036059605B
:100ED0001960991A51601360084B1960084B19602A
:100EE000084B4FF000421A6070474FF48843E4E724
:100EF0008401002098450020800100208C450020BE
:100F0000884500208445002010B4134A00E01A46AA
:100F100013688342FBD351685418844209D0416856
:100F20004418A3420AD00360904200D0106010BC65
:100F300070474068014451601046F0E7074C246850
:100F4000A34206D05B681944416013681B680360C4
:100F5000EAE70460E8E700BF984500208001002030
:100F600070B5054600F06CFB2A4B1B68A3B12A4BF9
:100F70001B681D4246D135B1083515F0070F02D068
:100F800025F007050835002D3ED0244B1B68AB42E9
:100F90003CD3234A146804E0FFF784FFE7E72246C6
:100FA0001C466368AB4202D22368002BF7D1194B71
:100FB0001B68A3422CD01668083623681360636848
:100FC0005B1B102B18D8626814490B689B1A0B60C6
:100FD000144909688B4201D212490B600E4B1B6801
:100FE00013436360002323600F4A136801331360C7
:100FF00000F0AEFB304670BD601943606560FFF7DE
:1010000083FFE0E70026F3E70026F1E70026EFE79D
:101010000026EDE78001002084450020884500205F
:10102000984500208C4500209045002018B338B525
:101030000446A0F1080550F8042C0F4909680A423B
:1010400002D050F8080C00B138BD22EA010244F881
:10105000042C00F0F5FA54F8041C084A13680B44F9
:1010600013602846FFF750FF054A136801331360E9
:1010700000F06EFBE8E770478445002088450020BB
:101080009445002082B0002301934FF0BF0383F307
:101090001188BFF36F8FBFF34F8F019B002BFCD0E4
:1010A00002B0704706480068006880F3088862B69E
:1010B00061B6BFF34F8FBFF36F8F00DF00BF00003B
:1010C00008ED00E04FF0807340F8043C21F001018E
:1010D00040F8081C034B40F80C3C40F8202C4038EA
:1010E000704700BF851000080000000000000000ED
:1010F000074B19680868B0E8F00F80F30988BFF360
:101100006F8F4FF0000080F311884EF00D0E704786
:10111000A04500204FF0BF0383F31188BFF36F8F0A
:10112000BFF34F8F024A136801331360704700BF4B
:1011300024000020034A1368013B13600BB983F3BA
:10114000118870472400002000000000000000000B
:10115000EFF30980BFF36F8F0D4B1A6820E9F00F92
:1011600010602DE908404FF0BF0080F3118800F0B7
:101170007BFB4FF0000080F31188BDE80840196840
:101180000868B0E8F00F80F30988BFF36F8F7047ED
:10119000A045002008B54FF0BF0383F31188BFF3CB
:1011A0006F8FBFF34F8F00F053FA18B1034B4FF01E
:1011B00080521A60002383F3118808BD04ED00E01B
:1011C000054B00221A6005490A60054A41F63F7145
:1011D000116007221A60704710E000E018E000E09C
:1011E00014E000E010B50B4B1A6842F47F021A605D
:1011F0001A6842F07F421A60FFF7E2FF0024064BB4
:101200001C60FFF74FFF00F02FFBFFF73BFF20466E
:1012100010BD00BF20ED00E02400002000F1080315
:1012200043604FF0FF328260C360036100230360BC
:10123000704700230361704743684B609A688A6077
:101240009A685160996008610368013303607047D0
:1012500030B40D68B5F1FF3F02D000F1080202E0A2
:10126000026904E01A4653681C68AC42FAD9536814
:101270004B6099608A6051600861036801330360C4
:1012800030BC704703694268816891608268416838
:1012900051605A68824206D0002202611A68013AFF
:1012A0001A601868704782685A60F5E7084B1B6837
:1012B0001B683BB1064B1B68DB68DB685A68054B53
:1012C0001A607047034B4FF0FF321A60704700BF3F
:1012D000A44500207846002010B50446006BFFF7B7
:1012E000A5FE2046FFF7A2FE10BD2DE9F04780467F
:1012F0009946089D099F0A9C266B02F18042013A9B
:1013000006EB820626F0070689B30A4600230F2B58
:1013100007D8D056E11881F83400D15609B101330D
:10132000F5E7002384F84330062D00D90625E56251
:1013300065644FF0000AC4F848A0201DFFF779FF4C
:1013400004F11800FFF775FF2461C5F10705A561D9
:101350006462C4F84CA084F850A04A464146304626
:10136000FFF7B0FE206007B13C60BDE8F0870023C6
:1013700084F83430D8E7000038B5002407E004EBE7
:10138000840293000E481844FFF748FF0134062CEE
:10139000F5D90C4D2846FFF741FF0B4C2046FFF7CF
:1013A0003DFF0A48FFF73AFF0948FFF737FF0948B2
:1013B000FFF734FF084B1D60084B1C6038BD00BFB1
:1013C000AC4500204C4600206046002084460020AA
:1013D000B04600209C460020A4450020A8450020DF
:1013E00010B50446FFF796FE204A136801331360D8
:1013F0001F4B1B685BB11F4B1B686BB91C4B1B68F9
:10140000DA6AE36A9A4207D8194B1C6004E0184B69
:101410001C601368012B26D0174A13680133136030
:10142000E36A164A1268934201D9144A136003EB27
:1014300083039A00211D12481044FFF7FDFEFFF7B9
:1014400079FE0C4B1B686BB1094B1B68DA6AE36AC7
:101450009A4207D20B4B4FF080521A60BFF34F8F66
:10146000BFF36F8F10BDFFF787FFD5E73846002029
:10147000A045002098460020444600204846002011
:10148000AC45002004ED00E00F4B1B68D3B110B554
:10149000FFF740FE0D4BDB68DC68201DFFF7F2FE16
:1014A0000B4A1368013B1360074A1368013B136042
:1014B000FFF740FE2046FFF70FFF034B1B68002B92
:1014C000E6D110BD704700BF3C460020B04600206A
:1014D0003846002008B5FFF7D7FF064B1B68012BE5
:1014E000F9D9054B4FF080521A60BFF34F8FBFF30D
:1014F0006F8FF0E7AC45002004ED00E070B50446C6
:101500000E46174B1D68174B18680430FFF7BAFEDC
:10151000B4F1FF3F13D02C44124B1B685C60A54212
:1015200016D8114B18680F4B19680431FFF790FE5D
:101530000E4B1B68A34212D90C4B1C600FE0002E0F
:10154000E9D0084B196804310948FFF775FE06E039
:10155000084B1868034B19680431FFF779FE70BD1A
:10156000C4460020A0450020A44500207846002065
:101570009C460020A84500202DE9F04385B0074691
:101580008846154699469000FFF7EAFCF8B10646F2
:101590005420FFF7E5FC0446A8B10663D4B100234C
:1015A000039302940D9B01930C9B00934B462A4698
:1015B00041463846FFF799FE2046FFF711FF01200C
:1015C00005B0BDE8F0833046FFF730FDE6E74FF0A9
:1015D000FF30F5E74FF0FF30F2E7000000B583B0D1
:1015E000114B019300230093802210491048FFF70C
:1015F000C3FF012802D003B05DF804FB4FF0BF0326
:1016000083F31188BFF36F8FBFF34F8F094B4FF0F8
:10161000FF321A60084B01221A60084B00221A6040
:10162000FFF7E0FDE7E700BF74460020EC23000869
:10163000D51400087846002098460020C4460020B3
:10164000024A136801331360704700BF4046002010
:10165000F8B5344B1B68002B5DD1334B1D68013549
:101660001D60ADB1314B1B68AB424AD90027304BEE
:101670001B68DB6A03EB83039A002E4B9B58012BFC
:1016800000D901272C4B1B68002B49D0012747E0CC
:101690002A4A11682A4B186810601960294A136891
:1016A00001331360FFF702FEDCE70127234B1B68C1
:1016B0001B6843B3214B1B68DB68DC6863689D4291
:1016C00026D3261D3046FFF7DDFDA36A1BB104F1CA
:1016D0001800FFF7D7FDE36A1B4A1268934201D94D
:1016E000194A136003EB83039A00314611481044F2
:1016F000FFF7A2FDE26A0E4B1B68DB6A9A42D4D266
:10170000D4E70027D2E7094B4FF0FF321A60AEE76B
:10171000064A1360ABE70D4A1368013313600027D4
:101720003846F8BD40460020C446002078460020D8
:10173000A0450020AC450020C8460020A44500205C
:10174000A84500207C460020484600208046002016
:1017500038B5FFF7DFFC2E4B1A68013A1A601B6898
:10176000002B4DD12B4B1B683BB300242A4B1B682D
:101770002BB3294BDB68DC6804F11800FFF782FD0E
:10178000251D2846FFF77EFDE36A244A126893422E
:1017900001D9224A136003EB83039A0029462048AB
:1017A0001044FFF749FDE26A1E4B1B68DB6A9A4250
:1017B000DCD31D4B01221A60D8E7002421E00CB1D4
:1017C000FFF774FD194B1C6874B9174B1B68E3B124
:1017D000174B4FF080521A60BFF34F8FBFF36F8FDC
:1017E00001240EE0013C07D0FFF732FF0028F9D0BA
:1017F0000D4B01221A60F5E70C4B00221A60E4E75A
:101800000024FFF797FC204638BD0024F9E700BF0D
:1018100040460020384600208446002048460020EC
:10182000AC450020A0450020C8460020804600208E
:1018300004ED00E010B540B90A4B4FF080521A6039
:10184000BFF34F8FBFF36F8F10BD0446FFF7F8FE55
:1018500000212046FFF752FEFFF77AFF0028EBD069
:10186000F2E700BF04ED00E01C4B1B6833B910B475
:101870001B4B00221A601B4B1B6804E0184B012213
:101880001A607047013B03EB83018A0016498A58AE
:10189000002AF7D008469A00D418A10001444C68E9
:1018A00064684C601A4491000831084484420CD0AA
:1018B00003EB830291000C4A0A445268D1680B4A38
:1018C0001160084A136010BC7047606803EB830224
:1018D0009100054A0A445060EAE700BF40460020F4
:1018E000C846002048460020AC450020A045002006
:1018F00038B505460C46FFF70DFC194B1B68DB6C31
:101900002BB9174B1B68012283F85020ACB9FFF7A5
:1019100011FCFFF7FFFB124B1B68DC6C24B1CDB947
:101920000F4B1B68621EDA640D4B1B68002283F8A4
:101930005020FFF7FFFB204638BD11462046FFF739
:10194000DDFD084B4FF080521A60BFF34F8FBFF39D
:101950006F8FDCE7024B1B680022DA64E4E700BF0C
:10196000A045002004ED00E0F8B504460F461546FA
:101970001E46FFF7CFFB0EB1E36C336094F8503096
:10198000DBB2022284F850206A1E032A15D8DFE851
:1019900002F002070C0FE26C1743E76401250DE02B
:1019A000E26C0132E264012508E0E764012505E00C
:1019B000022B09D0E764012500E00125012B05D0A9
:1019C000FFF7B8FB2846F8BD0025F7E7261D30468F
:1019D000FFF758FCE36A0E4A1268934201D90C4A99
:1019E000136003EB83039A0031460A481044FFF763
:1019F00023FCE26A084B1B68DB6A9A42E0D9074B7A
:101A00004FF080521A60BFF34F8FBFF36F8FD7E74D
:101A100048460020AC450020A045002004ED00E031
:101A2000014B1868704700BF2800002010B5431E06
:101A30000A44914200D110BD11F8014B03F8014F47
:101A4000F7E730B5141E05469BB0184605DA8B2320
:101A50004FF0FF302B601BB030BD4FF40273ADF878
:101A60000C300CBF234604F1FF33029305934FF66D
:101A7000FF7300910491ADF80E3002461E9B69463B
:101A8000284600F073F8431CBCBF8B232B60002C4E
:101A9000E1D00022009B1A70DDE7000007B500933B
:101AA00013460A46014603480068FFF7CAFF03B021
:101AB0005DF804FB280000202DE9F0478E6882467F
:101AC0009E420C469046994637D88A8912F4906F08
:101AD00031D00223256809696F1A656905EB450550
:101AE00095FBF3F509F101033B449D4238BF1D46C8
:101AF000530530D5294600F02BFB064650B90C2380
:101B00004FF0FF30CAF80030A38943F04003A381AF
:101B1000BDE8F0873A462169FFF788FFA38923F4DF
:101B2000906343F08003A38126613E4426604E46C5
:101B30006561ED1BA5604E4500D94E4632464146D3
:101B4000206800F09FFAA36800209B1BA360236815
:101B50001E442660DCE72A4600F054FB06460028B7
:101B6000E2D12169504600F0A7FAC8E72DE9F04F0D
:101B70009DB003938B8980461D060C4616460FD5F3
:101B80000B696BB9402100F0E3FA2060206128B9AD
:101B90000C23C8F800304FF0FF30C7E040236361EA
:101BA0000023099320238DF8293030234FF0010BB7
:101BB0008DF82A3037463D4615F8013B0BB1252BF1
:101BC0003ED1B7EB060A0BD053463246214640467B
:101BD000FFF772FF013000F0A480099B5344099382
:101BE0003B78002B00F09D8000234FF0FF32CDE9C1
:101BF0000523049307938DF853301A932F4605223B
:101C000017F8011B4F4800F02FFA049BD0B9D906F2
:101C100044BF20228DF853201A0744BF2B228DF891
:101C200053202A782A2A15D02F4600200A25079A01
:101C3000394611F8013B303B092B4DD9B8B10FE0C3
:101C40002F46B8E73F4A3D46801A0BFA00F018438A
:101C50000490D3E7039A111D12680391002A01DB57
:101C6000079204E0524243F00203079204933B7848
:101C70002E2B0CD17B782A2B33D1039B02371A1DD4
:101C80001B680392002BB8BF4FF0FF3305932E4D16
:101C900003223978284600F0E7F938B14023401B89
:101CA00003FA00F0049B01370343049339780622BA
:101CB00026487E1C8DF8281000F0D6F9002838D070
:101CC000234B13BB039B073323F007030833039312
:101CD000099B4B4409936DE705FB023201200F4637
:101CE000A6E700230A25194601370593384610F860
:101CF000012B303A092A03D9002BC8D00591C6E739
:101D000005FB012101230746F0E703AB00932246C0
:101D1000104B04A94046AFF30080B0F1FF3F81466D
:101D2000D6D1A3895B063FF536AF09981DB0BDE853
:101D3000F08F03AB00932246064B04A9404600F007
:101D400081F8EAE7F4230008FA230008FE230008DC
:101D500000000000B91A00082DE9F04791461F461F
:101D60008A680B6906469342B8BF1346C9F800302B
:101D700091F843200C46DDF8208012B10133C9F8F8
:101D800000302368990642BFD9F800300233C9F801
:101D90000030256815F0060507D104F1190AE3683B
:101DA000D9F800209B1AAB4229DC94F84330226812
:101DB000003318BF012392062ED404F143023946A2
:101DC0003046C047013021D02368E56803F00603A0
:101DD000042B18BF0025D9F800204FF0000908BFD8
:101DE000AD1AA368226908BF25EAE5759342C4BF0E
:101DF0009B1AED181A344D451AD1002008E0012332
:101E0000524639463046C047013003D14FF0FF30CB
:101E1000BDE8F0870135C2E73020E11881F84300C2
:101E20005A1C94F845102244023382F84310C4E748
:101E30000123224639463046C0470130E6D009F139
:101E40000109D8E72DE9F04301F1430C0C46097E66
:101E500085B06E291746064698460C9A00F0B38066
:101E600022D8632936D00AD8002900F0B980582931
:101E700000F0838004F1420584F8421032E06429C6
:101E800001D06929F6D120681368050603F1040121
:101E90002AD51B681160002B03DA2D225B4284F8DF
:101EA00043206F480A2239E0732900F09D8008D84A
:101EB0006F2920D07029DDD1236843F020032360EF
:101EC00003E0752917D07829D4D17823654884F8A0
:101ED000453055E0136804F14205191D1B68116077
:101EE00084F8423001238CE01B6810F0400F116031
:101EF00018BF1BB2CFE713682568181D10602806AD
:101F000001D51B6802E06806FBD51B886F2914BF4A
:101F10000A2208225248002184F843106568002DE7
:101F2000A560C0F29580216821F004012160002B9A
:101F30003DD1002D40F08E806546082A0BD12368E4
:101F4000DB0708D5236962689A42DEBF302305F8B3
:101F5000013C05F1FF35ACEB05032361CDF80080B2
:101F60003B4603AA21463046FFF7F6FE01304DD12D
:101F70004FF0FF3005B0BDE8F083394884F84510D4
:101F8000136821681D1D1B6815600A060BD5CA075A
:101F900044BF41F0200121601BB9226822F02002D9
:101FA00022601022B7E74D0648BF9BB2EFE76546B7
:101FB000B3FBF2F102FB1133C35C05F8013D0B46A4
:101FC0000029F5D1B9E713682568181D616910600B
:101FD00028061B6801D5196002E06A06FBD5198046
:101FE000002365462361B9E71368191D11601D6858
:101FF00062680021284600F037F808B1401B606095
:1020000063682361002384F84330A7E723692A46E5
:1020100039463046C0470130AAD023689B0713D405
:10202000E068039B9842B8BF1846A3E701234A46DD
:1020300039463046C04701309AD00135E368039AEB
:102040009B1AAB42F2DCEBE7002504F11909F5E736
:10205000002BACD1037804F1420584F842306CE7E0
:10206000052400081624000810B5C9B202449042A5
:10207000034601D1002303E01C7801308C42F6D1E5
:10208000184610BD884210B501EB020307D8421E66
:1020900099420AD011F8014B02F8014FF8E7834248
:1020A000F5D98118D21AD34200D110BD13F8014DD1
:1020B00001F8014DF7E7000038B50546002943D087
:1020C00051F8043C0C1F002BB8BFE41800F0D0F806
:1020D0001E4A1368104633B9636014602846BDE891
:1020E000384000F0C6B8A3420BD921686218934269
:1020F00001BF1A685B685218226063600460EDE7F4
:1021000013465A680AB1A242FAD919685818A0426F
:102110000BD120680144581882421960DED1106842
:102120005268014419605A60D8E702D90C232B6029
:10213000D4E7206821188A4201BF11685268091843
:10214000216062605C60C9E738BD00BFCC460020FA
:1021500070B5CD1C25F0030508350C2D38BF0C25B6
:10216000002D064601DBA94203D90C233360002071
:1021700070BD00F07DF8214A1468214691B9204CC9
:1021800023681BB9304600F063F8206029463046CA
:1021900000F05EF8431C24D10C233046336000F07D
:1021A00068F8E4E70B685B1B18D40B2B0FD90B60A6
:1021B000CC18CD50304600F05CF804F10B00231D24
:1021C00020F00700C31AD3D05A42E250D0E74B6840
:1021D0008C4216BF636013600C46EBE70C464968FF
:1021E000CCE7C41C24F00304A04205D0211A3046D9
:1021F00000F02EF80130CFD02560DBE7CC46002080
:10220000D0460020F8B5074614460E4621B9BDE871
:10221000F8401146FFF79CBF22B9FFF74DFF254656
:102220002846F8BD00F026F8A0420FD221463846D5
:10223000FFF78EFF05460028F2D031462246FFF711
:10224000F5FB31463846FFF737FFE9E73546E7E764
:1022500038B50023054C054608462360FEF792F882
:10226000431C02D1236803B12B6038BDD446002043
:102270007047704751F8043C181F002BBCBF0B5827
:10228000C0187047537461636B206672616D653A64
:102290000A000000205230203D2020253038580A06
:1022A00000000000205231203D2020253038580AFF
:1022B00000000000205232203D2020253038580AEE
:1022C00000000000205233203D2020253038580ADD
:1022D0000000000020523132203D20253038580ABD
:1022E00000000000204C52203D2020253038580AA4
:1022F00000000000205043203D2020253038580A9F
:102300000000000020505352203D20253038580A4C
:10231000000000004653522F4641523A0A00000086
:102320002043465352203D2020253038580A0000D3
:102330002048465352203D2020253038580A0000BE
:102340002044465352203D2020253038580A0000B2
:102350002041465352203D2020253038580A0000A5
:10236000204D4D464152203D20253038580A00006E
:102370002042464152203D2020253038580A000096
:102380004D6973630A000000204C522F4558435F8B
:1023900052455455524E3D20253038580A00000011
:1023A0005B486172644661756C745D0A00000000F0
:1023B0005B4275734661756C745D0A005B557361B1
:1023C00067654661756C745D0A0000006D6F746F1F
:1023D00072000000736572766F0000005541525420
:1023E00000000000436865636B00000049444C45F1
:1023F00000000000232D302B2000686C4C00656627
:102400006745464700303132333435363738394145
:10241000424344454600303132333435363738395B
:072420006162636465660060
:1024280078563412980000200000000000000000D8
:1024380000000000010203040607080900A24A047C
:1024480001010101AAAAAAAA2C000020000000008C
:102458000000000000000000000000000000000074
:102468000000000000000000000000000000000064
:102478000000000000000000000000000000000054
:102488000000000000000000000000000000000044
:102498000000000000000000000000000000000034
:1024A8000000000000000000000000003254769890
:040000050800010DE1
:00000001FF
