:020000040800F2
:100000000050002021020008270200082B020008EF
:100010009D020008A1020008E9020008000000009B
:100020000000000000000000000000003103000894
:10003000350300080000000039030008D10D000856
:100040004D0300084D0300084D0300084D03000850
:100050004D0300084D030008D10700084D030008B8
:100060004D0300084D0300084D0300084D03000830
:100070004D0300084D0300084D0300084D03000820
:100080004D0300084D0300084D0300084D03000810
:100090004D0300084D0300084D0300084D03000800
:1000A0004D0300084D0300084D0300084D030008F0
:1000B000410A0008210B0008F90B00084D03000855
:1000C0004D0300084D0300084D0300084D030008D0
:1000D0004D0300084D0300084D0300084D030008C0
:1000E0004D0300084D0300084D0300080000000008
:1000F0000000000000000000000000000000000000
:1001000000000000000000005FF808F100B583B0B7
:1001100000F0AAF9304B314A1360314A1360314B79
:10012000314A32498B4204D21168196004330432D7
:10013000F7E72A4B1A682E4B9A4200D0FEE7284B6D
:100140001A682C4B9A42F9D1234B2B4A13602B4A45
:1001500013602B4B02E000221A600433294A9342B9
:10016000F9D3254B1B6813B9244B1B6803B1FEE779
:1001700000F086F9694601A800F022F9224C234BD1
:10018000E41AA4100025AC4214DC214C214BE41AE3
:10019000A4100025AC4213DC0099019800F038FF50
:1001A00005461D4C1D4BE41AA410002C0EDC2846FD
:1001B00000F0E2F8154B53F8253098470135E2E797
:1001C000144B53F8253098470135E3E7013C134BB6
:1001D00053F824309847E8E7BABADECA0000002096
:1001E000FC3E002000000020A81A0008003F00206C
:1001F0007856341232547698003F0020B0400020E8
:10020000003F0020B4400020780300087803000875
:1002100078030008780300087803000878030008D2
:1002200008B5FFF773FF00BEFEE71EF0040F0CBF1A
:10023000EFF30880EFF309807146414A10472DE93A
:10024000F04182B004468846124B5E6B9F6B9D6AFC
:100250001B6B13F0020F03D00E4BDB6A002B0CDB81
:100260000D4800F0B5F8CDF800803B4632462946EF
:10027000204600F009F900BEFEE74BF6AB6100F046
:100280007DF90028ECD0034B4FF00042DA6202B057
:10029000BDE8F08100ED00E0481A000800BEFEE76E
:1002A0001EF0040F0CBFEFF30880EFF309807146D6
:1002B000244A10472DE9F04182B004468846084B95
:1002C0005E6B9F6B9D6A074800F082F8CDF8008056
:1002D0003B4632462946204600F0D6F800BEFEE7EF
:1002E00000ED00E0581A00081EF0040F0CBFEFF3F9
:1002F0000880EFF309807146134A10472DE9F04159
:1003000082B004468846084B5E6B9F6B9D6A074827
:1003100000F05EF8CDF800803B4632462946204684
:1003200000F0B2F800BEFEE700ED00E0641A00083D
:1003300000BEFEE700BEFEE700BEFEE7704700001D
:100340003F020008B5020008FD02000800BEFEE7FB
:10035000A81A000800000020003F0020A81A00088A
:100360000000000000000000003F0020B44000201A
:08037000000000000000000085
:10037800FEE7000008B503460C4A12685AB10B4A5A
:100388001068033323F003030344094A934206D851
:10039800064A136008BD054A06491160EFE700F0F8
:1003A80091FE0C2303604FF0FF30F3E7043F002079
:1003B800004C0020B440002001230360014B0B6077
:1003C800704700BF040000200FB400B583B004AB31
:1003D80053F8042B01938021064800F0A5FE00285D
:1003E80003DD0146034800F037F803B05DF804EB7D
:1003F80004B070470C3F00202DE9F04385B0044657
:100408000F4643560BB10E461EE0042528462146EA
:10041800ABBE0446384605B0BDE8F08314F9011BAD
:1004280004AA1A4402F8101C0133AB42F6D304AAFA
:100438001344002203F8102C4FF00408E946404604
:100448004946ABBE8046761B002EE3D03546102EBB
:1004580028BF10250023E8E708B5FFF7CDFF08BD42
:1004680008B500F0FDF8024A024B9A6008BD00BFCB
:100478000000000800ED00E008B500F019F908BD1B
:10048800F8B504460D4617461E462748FFF79CFF59
:1004980021682648FFF798FF61682548FFF794FF11
:1004A800A1682448FFF790FFE1682348FFF78CFF15
:1004B80021692248FFF788FF61692148FFF784FF17
:1004C800A1692048FFF780FFE1691F48FFF77CFF1B
:1004D8001E48FFF779FF29461D48FFF775FF1D4C99
:1004E800E16A1D48FFF770FF216B1C48FFF76CFF9E
:1004F800E16B1B48FFF768FF15F0800F0AD115F470
:10050800004F0CD11748FFF75FFF06991648FFF711
:100518005BFFF8BD39461548FFF756FFEFE7314650
:100528001348FFF751FFEDE72C1900083C190008A4
:100538004C1900085C1900086C1900087C1900089F
:100548008C1900089C190008AC190008BC1900088F
:10055800C819000800ED00E0D8190008E8190008DB
:10056800F8190008281A0008301A0008081A0008A4
:10057800181A000883691A888A4201D00020704737
:100588000268033A012A03D80233836101207047C5
:100598000020704782B00023019300932C4A13680F
:1005A80043F4803313602A4B1B6803F40033009331
:1005B800019B01330193009B1BB9019BB3F5A06F0D
:1005C800F1D1234B1B6813F4003F06D0012300939D
:1005D800009B012B04D002B0704700230093F7E77B
:1005E8001C4B1A6842F010021A601A6822F00302C3
:1005F8001A601A6842F002021A60A3F580535A681A
:100608005A605A685A605A6842F480625A605A6856
:1006180022F47C125A605A6842F4E8125A601A6846
:1006280042F080721A600A4B1B6813F0007FFAD000
:10063800074B5A6822F003025A605A6842F00202D5
:100648005A60034B5B6803F00C03082BF9D1C2E72F
:10065800001002400020024008B5FFF79BFF08BDCC
:1006680008B5104B1A6842F001021A6059680E4A20
:100678000A405A601A6822F0847222F480321A60A2
:100688001A6822F480221A605A6822F4FE025A601C
:100698004FF41F029A60FFF7DFFF044B4FF0006230
:1006A8009A6008BD001002400000FFF800ED00E06D
:1006B8001F4B5B6803F00C03042B15D0082B17D0D5
:1006C8001BB11C4B1C4A1A6002E01A4B1A4A1A60EA
:1006D800174B5B68C3F30313184AD35CDAB21549A6
:1006E8000B68D3400B607047124B134A1A60EFE750
:1006F8000F4A53685268C3F38343023312F4803FAE
:100708000AD00B4A526812F4003F0BD00C4A02FB85
:1007180003F3084A1360DBE7094A02FB03F3054ABF
:100728001360D5E7044A02FB03F3024A1360CFE7DC
:10073800001002401C00002000127A000C0000206B
:1007480000093D0030B4032813D9072808D90B281D
:100758000AD90F2822D8A0F10C03D8B2032309E044
:100768000438C0B2012305E0A0F10803D8B202237F
:1007780000E000230A4A023352F8234080000F2584
:10078800854024EA050442F8234052F8234001FA40
:1007980000F0204342F8230030BC70470023E9E70B
:1007A80000000140044B1A6842F001021A60DA683E
:1007B80042F00102DA60704700040140014B186002
:1007C800704700BF8C3F002008B5044B1B68984752
:1007D800034A536943F00103536108BD8C3F00206D
:1007E8000004014010B4012827D018B1022847D0CE
:1007F80010BC7047072912D90F29F9D8A1F10804AC
:10080800E4B2314B1968A4000F20A04021EA00018E
:100818001960186802FA04F101431960E8E72B4BE4
:10082800186889000F248C4020EA040018601868B2
:1008380002FA01F101431960DAE7072912D90F29F1
:10084800D6D8A1F10800C0B2214B196880000F2446
:10085800844021EA040119601C6802FA00F121436E
:100868001960C5E71B4B186889000F248C4020EAE3
:1008780004001860186802FA01F101431960B7E72B
:10088800072912D90F29B3D8A1F10803DBB21248FE
:1008980001689B000F249C4021EA04010160046860
:1008A80002FA03F121430160A2E70C4B18688900A2
:1008B8000F248C4020EA04001860186802FA01F13D
:1008C8000143196094E700BF040801400008014093
:1008D800040C0140000C01400410014000100140CC
:1008E800012817D010B1022827D07047012A0AD052
:1008F800002A2DD11A480368012202FA01F123EADD
:100908000101016070471648036802FA01F11943B2
:1009180001607047012A09D0D2B912480368012240
:1009280002FA01F123EA0101016070470D480368EA
:1009380002FA01F1194301607047012A09D03AB956
:1009480009480368012202FA01F123EA0101016062
:1009580070470548036802FA01F1194301607047BE
:100968000C0801400C0C01400C1001404FF0804372
:100978001A6822F070021A601A6842F010021A60AF
:100988001A6842F080021A601A6842F004021A607B
:100998001A6822F002021A60DA6822F00102DA60AC
:1009A80007229A62704700001D4B19601D4B0022F8
:1009B8001A701D4BA3FB0023DB0B1C4A1360C3EB0F
:1009C8000343C11A1A4B196011681A4B19604FF08A
:1009D80080410B6823F001030B6013689BB9144B2B
:1009E8001A684FF08043DA625A6942F001025A618C
:1009F8001A6842F001021A604FF08042D36843F04F
:100A08000103D36070474FF6FF72CA624A6942F029
:100A180001024A610A6842F001020A60ECE700BF7D
:100A2800B43F0020B83F002001800080983F00209C
:100A3800943F0020903F002008B5314B1B7833B11C
:100A4800304B1A68304B1A602D4B00221A702E4B0F
:100A58001B68012B11D92C4A1368013B13604FF016
:100A680080431A6922F001021A614FF6FF72DA62B6
:100A78005A6942F001025A6108BD234B1B68012BD9
:100A880026D0224B1B784BB94FF08043DA6822F00E
:100A98000102DA601A6822F001021A601C4B1B6816
:100AA80098474FF08042136923F001031361154BF7
:100AB8001B68FBB113464FF6FF72DA624FF08042B3
:100AC800536943F0010353610D4B01221A70D3E7B8
:100AD8000D4A1368013B13604FF080431A6922F0F6
:100AE80001021A610B4A1268DA625A6942F001027D
:100AF8005A61C1E7074B1A684FF08043DA62DDE7B5
:100B080020000020983F0020903F0020B83F0020A0
:100B1800B43F0020943F002008B52E4B1B7833B11A
:100B28002D4B1A682D4B1A602A4B00221A702B4B3A
:100B38001B68012B10D9294A1368013B1360284B05
:100B48001A6922F001021A614FF6FF72DA625A69D5
:100B580042F001025A6108BD204B1B68012B23D0CB
:100B6800204B1B7843B91E4BDA6822F00102DA6089
:100B78001A6822F001021A601B4B1B689847184A32
:100B8800136923F001031361134B1B68EBB1134680
:100B98004FF6FF72DA62124A536943F00103536158
:100BA8000C4B01221A70D6E70C4A1368013B1360FC
:100BB8000B4B1A6922F001021A610C4A1268DA62B8
:100BC8005A6942F001025A61C5E7084B1A68044B9A
:100BD800DA62E0E721000020A43F00209C3F0020CB
:100BE80000040040C03F0020BC3F0020A03F002080
:100BF80008B52E4B1B7833B12D4B1A682D4B1A6054
:100C08002A4B00221A702B4B1B68012B10D9294A3A
:100C18001368013B1360284B1A6922F001021A611C
:100C28004FF6FF72DA625A6942F001025A6108BD52
:100C3800204B1B68012B23D0204B1B7843B91E4B3C
:100C4800DA6822F00102DA601A6822F001021A60FA
:100C58001B4B1B689847184A136923F0010313615B
:100C6800134B1B68EBB113464FF6FF72DA62124A58
:100C7800536943F0010353610C4B01221A70D6E704
:100C88000C4A1368013B13600B4B1A6922F00102EE
:100C98001A610C4A1268DA625A6942F001025A6112
:100CA800C5E7084B1A68044BDA62E0E72200002027
:100CB800B03F0020A83F002000080040C83F0020A7
:100CC800C43F0020AC3F0020014B024A1A60704725
:100CD8000CED00E00005FA051F2809D93B2806D8C5
:100CE8002038C0B2012303FA00F0044B18607047A3
:100CF800012303FA00F0024B1860704704E100E09A
:100D080000E100E0064B4FF480321A600433012200
:100D18001A60034B1B6813F4003FFAD0704700BFFA
:100D2800001002401F291CD801280BD010B102283E
:100D380010D070470B480368012202FA01F11943E9
:100D48000160704708480368012202FA01F119435B
:100D58000160704705480368012202FA01F119434E
:100D680001607047141002401C1002401810024025
:100D7800014B00221A60704710E000E010B40B4BE2
:100D88001A6822F001021A6000249C6058601A68F0
:100D980042F001021A60064A1160064A14701A6885
:100DA80042F002021A6010BC704700BF10E000E079
:100DB800CC3F0020D03F0020024B58689B68C01AE7
:100DC800704700BF10E000E008B5084B1B7843B936
:100DD800074B1A6822F002021A6000221A605A6051
:100DE8009A60044B1B68984708BD00BFD03F00209D
:100DF80010E000E0CC3F00200A4A13889BB20A4961
:100E0800C95C0A4B1960138801339BB2138013889D
:100E18009BB241F2EF12934200D07047014B00227F
:100E28001A80FAE7A0400020240000200C080140A6
:100E38000A4A13889BB20A49C95C0A4B196013888D
:100E480001339BB2138013889BB240F61B52934226
:100E580000D07047014B00221A80FAE7A04000201A
:100E6800141200200C0801400A4A13889BB20A4950
:100E7800C95C0A4B1960138801339BB2138013882D
:100E88009BB240F62D72934200D07047014B00226E
:100E98001A80FAE7A0400020301F00200C0801400B
:100EA8000A4A13889BB20A49C95C0A4B196013881D
:100EB80001339BB2138013889BB241F236029342EE
:100EC80000D07047014B00221A80FAE7A0400020AA
:100ED800602E00200C08014038B50E4B1B7883B1FA
:100EE8000D4C2578EDB2FFF767FF0C4B43F8250052
:100EF8000B490C48FFF742FF23780133DBB223701C
:100F080038BD07490748FFF739FF024B01221A701D
:100F1800F6E700BF9E4000209D400020D43F0020FF
:100F2800810F000840420F0008B50E4B1B78443B68
:100F3800032B07D8DFE803F0110C07020A497D20CC
:100F4800FFF732FD08BD09497D20FFF72DFDF9E7C0
:100F580007497D20FFF728FDF4E706497D20FFF7C4
:100F680023FDEFE79C400020010E0008390E000821
:100F7800710E0008A90E000808B51F4B00221A7050
:100F88001E4B1A6842F20F739A422DD91B4B1A68EE
:100F980043F2B0639A4227D8002309E0012202FAFB
:100FA80001F11548027822EA010202700133DBB22E
:100FB800072B17D8194603F11100104A52F82020C0
:100FC800B2F5FA6FEAD30D4A52F8200040F6FC0257
:100FD8009042E3D801229A40074801781143C9B2E8
:100FE8000170E3E7FFF7A0FF0023054A1370034AE7
:100FF8001360044A137008BD9C400020D43F0020B1
:101008009E4000209D40002008B5FFF77BFE002190
:101018000220FFF787FE02210846FFF783FE03211F
:101028000220FFF77FFE00210120FFF77BFE082248
:1010380000210120FFF7D6FB012200211046FFF70F
:101048004FFC022208210020FFF7CCFB02220121DD
:101058000020FFF7C7FB022211460020FFF7C2FB62
:10106800022203210020FFF7BDFB022204210020F9
:10107800FFF7B8FB022205210020FFF7B3FB02228D
:1010880006210020FFF7AEFB022207210020FFF710
:10109800A9FB01210020FFF755FB0948FFF78EFB4C
:1010A800FFF780FBFFF710FE0620FFF715FE1C2058
:1010B800FFF712FEFFF75CFEFFF758FCFEE700BFE4
:1010C800E10E0008014B1868704700BF983E0020E9
:1010D80030B5141E05469BB0184605DA8B234FF031
:1010E800FF302B601BB030BD4FF40273ADF80C30ED
:1010F8000CBF234604F1FF33029305934FF6FF73A9
:1011080000910491ADF80E3002461E9B69462846B0
:1011180000F072F8431CBCBF8B232B60002CE1D07D
:101128000022009B1A70DDE707B5009313460A46B4
:10113800014603480068FFF7CBFF03B05DF804FBE6
:10114800983E00202DE9F0478E6882469E420C4664
:101158009046994637D88A8912F4906F31D0022385
:10116800256809696F1A656905EB450595FBF3F56F
:1011780009F101033B449D4238BF1D46530530D554
:10118800294600F035FB064650B90C234FF0FF30D6
:10119800CAF80030A38943F04003A381BDE8F08773
:1011A8003A46216900F0B4FAA38923F4906343F026
:1011B8008003A38126613E4426604E466561ED1B8F
:1011C800A5604E4500D94E4632464146206800F09B
:1011D800AAFAA36800209B1BA36023681E4426600C
:1011E800DCE72A4600F05EFB06460028E2D12169CA
:1011F800504600F0B1FAC8E72DE9F04F9DB00393CF
:101208008B8980461D060C4616460FD50B696BB9AF
:10121800402100F0EDFA2060206128B90C23C8F8BD
:1012280000304FF0FF30C7E040236361002309938B
:1012380020238DF8293030234FF0010B8DF82A3008
:1012480037463D4615F8013B0BB1252B3ED1B7EB90
:10125800060A0BD05346324621464046FFF772FF36
:10126800013000F0A480099B534409933B78002B7C
:1012780000F09D8000234FF0FF32CDE90523049351
:1012880007938DF853301A932F46052217F8011B40
:101298004F4800F02FFA049BD0B9D90644BF20224A
:1012A8008DF853201A0744BF2B228DF853202A7833
:1012B8002A2A15D02F4600200A25079A394611F800
:1012C800013B303B092B4DD9B8B10FE02F46B8E7A9
:1012D8003F4A3D46801A0BFA00F018430490D3E7C2
:1012E800039A111D12680391002A01DB079204E09A
:1012F800524243F00203079204933B782E2B0CD101
:101308007B782A2B33D1039B02371A1D1B68039263
:10131800002BB8BF4FF0FF3305932E4D03223978C9
:10132800284600F0E7F938B14023401B03FA00F0E3
:10133800049B0137034304933978062226487E1C10
:101348008DF8281000F0D6F9002838D0234B13BBAD
:10135800039B073323F0070308330393099B4B448C
:1013680009936DE705FB023201200F46A6E700232B
:101378000A25194601370593384610F8012B303AEB
:10138800092A03D9002BC8D00591C6E705FB01211E
:1013980001230746F0E703AB00932246104B04A94C
:1013A8004046AFF30080B0F1FF3F8146D6D1A38914
:1013B8005B063FF536AF09981DB0BDE8F08F03AB6B
:1013C80000932246064B04A9404600F081F8EAE75C
:1013D800741A00087A1A00087E1A00080000000033
:1013E8004D1100082DE9F04791461F468A680B69A0
:1013F80006469342B8BF1346C9F8003091F8432017
:101408000C46DDF8208012B10133C9F8003023689A
:10141800990642BFD9F800300233C9F80030256870
:1014280015F0060507D104F1190AE368D9F8002078
:101438009B1AAB4229DC94F843302268003318BF6A
:10144800012392062ED404F1430239463046C047A0
:10145800013021D02368E56803F00603042B18BF88
:101468000025D9F800204FF0000908BFAD1AA3687D
:10147800226908BF25EAE5759342C4BF9B1AED1897
:101488001A344D451AD1002008E001235246394646
:101498003046C047013003D14FF0FF30BDE8F08738
:1014A8000135C2E73020E11881F843005A1C94F84E
:1014B80045102244023382F84310C4E70123224630
:1014C80039463046C0470130E6D009F10109D8E76E
:1014D8002DE9F04301F1430C0C46097E85B06E29D5
:1014E8001746064698460C9A00F0B38022D863291E
:1014F80036D00AD8002900F0B980582900F0838036
:1015080004F1420584F8421032E0642901D06929C7
:10151800F6D120681368050603F104012AD51B6873
:101528001160002B03DA2D225B4284F843206F48B8
:101538000A2239E0732900F09D8008D86F2920D04D
:101548007029DDD1236843F02003236003E0752967
:1015580017D07829D4D17823654884F8453055E0E8
:10156800136804F14205191D1B68116084F84230A4
:1015780001238CE01B6810F0400F116018BF1BB2EC
:10158800CFE713682568181D1060280601D51B6869
:1015980002E06806FBD51B886F2914BF0A220822BF
:1015A8005248002184F843106568002DA560C0F2F8
:1015B8009580216821F004012160002B3DD1002D88
:1015C80040F08E806546082A0BD12368DB0708D5D2
:1015D800236962689A42DEBF302305F8013C05F1B1
:1015E800FF35ACEB05032361CDF800803B4603AA29
:1015F80021463046FFF7F6FE01304DD14FF0FF305F
:1016080005B0BDE8F083394884F8451013682168AF
:101618001D1D1B6815600A060BD5CA0744BF41F09B
:10162800200121601BB9226822F0200222601022CA
:10163800B7E74D0648BF9BB2EFE76546B3FBF2F14B
:1016480002FB1133C35C05F8013D0B460029F5D1B7
:10165800B9E713682568181D6169106028061B68BA
:1016680001D5196002E06A06FBD51980002365469A
:101678002361B9E71368191D11601D6862680021AC
:10168800284600F037F808B1401B606063682361A2
:10169800002384F84330A7E723692A4639463046B1
:1016A800C0470130AAD023689B0713D4E068039B86
:1016B8009842B8BF1846A3E701234A463946304640
:1016C800C04701309AD00135E368039A9B1AAB42B0
:1016D800F2DCEBE7002504F11909F5E7002BACD1A2
:1016E800037804F1420584F842306CE7851A000853
:1016F800961A000810B5C9B202449042034601D1B7
:10170800002303E01C7801308C42F6D1184610BD46
:1017180010B5431E0A44914200D110BD11F8014B87
:1017280003F8014FF7E7884210B501EB020307D829
:10173800421E99420AD011F8014B02F8014FF8E70E
:101748008342F5D98118D21AD34200D110BD13F8BB
:10175800014D01F8014DF7E738B50546002943D09A
:1017680051F8043C0C1F002BB8BFE41800F0D0F867
:101778001E4A1368104633B9636014602846BDE8F2
:10178800384000F0C6B8A3420BD9216862189342CA
:1017980001BF1A685B685218226063600460EDE755
:1017A80013465A680AB1A242FAD919685818A042D1
:1017B8000BD120680144581882421960DED11068A4
:1017C8005268014419605A60D8E702D90C232B608B
:1017D800D4E7206821188A4201BF116852680918A5
:1017E800216062605C60C9E738BD00BFA44000208A
:1017F80070B5CD1C25F0030508350C2D38BF0C2518
:10180800002D064601DBA94203D90C2333600020D2
:1018180070BD00F07DF8214A1468214691B9204C2A
:1018280023681BB9304600F063F82060294630462B
:1018380000F05EF8431C24D10C233046336000F0DE
:1018480068F8E4E70B685B1B18D40B2B0FD90B6007
:10185800CC18CD50304600F05CF804F10B00231D85
:1018680020F00700C31AD3D05A42E250D0E74B68A1
:101878008C4216BF636013600C46EBE70C46496860
:10188800CCE7C41C24F00304A04205D0211A30463A
:1018980000F02EF80130CFD02560DBE7A44000200F
:1018A800A8400020F8B5074614460E4621B9BDE801
:1018B800F8401146FFF79CBF22B9FFF74DFF2546B8
:1018C8002846F8BD00F026F8A0420FD22146384637
:1018D800FFF78EFF05460028F2D031462246FFF773
:1018E80017FF31463846FFF737FFE9E73546E7E7A0
:1018F80038B50023054C054608462360FEF73AFD37
:10190800431C02D1236803B12B6038BDAC400020D2
:101918007047704751F8043C181F002BBCBF0B5888
:10192800C0187047537461636B206672616D653AC5
:101938000A000000205230203D2020253038580A67
:1019480000000000205231203D2020253038580A60
:1019580000000000205232203D2020253038580A4F
:1019680000000000205233203D2020253038580A3E
:101978000000000020523132203D20253038580A1E
:1019880000000000204C52203D2020253038580A05
:1019980000000000205043203D2020253038580A00
:1019A8000000000020505352203D20253038580AAE
:1019B800000000004653522F4641523A0A000000E8
:1019C8002043465352203D2020253038580A000035
:1019D8002048465352203D2020253038580A000020
:1019E8002044465352203D2020253038580A000014
:1019F8002041465352203D2020253038580A000007
:101A0800204D4D464152203D20253038580A0000CF
:101A18002042464152203D2020253038580A0000F7
:101A28004D6973630A000000204C522F4558435FEC
:101A380052455455524E3D20253038580A00000072
:101A48005B486172644661756C745D0A0000000051
:101A58005B4275734661756C745D0A005B55736112
:101A680067654661756C745D0A000000232D302B94
:101A78002000686C4C006566674546470030313287
:101A880033343536373839414243444546003031DE
:0F1A98003233343536373839616263646566003E
:101AA80078563412083F00200000000000000000B3
:101AB80000000000010203040607080900A24A0406
:101AC800010101FF7F7F7F7F7F8080807F7F7F7F15
:101AD8007F807F7F7F8080807F7F7F808080808005
:101AE8007F7F7F80807F7F7E7F7F7F7F7F7F7F7FFD
:101AF800808080807F808080807F7F7F80808080E2
:101B080080808080818180808080808080808080CB
:101B18008081818080808081818080808080807FBA
:101B28007F7F8080807F7F7F7F8080808080807FB4
:101B38007F7F7F7E7F7F7F7E7E7E7E7E7F7F7F7FB3
:101B4800807F7F7F7F7E7F7F7F7F7E7E7E7E7E7EA3
:101B58007F7F7F7F7F7F7F7F80808080807F7F7F88
:101B68007F7F7F7F7F8080807F8080818181808070
:101B78008080808080818080818080807F8080805C
:101B880080807F7F7F7F8080808080808080808051
:101B980080808180808080807F808080807F7F803F
:101BA800807F7F7F80807F7F7F7F7F7F8080807F37
:101BB8007F80807E7E7F7F807F7F807F7E7F7F802B
:101BC80080807F8080807F7F7F7F7E7E7E7E7F7F1C
:101BD8007F7F7F7F7F7F7F80818181807F7F7F7E06
:101BE8007E7E7F7F7E7E7F7F7F7F7F807F7E7E7E03
:101BF8007F808080808181807F80818180818281D7
:101C080080808080807F8080807F80807F808080CF
:101C1800808080807F7F7F807F7F808180807F7FC2
:101C280080807F7F7F7F7F7F7F80818080808080B2
:101C38007F7F81807F7F8081807E7F8080807F7FA3
:101C4800807F7D7E80807F7F7F82807E7F80807F97
:101C58007E7F807F7D7E7F7F807E7E7F7F7F7E7D93
:101C680080817F7F808080807F808081807F80806E
:101C7800807F7E7F81807F8080818080818081815C
:101C8800807F8081807F7F80807F7E7F7F80807F54
:101C9800808180807F7F80807F7F8081807E7F7F42
:101CA8007E7D7F81807E7E80807F7E7F81817E8039
:101CB800828180808082817F7F8082817F80818015
:101CC8007F7F7F807F7E7F80807D7C7E7D7C7D7D29
:101CD8007D7D7C7D7D7C7E7F7E7E7D7F7F7D7E8120
:101CE80081828181838281828282838283858586C3
:101CF8008585878888888787868381817F7D7C7BA7
:101D08007A79787676757373727372707272737982
:101D18007A787C7E81847F8083807C7F838D959395
:101D2800979D9C978F8787837B7B7D82858282881E
:101D38008D8C888A8D877D797A79757375797872B3
:101D48006F6E6E6A6768676667696B6F73777677B9
:101D58007D8381848F9CA59D989FA0938680828295
:101D68007A7981898A84848C8D86818083837F8235
:101D78008B8F8F90908D847C77726E6C6C6E706F89
:101D88006E6E6C6B696869696A6A6B6E716F747B79
:101D980084888A91A1AEA49B9FA096877E81867F26
:101DA8007B828D908C8A8C8D8A817C7F807B7A7FE8
:101DB800898F8D8A8F8E847A73716F6A676A6E7164
:101DC8006D6C6C6D696564676A67666B6D6D6B6E6B
:101DD8007E848690ACBAAFA9A9A79D8B787B8079C1
:101DE800757D8892918C90948F877F7D7D797678A8
:101DF8007F868B8C8F929189817C766E6965666807
:101E080068686B71716D6D6B696A6868696B6B6D19
:101E18006D73787E8FA8AFACB4B6B4AB988C8B805A
:101E2800756F6D7379787D868C92928F9190898584
:101E38007F7B7B78777A7B7E83858483817E7D76C2
:101E480071706D6A6967676A67686C6C6F727073C6
:101E5800746F706E6C717B8491969EAAAFB2B1ADAF
:101E6800ABA69C948A817D756E6C6B6C7071757C69
:101E780080878C8E91949593918D8B89847F7A74C9
:101E8800716E696869686868686A6C6B6C6D6F7098
:101E9800707070716D6B6A6D78878B939DA4B2B307
:101EA800ACADADA6A29489888075706A696D6C6DB9
:101EB80073797F86898D93959595918F8E89848086
:101EC8007C7874706E6E6B6A6B6C6C6D6C6B6C6C22
:101ED8006C6C6D6E6F706D6E6C686B6C828A8C9BAF
:101EE8009AACB9ADAEB4A9ACA38C8D8878766D6484
:101EF8006E6B676F71768183858E929295939191BF
:101F08008F8886837C7A757172706C6E6D6C6D6B60
:101F18006A6B6B6A6A696B6C6D6C6E6D6C69696C07
:101F28008289899B99ADBBADB1B7ACAFA78F928CB5
:101F38007B776C636C6A646B6E737E81848D94941A
:101F480097959495918A87857F7C777172716C6C6F
:101F58006D6B6E6D6A6D6E6D6E6B6B70706E6D6EA7
:101F68006C6B67636C867F899895B8B9A8B6B6AB71
:101F7800B59F8B97887A7968637065636B6B737D9F
:101F88007D818E929297939396908B8984807E76AA
:101F980071726E6B6A696A6D6B6A6D6E6F6D6B6E6E
:101FA8007070716C70706B6966688486829B92AC85
:101FB800BDA8B0BAABB4AC8F9A94807F7365726CCD
:101FC800626B6C6F7B7C7C888E8F95929197948ED8
:101FD8008B8783827C7474736D6D6B696C6B676BB4
:101FE8006A6B6B69696E706F6F7072706C6A677418
:101FF8008A7D8E9492B6ADA1B4AFA8B69A8F9C880C
:102008007D7D696A7464656D6A727C767E8B8B8F60
:1020180094909497908D8C888682797576726D6B82
:10202800696A6C69676B6C6C6C6D707374707275CF
:1020380071706A676F8082839290A7B3A6ADB5ACC2
:10204800B2AA939A9584807669736D63696A6C778E
:10205800777783898B919190979590908D898780D8
:102068007977736D6B6968696866686A6B6B6C6EA3
:10207800727572737475746E6B6B71847E859291D0
:10208800A9ADA0ABB1A7B0A4919B928180746A73EB
:102098006B616A696B767475828689908E91979563
:1020A800918F8C8A867E7976736F6B6A69686866A9
:1020B800676B6B6B6D6E73767473777673706C6B1E
:1020C80078837E8B8F95ADAAA2B0AEAAB2A0959D5B
:1020D800908382736E756A656A686C76757885898F
:1020E8008C929194989894918F8A86817874736D64
:1020F800696865656764666A696B6E6D7175737327
:10210800757271706B6D7981818B8F97AAA7A3AC5B
:10211800ABA8AC9D93988E8380736E736A666B6B65
:102128006F77767983888B909092989694918E8920
:10213800857E7773706C686765676968696C6D6EB2
:10214800727174777678767471706D717B80828B1A
:102158009098A6A3A3AAA9A5A69B949489807C730A
:102168006F716A696C6C7075757B83878D919298B5
:102178009897958F8B888079756E6C6964646565AE
:102188006769686C6D707475767878777774727330
:10219800767F878691979EAAA8A4ACACA4A79B91AA
:1021A80093897D7C726D726A666C6C6E76757982C5
:1021B800878B8F91939595908B88827C77706A68CE
:1021C80064616361616666696D6F7174747679784C
:1021D80079767474757887878B9797A3ACA2A4AD2A
:1021E800A3A4A49393917F7C7A6C6F746A6C7170CA
:1021F800797F7C848D909898949593908C7F78784B
:10220800746B676668686465686B6C6B6B7071711A
:10221800716F72746E696B727D96A09CACB6B9B919
:10222800A99A9C9280776C6E756B68747B858C8A92
:102238008F99958E888386847A7A7B7D817D7A7F53
:102248007F7A756E6D6E665F6060605F5E60656CFC
:102258007071747C7A726B6E7C98B4AFB2C7CFC75A
:10226800B398908E77615D66747977849BA7A59FF4
:102278009A99917E6E6A6F737279868E93918C8922
:102288008274685F5A5A58595F666A6C6C6D6C68DC
:1022980069685F5D62605F5E6E8CB8CAC2CCDCD96B
:1022A800C09E817C735C4E586D81888C9DB0B1A5B1
:1022B800948B8476645A64757F87939CA7A49486CC
:1022C8007C6E60514A50595D6069737A736B6666BB
:1022D800655E525360615A61769FCED4C6D1DFD213
:1022E800B18770726C585365849A9C9FABBAB49C42
:1022F800857A7369595469869296A1ABB1A68D798E
:102308007165564848566266686E797C6E635E5C95
:1023180059504B55605E5B6983B9E1CFC7D4D6C2CB
:102328009C6D636C64575A7193A6A5A4ACB6AA8F2A
:10233800776A66635658768D96A2A5A7A9987F6F87
:10234800635B554F54606B7275757A736A61585642
:10235800534F53595F605F7298D7E2CECFD7D4B945
:102368008962636760565E799AA8A9A6ADB3A48A04
:10237800736463625A627B90A0ABA7A5A2937D6940
:102388005955545456606D787879746E675C514E1F
:10239800504F4F52555B708EDAEAD6D8DBD6C194CF
:1023A800615E6062595F7597ADB5ACAAB2A49077CB
:1023B8006059625F677689A1B0ABA29A8F816A562D
:1023C8004C4D545A5D6972797D766B645E54534BFB
:1023D800474A555359679CEBE9DBD6D8D6C3895A87
:1023E8005259645C5E7195B3C0B0AAAAA395795995
:1023F8004F5A636F75839CAFB1A6968C82705B4A07
:1024080047515D62676D76817C6E5F5756544C46C6
:10241800434D4F5D6CA4ECEBE5DEDAD2C08B5E4D2C
:10242800515F5F687691B2CBBEB3A99E9782604E2A
:10243800525E75808998AAB4AF9B8A7B6E635348B5
:102448004C58636E6F7275777162514A4849413BC7
:1024580037495EA8F2E8E9E4E5DDC98E5D444859EC
:10246800555F6B84A9CBC2BAAC9E998A6A4E475312
:102478006A7B8892A0B1B8A9957E6C645A4E474D84
:102488005B6C75797979756E61544D45464549415E
:102498004A5BAEF4EEEEDADAD7CB97663F42595F85
:1024A8006E727D9DC6C8C2AA948E88755A464965C3
:1024B8007E94989AA2AEAB9E81665956585552554D
:1024C80063727F7F736A65625E4E423C3E3F495B42
:1024D800A7E6F0F9E8E1D5C8A173463E4A536C7304
:1024E8007C94B7C6CCB9A392827663514A576C8A5A
:1024F800999CA0A4A59F8E735B4D4F525557586069
:10250800707B7B73625B565549413433407ED9EA10
:10251800F3E5DFDFDAC08C583A464B626A6C7B9E83
:10252800BDCFCAB09E8B867964514F5D7891999DD5
:102538009A9FA19A856D564C4E5358555963707998
:102548007D6D605555504D3F333977CFE7F4E1D76E
:10255800D4D8CA9E683F3E48666F6E738CADCED2A3
:10256800BBA38B847F7464575C7187979D96929305
:102578009288765E4F4C5258575757626D726A6010
:10258800534F4B44435DA6CAE0E1D6CFCBCAAF8BCD
:102598005F4D485B6B6F737A91B0C3BFB39B898003
:1025A8007B74696669748593938D8986837B6F5F75
:1025B800534E51565A595C606566645B53443F46B6
:1025C80076BACEDCD0C9C5CAC7A8815C52536A7135
:1025D800716F778EABBCB9AC948884837D746F704F
:1025E800788893918D87817E786C5D524E515558CD
:1025F8005A5D616064635E504B4A77B9D0DDCDC1E6
:10260800B7BDC0A9856151526D7B807A7987A2B721
:10261800BCB196857F8489857D71737F8E928F8208
:102628007773736F64564C474953595956555654E6
:10263800555A679EC5D6DACDBFAFAEA18B6C564A48
:1026480052687881818796A9B4B5A691827D8387DF
:10265800857A72747E878C897D736E6C6961564A3F
:10266800464C55585753514E525E7CB3CEDBD8CEAC
:10267800C4BAB49E8062514B5768737B818D9DAEFE
:10268800B7B6A7958B888B8881746D717B84878298
:1026980077706C69645B5049484B4E5254514C50AA
:1026A8005C8DC0D7E0D4C8BAB9B49E7F5F4A46599A
:1026B8006975777C889BB0BDBBA99C94918F877AFC
:1026C80069666C777F837C73706C6A62584C46428B
:1026D80044474B4C4E556FA6CBE2E2D7C4B8B7A8D7
:1026E8009170544146586974787F8A9DB0BBB5A8EB
:1026F8009E94908A827469676B737A7C76716C6A2F
:1027080066625C5046404143474F577BA9C9DEE0AB
:10271800DAC7BEB5A48B7056444650616C77828F79
:102728009FB1BBB8B3A79A8C82786E6967686C72E0
:102738007574716B6562605951484540444E6794A1
:10274800B1C9D2D4CDC4C0B09E836B534D5058612B
:1027580068727C8D9DADB2B3B0A69C9085776D688C
:1027680067696D71706F6B696767635C524A45454D
:102778004B638DA7BEC7CBC6C5C6BAA88E755D56B6
:10278800565A5D6067728498A7ADACAAA8A39B8EC1
:102798007D6E6664666C6E6C6966646566605950C9
:1027A800494549557694A8B6BCBFBBBEBAAE9A8413
:1027B8006E5F5D5D6163686C758595A1A6ABA9A424
:1027C8009C928678706A66676A6B6B6B6A6A6968DE
:1027D800635D5550515F8098ACB5B8B4B2B7B3AA31
:1027E8009A8771666364676B6F727A87969FA6AAE9
:1027F800A7A19990857B756E68666663626163635D
:1028080064625F5B5959648196A7AEB1ADA8ABA766
:10281800A0938571656265696B707277818F989FE7
:10282800A3A19C948D817A736D68666564656566FD
:102838006464625F5D5D637A92A2ADB0AFA8A8A739
:10284800A2988B7A6A6465696B6F71757D8B96A0A7
:10285800A8A7A29B93887F78706A6562605F6162AF
:1028680061605F5F60636C8296A5AEB0ACA6A7A5F9
:10287800A09688776A6465696C7071757C87919B8E
:10288800A2A29E989188817C766E67625D5C5D5E8F
:102898005E5D5C5B5E64778EA0ACB0AFA9A8A7A4B0
:1028A8009C9181716966696C7173757A838D969F45
:1028B800A39F9A938B837F7A736E6A656160605F6A
:1028C8005E5C5A5B5E6C8193A2A8ABA7A5A5A39D8D
:1028D8009386766B6566686D7071767D87919DA22B
:1028E800A19C948B837E79746D6964605F6061607C
:1028F800605F6063718595A1A6A6A09FA09F9B9429
:102908008779716D6D6F727475787F88939DA2A2B7
:102918009D958C84807C77716B63605F6061626277
:1029280062636C7E909EA6A8A39D9B9A97938A7DCE
:10293800716A696C72777A7D80878F959997928B87
:10294800847E7B7975706A65626263646566676AAE
:102958007685949FA4A39D9A9794908A80766E6AB0
:102968006B6E75797D80868D939797938D87807C24
:102978007875716C6764626366696B6C707986944C
:102988009EA3A19D9894918D8880776F6C6C6F74CD
:10299800797E82888E929596938E89837D7A7672D7
:1029A8006D69666465686A6D6F727B87939BA1A188
:1029B8009E9A96938E898177706B696B70757A8110
:1029C800888D929596938F8A837D77726E6A6764F5
:1029D8006364676B6E7279838D959B9E9C999693C1
:1029E8008F8B867F78726F6E7074787D8184878A0A
:1029F8008C8D8D8A86817D7875716D6A6766676949
:102A08006B6F757D858E94999A999794908D89842A
:102A18007E7975737375787C80838587898A8B8ABC
:102A280087837F7B777472706E6D6D6E7174787D3D
:102A3800848A8F939493918E8C8986827E7B797811
:102A480078797B7E808284858686868583807D7A78
:102A5800777674737271717375787B80858A8D8FC0
:102A6800908F8D8A888583807D7B7978797B7D7E40
:102A780080838485858583817F7D7A76747372727D
:102A88007475777A7D7F83878A8C8D8C8B8987850F
:102A98008482807E7C7C7C7C7D7E7F808182838337
:102AA80083817F7D7B78767473737375787A7D8084
:102AB80084878B8D8E8D8C8B898784827F7D7B7AB2
:102AC8007A7A7B7C7C7D7D7E7E7D7D7C7C7C7C7C3B
:102AD8007D7E7F80818283858686868585848383C3
:102AE8008281807E7D7E7E7D7D7D7D7D7C7B7A7909
:102AF80079797B7C7D7E80828485868787888786B6
:102B0800858381807F7D7C7B7B7B7B7C7C7D7E7DE0
:102B18007D7D7D7D7D7D7E7E7E7E7F8080818282C3
:102B280083848484838282828281807E7D7D7D7D90
:102B38007C7B7C7C7D7D7D7E80818181828283839C
:102B48008383838281807F7F7E7D7D7D7D7D7D7E89
:102B58007E7F80808080807F7F7F7F7F7F7F7F7F79
:102B68007F808181828383838382828181807F7F4A
:102B78007E7E7E7D7D7D7E7E7F7F7F80818181815F
:102B880082828181818181807F7E7E7E7D7D7D7D47
:102B98007D7E7E7F7F7F80808081808080807F7F38
:102BA8007F7F7F7F7F807F7F80807F7F7F7F7F8029
:102BB8007F7F7F7F7F7E7E7D7D7D7D7E7E7E7F7F2A
:102BC8007F808081818182828282828180807F7FF2
:102BD8007F7F7F7F7F7F7F7F7F80808081828282EF
:102BE800818181818180808080807F7F7F7F7F7FDE
:102BF8007F7F8080808080807F7F7F7F7E7E7E7EDB
:102C08007E7E7E7F7F7F7F7F8080808080808080C7
:102C1800807F7F7F7F7E7F7E7E7E7E7E7E7E7F7FC3
:102C28007F7F7F80808080807F7F7F7F7F7E7E7FA9
:102C38007E7E7F7F7F7F7F80808080808081818192
:102C4800818181818181818181818080808181816F
:102C5800808080807F7F7F7F7F7E7E7E7F80808078
:102C6800808080818181808080807F7F7F7F7E7E61
:102C78007F7F7F7F7F7F7F7F80807F80807F7F8057
:102C8800807F7F7F7F7F7E7E7E7E7E7E7E7E7E7F54
:102C98007F7F7F807F7F8080807F7F7F8080808034
:102CA8008080808080808081818180818180808017
:102CB8007F8080FF80808080818180807F7F7F7D92
:102CC8007D7E7E7D7D7F7F7E7E7F80807F80818010
:102CD800807F7F7F7F7F7F7F7F7F7F7F807F7F7FFA
:102CE8007F7F8080808080817F7F7F807F7F7F80E3
:102CF800808080808080807F8081808080807F80CD
:102D08007F8080807F80807F808080807F808281BC
:102D180081808181807F8080807F7F7F807F7F81AD
:102D2800818281828281818080817F7E7F807F7E97
:102D38007E7F7F7E808080818080817F7F80807F92
:102D4800807F8186807C81827C7A7C7F7E787A7D98
:102D58007B7B7C7D7F7E7E7F81807F80818181827D
:102D680082817F7F807F7F80807F7F7F7F7F807E63
:102D78007F80807F7F81807F808181808182807F4A
:102D8800817F7E7F7F807F7E7F7F7E7F7E7E80804B
:102D98007E8181808080828180838481808281801D
:102DA8007F7F80807F8081807F7F7F7F7F7F808023
:102DB8008080808180818082817F7F807F7E7E7E0F
:102DC8007E7C7B7E7D7C7E7E7F7E7D7F7D7D7F7D24
:102DD8007E8280818381838180817F7E7F7F7F80E7
:102DE80080818283848485868584848485848382A3
:102DF8008383817E7E7D7C7A7A797878767475761D
:102E0800767777787976767B78767C7C7C7E80811D
:102E1800817F83817F818080898E8C9397979A9612
:102E280094958F8C8C8A8F89858C887F7F7C797428
:102E38006F706D69696866686B6A696D716E6F73CA
:102E48007775747B7D797A7F82808084898B8E9771
:102E580094959C9A989593948D898D88848383837F
:102E68008181888D86878D8B8482817D7672726D53
:102E78006A69696565696763686C6B6C6E72706FA7
:102E88007475767C807F868B91979AA2A2A0A19F69
:102E980098948F878483807E7F838481878A8784C0
:102EA800888D8F8A858D8B807C7C77716C69676350
:102EB800636161626161666B707271777A75707651
:102EC800757476797E898A95A9A3A9B3ADA7A29BC3
:102ED80094887F7C747577797E84898C8E8F918BAA
:102EE8008D8B8C908081877B757672726B696D662D
:102EF80064635E5F636064686C736D737971727527
:102F0800707874778B8CA0A7A7B6BAAFACA79D943E
:102F1800837E7B716D72767B7E868E909193908B8B
:102F2800888A85858681807E7D7B7673756D6868E5
:102F380066615D5C5C5D5F64696B707577767379FB
:102F480078717376848C9AA5A9B8BDB6B2AFA197EB
:102F5800877F796F6A6D72757C848C909393938E5A
:102F68008B8483838083828082807C7C7773706A81
:102F780067635D5A5A5B5E5F676A6C7375747477D2
:102F880076706A6E7077899DA4ACBFC4C0B8B4A8C7
:102F980098867D746A66686C727A858F93999A961A
:102FA800938E847D767B7D797E8B888489898278EF
:102FB800726C645958565252575B646D70747A7DBE
:102FC8007975716D666366798E9DA3B7CBCCC4BDE8
:102FD800B8A994817A6F655E646B737B88929BA1B4
:102FE8009E9B968F837B717577757E868C8D8B8B78
:102FF8008A7C716B625853504B4F545A636B727B87
:103008007C7A7C7971685A565E799992A5CCD5CF2D
:10301800C7C4C0A8888174655C5A5E6B75808E9938
:10302800A7A9A09C9C8E7E716E6B6B6C798A91951A
:1030380097989387766D60544C4D48495259616B07
:103048007782817B8079716156504D4F93A98EC4E8
:10305800E8E7DCCBC4C59273755F5253515C757F4A
:10306800929DA7B8B39C9994816E5E5F6362687AFB
:103078009CA29CA3A4957F6A5E554342484B4F5C33
:10308800666D767A7F7B73746C59525643384EA8B6
:10309800BD9AD1FBFEE6C3B7C0865D5B4F4F565263
:1030A800628B9CAAA9B4C4BA928381745E4C5066A0
:1030B8006D6F879CBEBDA7A49F836A504247444555
:1030C800535E67767574797A746A625D594D4B46BA
:1030D800484A63D5D5B8EEFFFEE3A591A2644949F5
:1030E8004157716C81A7B8CBB6A5B0A6776558597A
:1030F8005C505672838E9BA4B1B5AE9585726557A8
:103108004B4854636B7071797671645C5B60585797
:1031180051565857514C4477FAD2BCE4F0FAD88546
:10312800798F5C5D4B4068908998A4B4D2B5948E31
:1031380084716A4C50656F7984889AA79EA091899A
:1031480096866C69656A71676C7A7878736461636E
:1031580056524D515D5E58605D5D59514288F7D0B9
:10316800D0DADCF3D78A77715970584C678A9DB3E7
:10317800A4A8BEB0A288675F695D5E5F6A879696FD
:103188009997969F8F84827575766C6A70717D7930
:103198006E6A696460544D525860615E5D67645A36
:1031A800433650D4F0D6DDC5EAF0B87B61436A7186
:1031B8005A5E6992BCC3AEAD9DA59E75544B5369CA
:1031C800716C7D8DA0ADA392877E81797374737BBA
:1031D80082807F7B78766D66625C5A5856575C654C
:1031E80069645C5C545446403A96F5EFFFD5CDE0EF
:1031F800CC9E723A3B5E677F727EA1C3D2CBA38C12
:1032080082756F57484C6480999B9C9FA0A1957DBF
:103218006961657882827F8189928D7E695E5F624D
:10322800605C525257626967645E5F5B553E364028
:10323800A9EFF5FFCCCCCFC3A76E34334A6D90808D
:103248008992B3D4D2B1896B6368605C4F5A759325
:10325800AAAB9F948F8A8572655B69808C928783FD
:10326800848A86775F51515B655E565057646B66FA
:103278005547413D344DAEE3FAFFDEDAC3B8A673D5
:103288004A373A62858E9C95A9C2CBC39E765F5613
:103298005A645E646A7F9EAEB1A28E817A74746746
:1032A80066717C9095948D84807B6E6357515657D8
:1032B8005A5A575B5F625F554B40333E96D7F5FFCE
:1032C800DED3BCB6B48B63402F4970879E9499AB0C
:1032D800BACDBD9B7456505D666F6C6C7D91AAB07B
:1032E800A4927E787A7E8179707177858E8C8576C6
:1032F8006F6D68645B4D4849525B5E58504A43396C
:103308004291CEF2FFE3D7BAAEAF9377563E455D12
:10331800769191969CA4B7B8B19776615B606B7013
:103328006F717383939FA2988B848689877B6C6067
:10333800606E7B827B7169696C6D675D554E4D501F
:1033480052544E463D5295C8F6FDE5D6B9B7B4A5D8
:103358008F6B4C454C6179828D8D94A5B1BCB49D21
:10336800847166686B6D6B65666D7E8F9B9E9A95A2
:1033780092918B81716560646E7273706F707171F8
:103388006E676057504D4B4B4743456D9DC6EAE805
:10339800E1CDBFBDB4AA906E54494A5A67737B7E8B
:1033A8008C9AABB3AFA493837973706F6A656366C5
:1033B800728395A1A19A9189847C746C636161651B
:1033C8006A6F71716F6E6C6B69635B514B45464EEA
:1033D8006F97B4D1D3D1CBC4C1BBAF9980685B56CA
:1033E8005C636A7176818C9BA6A8A3999088827C7D
:1033F80077706B676A75849298979088807B7771ED
:103408006A63606064686B6C6B6B6B6C6B69615949
:10341800504B4D5D83A0BECDC9C8BFBEBDB6AA93F3
:1034280079675B5B63676F71757F8998A2A5A197C0
:103438008E8782807A736D696F7B88929490898178
:103448007B76716C65605D5D61656A6D6B6B6A6AE0
:103458006861584C464B6C8EB1CBCCCEC3BEC0BA5B
:10346800B6A48C7561575B606A7072797D8A97A182
:10347800A6A1999087827F7A776F6C7178868F93EF
:103488009188817975736E69615B5B5D6268696C4F
:103498006C6C6B6560554E4C62819FBEC3C8C1B9E8
:1034A800BCB9B9B09A836E5F5D5F666B6C727580EC
:1034B8008E98A2A29E98908A86807C746E6B6D7797
:1034C800838C908D88817D7B77736B625D5A5D629A
:1034D800666869686866645E5852567289A8BBBC9B
:1034E800C0B7B6B8B6B6A895826D64636369696AF1
:1034F8006E717F8A959D9D9C98928F8B868077713F
:103508006C6A727B858C8B8A8683827F7C766B65FE
:103518005F5F6162646363646363615B595A708669
:103528009FB3B5B9B4B1B5B4B4AC9B8B7B706E6ABC
:103538006C6B686A6B737E87919494959392928F63
:103548008B837A746F6F72777E8183838181807FAA
:103558007E79736D686665656666656463636263D4
:10356800656D7D8A9AA2A4A8A6A8ABAAA8A29890DD
:10357800867F7D787673706F6F72777B7F828586A2
:1035880087898A8B8A8884807D7B7B7E7E7F7F7E0D
:103598007D7C7C7D7E7D7C7A797878787776757489
:1035A8007474747575767778797B7D7F8284868864
:1035B8008A8C8E909090908E8D8C8A878482818060
:1035C8007E7D7C7B7A7A7A7A7A7A7A797A7C7D7F40
:1035D80080808080808182838383828080807F7ED8
:1035E8007D7C7B7979787878787878797978787843
:1035F800787878797A7B7D7F8082848587888989C5
:103608008A8A8A8A8A898988878685848383838344
:103618008384848382817F7F7E7E7E7E7E7D7D7DA6
:103628007C7D7E7E7F7F7F7F7F7E7D7D7D7D7D7CB7
:103638007C7C7B7B7B7A7A7B7B7B7C7D7E7E7F80C0
:1036480080818283838383838382818180807F7F5B
:103658007F7F80818182828283838383828181804C
:10366800807F7E7E7D7C7C7C7D7C7D7C7D7D7D7D80
:103678007D7D7E7E7F7F7F807F7F7F7F7F7F7F7F57
:103688007F7E7E7E7E7E7F7F80807F7F7F7F7E7E47
:103698007E7E7E7E7E7F7F7F808080808181828229
:1036A80082818283838282818181818181828282F7
:1036B80082828283838181818181808080808080F1
:1036C8008181818080807F7F808080808080807FF2
:1036D8007F7F7F7F7E7E7E7D7C7D7D7D7D7D7C7D09
:1036E8007E7E7E7F7F7F7F807F7F7E7E7E7E7E7EEA
:1036F8007E7E7F7F80818181828181818080807FC1
:103708007E7E7E7E7E7E7E7E7E7E7F7F7F7F8080C9
:103718008181818181818080808080807F7F7F809E
:103728007F807F7F80808080808080807F7F7F7F98
:103738007F7F7F7F7F7F7F80818182818180818180
:1037480081808080807F7F7F7F7E7E7F7E7E7E7E81
:103758007F7F80807F7F7F8080818080807F7F8067
:10376800807F7F80808080808180808080807F7F54
:103778007F7F7E7E7E7E7E7E7D7D7D7D7D7E7D7E65
:103788007E7E7F7E7F807F7F7F80807F7F7F7F7F41
:1037980080807F7F80808081828383838484848407
:1037A80084848586858585848383848384848382D1
:1037B80082828281807F80807F7E7F7E7C7C7D7D0F
:1037C8007D7C7C7B7C7D7C7B7C7C7D7D7C7C7C7C2F
:1037D8007C7D7D7D7C7C7C7C7E7E7F8181818282FC
:1037E8008181818181807F7E7D7C7B7A7978787800
:1037F80077767576777678787777797A7C7D7F7F34
:103808008082838384858789898989888887868552
:103818008584838384858483838482818181828271
:10382800838383858686838182848483827F7D7B6C
:103838007A767375787A79787C80828483817E7DC4
:103848007E7F7F818486888A8C90929496979594BF
:1038580094918E8B87837E7C7B7975747474737373
:10386800737372717273757777797B7B7A797878ED
:1038780077757474737475757473747677787777ED
:1038880078797A7C7E7E7F80808181828180808049
:103898008081828281807E7F80808081828284850F
:1038A80085848384848484848585848485868685C8
:1038B80085868686858483838384858585868788AF
:1038C8008888878786868686868585858485858592
:1038D80085848484848484848483828282828382AB
:1038E800818080807F7E7D7D7C7B7A7A797877760F
:1038F8007676767676767676767676767676767660
:103908007676767677787879797A7A7A7B7B7B7C23
:103918007C7C7D7D7D7D7D7D7D7D7E7F7F7F8081C3
:10392800818282828282838484848484848585855A
:103938008585858585858484848483838383838240
:103948008383838383838383838383838383838240
:103958008383838282828282828282828181818140
:10396800818080808181818181808080807F80804A
:10397800807F7F7F7E7E7E7E7E7E7D7D7D7D7D7D60
:103988007D7D7D7D7C7C7C7C7C7C7C7D7D7D7D7C67
:103998007C7D7D7D7D7D7D7D7D7D7D7D7D7D7D7D50
:1039A8007D7D7D7D7D7D7E7E7E7E7E7E7F7F7F7F31
:1039B80080807F80807F7F8080807F7F7F7F7F8007
:1039C800808080808080808181818181818182FF67
:1039D8007F7F8081818281807F7D7E7F8080807FE4
:1039E8007F7E7E7F7F7F7F808180807F7E7D7E7FE0
:1039F8008080807F7F7E7E7E7F7F7F7F80808081CA
:103A0800818181807F7F7F808181807F7E7E7F80B2
:103A1800828281807F7F8081828281818181808092
:103A28007F7F7F807F7F7F7E7E7E7F7E7E7E7E80A3
:103A38008182828080808080818181807F7D7D7C81
:103A48007D7D7F7F7F7F7E7E7E7D7E7F7F81828280
:103A580081817F7F7F7F80817F7E7E7E7E7E7E7F6D
:103A68007F7F808080807F7F7F7F8081818181814F
:103A78007F7F7F80818180807F7E7F81818182803E
:103A880080807F7F7F7F7F80807F7E7D7D7E80833B
:103A98008483817E7C7D7F8182818181817F7E7C20
:103AA8007C7E808283807D7C7C7F82838382818010
:103AB800807F7F7E7E7E7F8081807F7E7D7D7E7F12
:103AC800818281807F7E7E7F80807F7E7D7E8082F6
:103AD80083817E7E7E7E7F807F7F7E7E7F808182E7
:103AE80081807F7E7E808181818181807F7C7B7DDA
:103AF8008083858482807F7E7E7F80828282807EB2
:103B08007E7E7C7C7D7D7F80807F7E7E7F818282C1
:103B1800817F7E7F7F81818181807E7C7C7D7F81AA
:103B280082817E7C7D7F81827F7D7E7F8183828092
:103B38007F7E7E7E7F80807F7F80807F7F7F7E808C
:103B48008181818181818181818181818181807E61
:103B58007C7D7F818282807E7C7C7F7F8181807F6B
:103B6800807E7C7B79797C7F80828382807F7E7F68
:103B78007F7F7F81828382817F7F7E7C7D7D7E7E49
:103B88008182838382818282828383858684807D09
:103B98007B7D7F8282807D7A79797B797777797B63
:103BA8007F807F7F7C7A7C7E7D7D7E7B7B7C7C7F3B
:103BB800807E7C7875798392A1A9A69C8F8685885A
:103BC8008D90918F8E8B88827A716C6B6E737675FF
:103BD800716B666667696C70747A7E7F7E786E69D1
:103BE800696C7174777876767F91A8B5B7AC9B8C41
:103BF8008789909696908A8582827E79737379896F
:103C0800969D988B7D75767A807F7B726C696C6BDC
:103C1800696058575E69767D7A716560626870760A
:103C280079787BA5C5DBDEC09573656985969E9A14
:103C380092888C8C8A8374696A7990ADB7B0997EC2
:103C48006A676D767B766D6766696F695E534D54FA
:103C58006677817F72635C606B777875727198C2E2
:103C6800DCE4C89872626481989F9A90848A8F91E4
:103C78008B7C6A646B809FB4B8A78C70656670781B
:103C88007A726C67676B685F544C4F5F707E8076A2
:103C9800676061677475736C73A3C9E7EDCC9A7339
:103CA8005F6281969E998E868D92958F7D6B636AF1
:103CB8007F9CB5BBAF987C6E6A6D71726C6A686ADE
:103CC8006E6A5F52494957677577716861646A71AE
:103CD80073747694C0DBEBD9B1856C62738B979A59
:103CE800938B8A9191918373666873899AABB4AC0C
:103CF8009D8875656362686F7574736B5F5447441C
:103D08004854637276736B655E6061616472A6D3B2
:103D1800F0F4D6A7806B687E8C92928D8A959C9ED3
:103D280096816D6165768B989C9FAAA9A7977E64FA
:103D380055506077848676614D464752565C5F657C
:103D48006C72726C665E55586086C7E6FBECC19271
:103D58007D6F798E8C8C88848DA0A2A18E7564630A
:103D68006D819093918D9CA8B2A8906B5048556F27
:103D7800848878644F494C5353524F555F6E787717
:103D88006E635751527EBEDFF9E8C198887B8796EB
:103D98008B867B79869DA3A8937C6A6670808C8CC1
:103DA8008982869AB3B8AE8E674F505D78878072E5
:103DB8005B50515756534A494E5F6D76776B625840
:103DC8005060A0C7E5F0D2AC988D88A0978D82741A
:103DD8007589979E9D8878696C76868985817E83AA
:103DE80091A8B3AF977C645C656F7A796E605A5717
:103DF8005A5C595249484D5B6773736A5A544F81EC
:103E0800BAD1E8DFB59FA290ABAD968B746B7B8F70
:103E180098A08D7C6C6C75818A837B777B899FAC3D
:103E2800B4A68D7B6B6A73767670635F5E60625D45
:103E3800554C484A54606968665D57596798B9C4D3
:103E4800CFC7ACB4B0AAB8A59084797A888D908B86
:103E58007E7470757B808079787C82929C9CA09916
:103E68008D89827D7C77726F6966635F5B57514C81
:103E78004D50555D6061626361615D7295A5BCCF0F
:103E8800BFBEC2ADB5B3A19D917F817F7D827D7795
:103E9800727070757B7E7D8181868D90979B9793DC
:103EA8008F8988857F766E67625E5B58544F4D4E6A
:103EB8004F565D60636362625F68899DA7C2BBB449
:103EC800C6BABAC3AFA6A08B87867C7A766E6C6BAF
:103ED8006F73797D7B7D7F7F888A8B93939296948D
:103EE8009190888079716B655D5652504F53555843
:103EF8005D606165656465616A878993AB9FADC3E1
:103F0800BAC7CDB8B8AF9B9A90807C71696A696B63
:103F18006D6E6E6F74777B8484888F90959A9A9C67
:103F28009A948D857B736A6159534F4D4D4D4F530C
:103F3800575C5F616465626881858FAAA4B1C8BF58
:103F4800C7D0BDBBB69E998F7C776E63656362668A
:103F5800686A6E74787D83858B90959A9EA0A09CE4
:103F68009891877E756B625B55504E4D4C4E5155FE
:103F78005B6164686A6768808889A7A4A7C6C0C3AC
:103F8800D3BEB8BAA19B967E787063666561656694
:103F9800676B71767A8184878E91979B9B9D9D979D
:103FA800958D847D7168615853514D4D4D4F5358CF
:103FB8005D6265696969697C8687A1A2A3BFBBBB8D
:103FC800CBBCB6BAA59D98807A7467696762666645
:103FD800676B7076797F85889196979D9E9B9D9952
:103FE800928F84797369605B534F4E4B4E54585B84
:103FF800616365696A6B808989A3A2A5C0BBBCCBD4
:10400800BBB6BAA49D988078736465645F63646581
:104018006A71757A7F82879094989C9B9B9B9792F4
:104028008D82797067615B54504D4B4D51555A6084
:1040380064696C6E6E7A898697A29EB4BBB5C2BE5F
:10404800B0B6AB9C9C8B7C7A6D6769626266656969
:1040580070747A8084878D9294999C999A97908DA0
:10406800857A756B625F5853524F5055585E646736
:104078006C7274767A878A8F9F9DA3B4B1B4BCB0F2
:10408800AEAFA09B96847E796C6B69636464636948
:104098006E72798083888E929498979595908A8786
:1040A8007E756F665F5D57545453565B5E64696EE8
:1040B800747A7D8183878F90949B9B9FA4A2A4A6EA
:1040C800A1A19F99959088827C75716F6C6A6B6BC2
:1040D8006D7175797F84888C8E919291908D8A8785
:1040E800827D78726D69666463626365686B6F74FC
:1040F800787D8286898B8C8D8D8D8C8D8B8C8D8C2B
:104108008D8F8E8F908F8E8D8A888582807D79772E
:1041180075747373747577797A7D7F8081818281F4
:10412800828381807E7B79767472716F6F6F6F7016
:104138007274777A7E81848688888A8A8A8A8A894C
:1041480089888888888887878787878787868584F6
:10415800838383828180807F807F7E7D7D7C7C7C61
:104168007C7C7C7C7D7D7B7B7A7A797978787878A1
:104178007879797A7B7C7D7E7F7F8081818181815E
:1041880081828283848484848584838383828283F6
:104198008383848484848484848382817F7E7E7DF7
:1041A8007C7C7C7B7B7B7A7B7C7C7C7C7C7D7D7E49
:1041B8007F80818182838485868685838689847AC7
:1041C8007272777D7D78777A818686817D7D81851B
:1041D80085817D7B7E8283827D7B7B7D7F7D7A77F7
:1041E800787B7E808074707D8D90877B757D8686D8
:1041F800807A777E8688837C7A7E8588837E7F82B4
:104208008788847F8084888784817E818484817E76
:104218007D808383807F80818383817E8391968D57
:104228007A6D6D777B726662769DAC957465738BDB
:10423800907C6564768B908271707E8A8C817676AC
:10424800808A877F7A7D8386827A787B818484805E
:104258007D80848685827F7F80807E7B7876767974
:1042680078777575757777747474767779797A7DD8
:10427800828485878A8E969897989A9B9898938F28
:104288008B8883807E7A797A7C7F8386878B8D8DF5
:104298008B8A857F7B756E6966615F5E5E60616132
:1042A8006162676969666A728596979BA3AEB3B8BF
:1042B800B2A49E9B95887E7168696C6A666B717AF8
:1042C800838A8D949FA7A9A399908C867C6F655F3C
:1042D8005D5E5B56565B5F6262626160605C5D64F6
:1042E80087A09AA2B3C2C3CEC2ADA7A69B837B6A9E
:1042F8005F62675E5C68727C88909097A9AFA9A896
:10430800A79A918F7F6F69675D59585350575B57CC
:10431800575B5D5D5E5850535C779E9893ADC9C8F6
:10432800CAC8B0ACAEA98674716861615F53607425
:104338007D7B869298A5ADA8A6AEAEA08F867D742B
:104348006D655753595A5352585D61646460636789
:10435800635D5E739B9E8798BEC3B4BAB3A9A9ACCC
:10436800967B7A7D766262686A6B787C76829296B2
:104378009399A3A7A19B958C837E73645E64635B0A
:10438800595D61616566635E6B75675A606C748DB3
:10439800927E83B0C3A59AABB9B0A197908E8A8656
:1043A8007369717C71656F7A7B7C81868E989E9C1F
:1043B800959498907E74726F6A625D5E6360565BD6
:1043C80069695C5C696D666063718E978284ADC251
:1043D800AAA1AEB7B1A7998F918D7F6B68727265EC
:1043E800637078797E858C99A29F9B9FA296847E24
:1043F8007B70645D59585A575455585F62625C5DCA
:10440800676C6C869B8E96B8C3AAB3C1B8A9A6A0E0
:104418008E8B8375666D6E63606E77747A828B9708
:104428009F9EA1A9A89A918D887869635D56504C82
:104438004950514F515B5D58575F67779A8E8BB1E2
:10444800D2B5A7C7C9B39C9F968D7C6B5E686E5723
:10445800536A796D7486939A9DA2AFB4A99D9B9A6D
:104468008B746B6A5D504B4B4A4D4A4C535A5756A6
:104478005D6364719C958CAFD0BCADC8CBB79EA36F
:104488009C89766D65646354586C7469778D9698C9
:10449800A3AEB2B2ABA7A297857B73695850504DB3
:1044A80045484F4F4F585B595A6464779D8A92BC70
:1044B800CBB1B4CFC9B19FA99E8672726E60585DA8
:1044C80062646B6C7D8A8B96A7AFAEADB0AA9D91E6
:1044D8008B7E70655D554C484649494A4E5857553C
:1044E8005A65647B97869AB9BDADB9C6BAA8A2A326
:1044F8009284726F6B5F556063616A727D838B9D76
:10450800A6A6ABB0ADA29A94897971675D554E4A5B
:104518004B4A4A505558575E61696D8D928CADBBB8
:10452800B7B3C3C1B5A8A99E8E8677716C625B6567
:1045380063676D77808B939EA9ABACAAAAA0968E71
:1045480085746B6458514D4B47484A5052555A60D0
:104558006578938497B6B9B1BBC6B9ADAAA68F8A58
:10456800816E69675A585E6063697581878FA3A6F3
:10457800A4ABAEA59A978F7E716E5F54504C474797
:104588004A4B4E52595B646E8A8A8FAFB5B2B6C534
:10459800BCB2ADAB978B89786B6A64595E61636610
:1045A800717C848A9EA4A0A9AEA89C9A94867673EE
:1045B8006758555249464A494B4E5959606A828A4A
:1045C80089A6B1AFB3C1BEB3AEAD9E8E8D7F6E6B03
:1045D800685B5C6263636B7C80889AA0A1A9ADA9C3
:1045E800A19C96897D766A5F59534E4A4C4D4D5130
:1045F8005A5C626E87858CAAAEADB5C0B9AFAEAC59
:104608009A908F7C716F685C5F6262616F7B7A8A57
:1046180097979EA7A6A19D9A91837C72645D585036
:104628004D4B4B4C4D52585D667983839CAAA6AD81
:10463800B9B9AEAEAC9F90908373716E605E6464DE
:10464800616B787983909999A0A4A29D9B948981A4
:10465800786E64605A5451515052565B616A7C7F3F
:10466800869FA4A5B0B8B5B0B0AD9F97958379796A
:104678006F6465676365707679828D90969C9C9A65
:1046880098968E857D756C66605A5553525154576D
:104698005D6372797B939A9CA6AEAEABACAAA095EB
:1046A80095867B7A7267676764676B75767F888C97
:1046B8009097979696948F88827A736C68625E5A00
:1046C80059595B5F646A767B8194979CA7ADACAAC5
:1046D800ACAAA09A988A8280766D6D6E6A6A7174A7
:1046E800757D8485898E8E8C8C8B857E7C766E6AB2
:1046F80068635F5E5E5E60656A72767F8B8F939C8F
:104708009F9FA1A39F9997928883807772726F6EFB
:104718006F7174777C7F82868887878685827E7BA7
:104728007773706E6A6968696B6D72787A7F898E43
:1047380091969B9C9D9E9D9996938C8886807B7B69
:10474800787977777C7B7C7F818184838481807F83
:104758007C79767471716F6E6E6F7072767B7C8007
:10476800878A8D9193949493928E8C8A8581817E89
:104778007D7B7A79797A7A7B7C7D7C7C7B7B7A7885
:10478800767674737372717173747477797A7D82C3
:1047980083858A8C8C8E908F8E8E8D8A8887848371
:1047A80083817F7F807F7F80807E7E7E7C7B7A791D
:1047B80077777673737474747678797B7E80838563
:1047C800888A8B8D8E8E8F8F8D8C8B89878684823D
:1047D80081817F7D7E7E7D7E7E7D7D7D7D7C7B7AF9
:1047E80079787775747474747576787A7C7D80833B
:1047F8008486888A8A8B8C8B8B8A89878584828039
:104808007F7E7D7C7C7C7C7C7C7C7D7E7D7D7C7CD5
:104818007B7B7A79787877777778797A7A7C7D7FF5
:104828008082848687878889898888878685858322
:1048380082807F7E7E7E7D7D7D7D7D7E7E7E7E7E8E
:104848007E7E7E7D7D7E7D7D7D7D7E7E7E7E7F7F84
:10485800808182828182838383838383838382812D
:104868008180807F7F7F7F7F7E7E7D7D7D7D7E7E58
:104878007E7E7E7E7E7E7E7E7E7E7E7E7F7F7E7E4E
:104888007F7F7F7F7F7F8080808181818283828319
:104898008382828281818181808180808080808002
:1048A8007F7F7F7F7F7F7F7F7F7F7F7F7F7F7F7F10
:1048B8007F7F7F7F7F7F7E7E7E7E7F7F7F80807F02
:1048C80080807F7F80808080807F7F7F7F7F7F7FE9
:1048D8007F7F7F7F7F7F7F7E7E7E7E7E7E7E7E7DEA
:1048E8007D7D7E7E7E7E7E7E7E7E7E7F7E7F7F7FDE
:1048F8007F808081818182828282838283FFFFFF21
:10490800808180807F7F7E7E7E7E7E7D7E7E7E7EB5
:104918007D7D7D7D7D7C7D7D7D7D7D7C7C7D7E7EC0
:104928007D7D7E7F7F808181818080808080808086
:104938008080818181808080808081818181818166
:10494800818181818080808081808080808080805A
:10495800808081807F7F807F808180808080808050
:10496800808080808080808180807F7E7D7D7D7D4D
:104978007D7D7E7E7F7F7F80808080807F7F80803E
:104988007F7F7E7D7D7E7E7F7F7F7F7F7F7F7F7F36
:10499800807F80808080808080807F7F7F7F7F8015
:1049A80080808181818080807F7F7F7F8080808000
:1049B8007F7F7F7E7F7F80808080818282828181ED
:1049C800818081818080808080807F7F80807F7FE0
:1049D8007F7E7F7F7F7F7F7F8080807F7F7F7E7DE0
:1049E8007D7E7E7E7E7E7E7E7E7E7D7D7E7F7F7FDF
:1049F8007F8080808080808080807F7F7F7F807FB5
:104A08007F807F7F7E7E7D7E7E7F7F8080808181AC
:104A18008181818182828182838383838484848467
:104A280083838384838382828181807F7E7E7D7D70
:104A38007C7B7A797979797979797A7A7B7C7C7CCB
:104A48007D7F808284858687878786858484838224
:104A580081807F7E7D7D7D7D7D7C7D7E7E7F7F806C
:104A680081828282828281808080807F7E7D7D7E3D
:104A78007D7D7D7D7E7F7F7F80808081818181813A
:104A8800808080807F7E7D7C7C7B7A79797979795A
:104A98007A7B7C7D7E7F7F80818283848585868703
:104AA8008787868584848483828281807F7F7E7DD8
:104AB8007E7E7F7F7F8080808081818181818181EE
:104AC800807F7E7D7D7C7B7A7A79797978797A7C2A
:104AD8007D7E808081838484858687878787868595
:104AE80084848382817F7E7D7C7B7B7A7A7B7C7EDB
:104AF8007F8081818282828281818180807F7F7FA5
:104B08007F7F7F7F7F7F80808080807F7F7E7E7DAC
:104B18007C7B7A79787776767676757576787A7B0F
:104B28007E8286898D8F90908F8D8C8B89878582E8
:104B38007F7C797776767677797B7D7E7F808284B5
:104B4800858687878787858381807E7D7E7E7E7E3A
:104B58007E7E7E7E7D7E7E7F7F7F7F7D7C7B7A787A
:104B680077767676767574757577797B7F848A8F94
:104B7800949798989693908E8A8885817E7A757195
:104B88007070717376797B7E7F8183858688898949
:104B9800898784817F7D7C7C7C7D7D7D7C7C7B7B23
:104BA8007B7B7B7B7B7A7876747372727373747495
:104BB800737475787A7E848B92989C9D9C9A969350
:104BC8008F8B8886817D7A7673717172767A7D8013
:104BD8008386868888888889888785837F7D7B7A8D
:104BE8007A7B7C7C7D7D7D7D7B7A7A79787776741B
:104BF800727170707172737474747475787C838C4C
:104C0800939BA1A3A19E99938D8984817E797572C6
:104C18006F6D6E71747A8085898D8E8D8C8B898786
:104C28008683817E7A77757374777B80848788889A
:104C38008784827F7C797774716E6B69686A6C6F20
:104C48007476777674737579818D9AA4ABADABA4BD
:104C58009B948C8683807D7A75706C6A6B6E767E89
:104C6800878E9293928E8985817F7D7B7976736F0B
:104C78006D6D6F737A828A909494928E88827C7715
:104C8800736F6C686563616265696D737779787550
:104C98007271737B8999AAB7BDBAB3A6978C837FC3
:104CA8007D7D7A77726C67676C74818E999E9F9B05
:104CB800938B827D7A78777675716E6B6B6D737B6B
:104CC800848D949797948D867F7975716F6D6B67D6
:104CD80064615F6164686D73777A79766F67656818
:104CE80075889FB4C3CAC4B8A79689817E7E7E7B27
:104CF800756C645F616A788A9AA6AAA79E93887F72
:104D08007A78797978736D6866676E7884929CA2F0
:104D1800A29C92877B726C67656362605F60626564
:104D28006B71757879766F6357555E728EAEC7D59D
:104D3800D7CBB6A18F837F80807D766A5D5656601B
:104D4800728A9FAEB4AFA394867E7B7A7A7A766EA7
:104D5800655E5C606C7C8C9CA4A6A29A8F847C7532
:104D6800706D68625C5855575C636B7277797974BB
:104D78006D61534D5B6F8EB3CDDADDD0B6A29285EF
:104D88008386847D7462534F55647F99ABB7B7AB04
:104D98009C8F847F81827E796D5F575559687C8F9F
:104DA8009FA9A8A1978B827C7975716B6159535122
:104DB800555F6A727777746E69635D5246576C8681
:104DC800AFCEDCE1DEC2AD9F8C84867F716B5A4A20
:104DD8004C556581A0AEB8BBAD9F988E8789837707
:104DE8006E605250565F7287949EA39F9997928DDA
:104DF8008982766B60565254575D6466666765654E
:104E080067686865553D4E6580B9E1EEF0E8BEA279
:104E1800978380898069604A38465C759AB9BBBABD
:104E2800B39E96999793938065574944546A798BB2
:104E380095919398999EA6A19586705E58595D673D
:104E48006B67645D585C666C74766B5F523B275287
:104E58007BA2E2FBEEDFD6AAA4B09D91865F343731
:104E6800343F6E8D98A7AE9BA1B0ADB1B296756672
:104E7800504558626670746B768B99ADBCB09C8D4A
:104E8800766B71746F6C635455606772766B5D5A9C
:104E9800565B6462594329326B98DBFFFCDECEBE59
:104EA800A2C1BC946D4E1D1B495E7994908097AF4A
:104EB800B9D4D3AB87735A5B746E605B524E6D91F5
:104EC8009CABAD9B929C9B97957E61595B5D6D7881
:104ED8006A626260626E6C5F5A544D515A4E38373E
:104EE8007EADD2FDF4D2C9E0C9C8B776413C44438F
:104EF800686F59608099B6DCCBA79B92878E8E65C8
:104F08004C4B4C5B7A847279848EA8BBAA8E877FBF
:104F18007E878064555C606D7A6F5F5F66626763E9
:104F280054484F555755412C5EBDCCD5D1D2C2E817
:104F3800FFC59973685C7A6F3C2A497588A29E8977
:104F480096B8CAB59984737A837D5A4A566C7B7B26
:104F58007A7989A1AEA18E8A8B8F89745D57626D2B
:104F6800695F575D696B645D5A606B7068616673F1
:104F78007F8396A3A2A09DB1BAAC988C94A0989078
:104F88008D8F96938C858487847E7B7979797775E4
:104F980075787B7A7A7B7D7E7C7B7B7D7E7E7C7D53
:104FA8007E7E7F7F7E7D7C7A7A7A7A78767472705C
:104FB8006F707172727173777B7D7C7C7E7F81826A
:104FC800817F7F80808184858385888A8C8D8D8D83
:104FD8008F908F8E8E8C8B8B8989888583817F7D3E
:104FE8007C7B7979797978797B7D7D7F7D7D7E8001
:104FF80082817E7D807D7B7B7A7978797777797AF3
:105008007A7B7C7D7E7F808183828081828381819F
:10501800807F808181807F7F8081807F7F81838482
:1050280085858585878787848281807F7D7C7C7B59
:105038007B7C7C7C7C7D7F80818080828181807E7E
:105048007E7E7E7F7F7E7E7E7F7E80808080807F6A
:105058008080807F7F7F7F7F7F7F7F7E7E7E7E7E5A
:105068007D7C7C7D7D7E7E7E7F818283848384843B
:105078008484828181807F7F7E7D7E7E7F7F7F7F2B
:105088007F818281818080807F7F7F7E7F7F7F7F1D
:105098007F7E7E7F80807F7F7F7F807F7F7F7F7F17
:1050A8007F7E7E7E7D7D7D7D7D7D7D7D7E7E7E7F1E
:1050B80080818384848484858483828080807F7FC8
:1050C8007E7E7F8081818182828283828080807FD0
:1050D8007E7D7D7D7E7F7F7F8080808282818181D1
:1050E8008081807F7F80807F7F7E7E7F7F7F7E7DC7
:1050F8007C7C7D7D7D7D7D7E7E7F7F8081818181C1
:10510800807F80807F7E7D7D7E7F7F7E7E7F7F80AB
:1051180080808080818180807F7E7F7F7F7F7F7D90
:105128007E7F7F7F7F7F7F8081808081808181817A
:10513800808181818080808080808081807F7F7F66
:105148007F80808080808081818181808080808351
:1051580091806A82817D84777E857C7E7E82827959
:105168007E8380807C7F847F7D7F7F888877787F3F
:105178007A7D7A7B857F7F7F81867C7B8182848034
:105188007F848281807E7E7F7E7C7D818386877E10
:105198007B7E7A7C807B7D7D7B8183808280817D24
:1051A8007D807E7F7C8184847C80837F7D7C8381FD
:1051B8007E7E807E7E80837D7F827E7F8080817DF3
:1051C8007F85807C80817F7E80857F7B7F877F7DD8
:1051D8008682867D778985757F807F837B7A8381C8
:1051E8007D8180798684787E8180858074857F80C2
:1051F800817B8380817E7F84817E797B8A7F7480B6
:105208007F897E75877C857C7C8376877B7F8274AB
:1052180080818581767F87877A768184867B748290
:10522800817F7F7D797D8283827B7B86887D7F7A83
:1052380083857F807F7D808A7F7C8086887E7B8552
:105248007F7B83827C7A808482797D8280807F7B69
:105258007E8681807B7B8780807F7E8187837F8538
:105268007E838680817D7F827F7D7C7E7B817F7946
:105278007E7F81827E7D8180807F797C7C797B794D
:10528800787C7E80817F83858383808185837E7E11
:105298008082827E7D8284848381838584848483E2
:1052A800848786858381807F7D7976747573707035
:1052B800717274757576767778767676787B7B7F7B
:1052C800848B939CA1A0A09F9E978E867F7B7673EC
:1052D800707073767B7F85888C90908F90908E8B82
:1052E800837E7A7775716E6E6F6E6E6C6A696868A8
:1052F80067676767676663656977868FA0A9B0B4D3
:10530800B3B2A89C8D867B736C676A6D767F878D38
:10531800939A9B9B958F89817C76716E6F72767953
:105328007D83888A8A898C8D89837F7C7A78757455
:1053380073747677767473716C696665686B6D6B78
:105348006B6F6F6B67758895A6ABB0B0B4B5AB9A49
:10535800898179756D68696D78838A8C919698973B
:105368009089807A7774706C6E73797D8284868870
:105378008988837E7D80827E7B7B7D7F81827E7B28
:105388007A7A78716C686667686A696A6E73757428
:10539800716C676D7F8A95A0A9AEAFB3B0A39389EE
:1053A800827A736F6E6C727C858A8E949796938FCF
:1053B800877E7A7774707173757A80858687888816
:1053C80085817E7E80817F7C7B7C7D7E7F7D7876FB
:1053D80076736F6B686767696B6C6F727372706CEA
:1053E80066616D808D9CA7B0AFB2B6B0A190857B89
:1053F8007471716D6C74808A9095979594948F856B
:105408007B75726F707374767B83888A8A898784C8
:1054180083817E7D7F7E7D7E7F7F7F7F7D797673B2
:10542800716D6A686867686C70737372706C6865B0
:10543800636C7B899AA9B1AFAFB2ADA294897C7332
:105448006F6F6E6D727B848C94979592908E878027
:105458007974706F7376787A7E8386898A88838078
:105468007F7D7D7F807F7E7F818181817E7974725F
:10547800706D6B6968686B6F71717273716E6D6B4B
:105488006A74838E9BA7AEACACADAA9E91877D75DE
:1054980070717170737B848B909594918E8C8880D9
:1054A8007A7572717377797A7E8386888987848022
:1054B8007E7D7E7E7F807F7E7F80807F7D7A767214
:1054C800706F6C696969686B6F737372716E6B6A00
:1054D800727F8893A0AAACAAACA9A1948B837A7393
:1054E80070727171767F878B8F92928E8B89847D93
:1054F8007775737273767A7B7E82868786858380DA
:105508007E7C7B79787B7F838689898582817F7A97
:10551800736E6A68676A6B6B6B6E73777877747093
:105528006B6C78878F959DA5A7A8AAA89D8E858066
:105538007B74706E6F7077818A8C8C8E91918D8A56
:10554800857E787777767474777B7F83878887857D
:105558008585827D7A777676777B8084888A8A8744
:1055680085827D77716D6A6968696A6C6E71757715
:105578007877767472747F898E939BA3A6A4A29E73
:10558800968B827D78716D6D70747980878B8C8E27
:1055980091928E88837F7B7674747474767B808313
:1055A800848687868483817E7A7777797A7A7C7E07
:1055B8008185898B8984807E7E7A75716E6D6E7027
:1055C80072717071767B7C7A797776787E85888A35
:1055D8008F979E9F9C98938E88837F7A7571727639
:1055E8007B7D7F83878B8D8E8D8B888482817D796F
:1055F800777778797A7B7D7E7E808282817E7D7DD9
:105608007D7C7B7A797A7B7E8285858482818180A4
:105618007E79747171717271717173777B7D7C7A27
:10562800797B7D80828283888F96989491909191DE
:105638008E88827D7B7B7B7A7A797A7E8386868563
:105648008587888785817E7D7D7C7B79797A7B7D5E
:105658007E7F7F7F7F8081807E7D7D7E7E7E7F8155
:105668008282817F7D7D7C7A787776777878797980
:105678007A7A7A7B7D7D7C7B7A7A7C7C7C7C7C7E6A
:10568800838A8F908E8D8F92928E88848383817D7A
:10569800797777797A7B7C7D7E818385868584841A
:1056A800848483807D7C7D7D7C7B7A7C7E80828403
:1056B800858585838382807C7A7978777676767615
:1056C8007677787878797B7C7C7B7B7D7E7F7F8121
:1056D80083878C9192929191918F8B8682807D7B2A
:1056E80079777777797C7E7F7F81838484848381CF
:1056F800807F7F7E7B7A7A7B7C7C7D7D7D7E7F80D0
:10570800828383817F7F7F7D7B7A797979797978C4
:1057180077777878777677787A7B7B7D7E808183D8
:1057280083848586888B8E8F8E8E8E8E8C8A8784D6
:105738008281807E7D7C7D7E808081828385868556
:1057480084828181807F7E7E7D7D7E7E7F82828253
:105758008180807E7D7B7A78787879787878787996
:105768007A79787978787878797A7B7D7F7F7F8085
:1057780081838485858585868786858585868787CF
:10578800878686868584838281807F7E7D7C7C7CFB
:105798007B7B7B7979787979797978797A7B7C7D63
:1057A8007E7F8183848383848584838281818283CD
:1057B80082828282838382818181828282818080C7
:1057C8008080807E7D7D7E7D7C7B7B7C7C7D7D7CFE
:1057D8007D7E7F80807F7F808182818181828383BB
:1057E8008383838383838282818180807F7F7F7E9E
:1057F8007E7F7F7E7D7D7D7D7D7D7D7D7D7D7D7DCB
:105808007D7E7E7E7E7E7F7F7F7F8080808181819E
:10581800818181818181808080807F7E7F7E7E7F83
:105828007F7F7F7F7F80808080807F7F8080808077
:1058380081808080807F80807F7E7E7E7E7E7E7F6E
:105848007F7F80808081808081818080807F808050
:10585800807F7F7F80808080807F7F807F7F7F7F49
:105868007F7F7F80807F7F80807F7F808080808037
:105878008080808080808080808080808080808020
:10588800807F80807F80807F7F8080807F7F808016
:105898008080807F7F7F7F7F80808080807F7F7F08
:1058A8007F807F7F7F7F7F7F7F7F7F7F7F808080FC
:1058B8007F8080808080807F7F7F7F7F7F7F7F7FEA
:1058C8007F7F7F7F7F80807F7F7F7F80807F7F7FDC
:1058D800807F7F7F808080807F807F7F7F7F7F80C9
:1058E80080808080808080807F8080807F7F8080B3
:1058F800807F7F7F807F7F7F807F7F7F7F7F7F7FAD
:1059080080808080808080808080807F7F7F7F7F94
:105918007F7F7F808080808181818181818181807A
:105928008080807F7F7F7F7F7F7E7F80807F808079
:105938007F7F7F7F7F80FFFF9C3E0020000000006C
:10594800000000000000000000000000000000004F
:10595800000000000000000000000000000000003F
:10596800000000000000000000000000000000002F
:10597800000000000000000000000000000000001F
:10598800000000000000000000000000000000000F
:10599800000000000000000000000000325476986B
:040000050800010DE1
:00000001FF
